:020000022000DC
:1060000000000420B5110300DD110300CD8C020057
:10601000E1110300E3110300E5110300000000009B
:10602000000000000000000000000000F94F030025
:10603000E91103000000000019500300ED110300F6
:106040003D140300EF110300F91D03008541030017
:106050007D2C0300EF110300591803002D3C0300B1
:10606000EF11030089290300E1290300EF11030068
:10607000EF110300EF110300EF110300EF11030014
:10608000EF11030021510300EF110300EF11030092
:10609000EF110300EF1103003DE70200EF110300D1
:1060A000EF110300EF110300EF110300392A030081
:1060B0003D390300EF110300000000000000000064
:1060C000EF110300F9390300B53A0300FD41030065
:1060D000EF110300EF110300EF110300EF110300B4
:1060E000EF110300EF110300EF11030000000000A7
:1060F00000000000713B030000000000EF110300EE
:10610000000000000000000000000000000000008F
:10611000000000000000000000000000000000007F
:10612000000000000000000000000000000000006F
:10613000000000000000000000000000000000005F
:10614000000000000000000000000000000000004F
:10615000000000000000000000000000000000003F
:10616000000000000000000000000000000000002F
:10617000000000000000000000000000000000001F
:10618000000000000000000000000000000000000F
:1061900000000000000000000000000000000000FF
:1061A00000000000000000000000000000000000EF
:1061B00000000000000000000000000000000000DF
:1061C00000000000000000000000000000000000CF
:1061D00000000000000000000000000000000000BF
:1061E00000000000000000000000000000000000AF
:1061F000000000000000000000000000000000009F
:1062000010B5054C237833B9044B13B10448AFF3F0
:1062100000800123237010BD105F002000000000EB
:10622000685E040008B5034B1BB103490348AFF394
:10623000008008BD00000000145F0020685E0400BC
:10624000154B002B08BF134B9D46A3F5803A002148
:106250008B460F461348144A121A16F03FFF0F4B95
:10626000002B00D098470E4B002B00D09847002001
:10627000002104000D000D48002802D00C48AFF3A7
:10628000008016F0EBFE2000290013F091FA16F0C2
:10629000D1FE00BF00000800000004200000000044
:1062A00000000000105F0020E4C600200000000095
:1062B00000000000704700BF00B583B0044B00939E
:1062C000044A402300F036F803B05DF804FB00BF39
:1062D000D9620200305F002002B32DE9F843114B70
:1062E000114E8846144643F0010903270025224633
:1062F00008EB0501002011F089F803461D444FF416
:106300007A40E41A23B9337833B1C847013F06D045
:1063100001233370002CEAD1BDE8F8837047377051
:10632000BDE8F883503104002C5F0020704700BFA7
:1063300011F04AB9F0B595B000241D460E46084646
:10634000174603F0FBFB304623460822099505A9B2
:106350001A9D08970D950A948DF82C400C9403F023
:1063600049FC9DF814308DF81140DDE9061003F06A
:106370000302012ACDE9020128D0022A04D03046C6
:1063800003F0E0FB15B0F0BDBDF81650C3F3C20337
:106390008DF81030C5F389150827082D2C4628BF25
:1063A00008243B4622460EA9304603F023FC2D1B51
:1063B000214608AB02AA0EA8274401F0F7F8002DE9
:1063C000EBD1304603F0BEFB15B0F0BDBDF8147044
:1063D000059DC7F38312C3F3C2040EA93046920091
:1063E00008238DF81040C7F3831703F003FCC5F3AF
:1063F000952508AB3A4628460EA9009302AB01F05A
:106400005DF8304603F09EFB15B0F0BD10B5054CAD
:10641000FFF78EFF2046042100F0D4FF01236372B2
:1064200010BD00BFB857002038B50F4B0F480024EF
:1064300000250022FF21C3E90045C3F81824996014
:1064400083F82024C3F8142403F022FB58B9084A27
:10645000084BD21AD20806D00749034621F8233048
:1064600001339A42FAD138BD806000209C5F04005D
:106470009C5F0400CC5E0400945E002099B10E4B3A
:106480000E495B1ADB0815D030B400220C4D02E037
:10649000013293420BD035F822408442F8D151F8B2
:1064A000320030BC7047054951F830007047002079
:1064B00030BC7047184670479C5F0400CC5E0400F7
:1064C000965E0020094B013903EBC00003290BD86D
:1064D000DFE801F00402080604207047022070473C
:1064E000407970470079704700207047CC5E040007
:1064F0002DE9F0478E4CD4E900239A4284B05FD056
:106500000023C4F81834BFF34F8FD4E90125236862
:1065100002EA0506F11C04EB8101087887072ED0FA
:1065200010F004073BD104EB8606511CF36801937D
:10653000294004EB810103F00303C9680291022B97
:1065400002F1020675D0012B3ED0D4F8105435B1BB
:106550002B6828469B6898476D68002DF8D1754BCD
:1065600075491888000440F0020000F0EBF8D4E907
:106570000030C01A18BF012004B0BDE8F0874607FC
:106580000DD448880988013202EB901202EB911277
:106590009342BDD80020636004B0BDE8F08700F0EE
:1065A0000300012806D00228F2D14988023202EB0A
:1065B0009112EDE709880232C1F383110A44E7E73B
:1065C000002004B0BDE8F087BDF804305B48C3F399
:1065D0008312062A28BF0622911C62F389138900C0
:1065E000ADF8043003F056FA80460028ADD003F031
:1065F000A5FA3B46082201A9404603F0CFFABDF8B0
:10660000043013F4707F56D031462940BB0003316B
:10661000083304EB81010422404603F0BFFABDF8C1
:1066200004300137C3F38313BB4206F10106EBD8F4
:1066300041E0BDF806304148C3F38919B9F1500F64
:10664000CA4628BF4FF0500A6AF38F130AF10801B7
:10665000ADF8063003F01EFA804600283FF475AF0F
:1066600003F06CFA3B46082201A9404603F096FA73
:1066700025EA06030133BAEB830F4FEA83074CD9AF
:10668000002F43D006EA05010331AAEB070A04EB09
:10669000810108233A4640465FFA8AFA03F07EFAFF
:1066A0002749524607F10803404603F077FA09F1FB
:1066B000030906EB9906D4F818341BBBD4F8105420
:1066C0004DB16B7A28464146C3B12B681B68984789
:1066D0006D68002DF5D1404603F034FA00230DF12A
:1066E00003008DF8033001F069F9D4F8183403B9C8
:1066F00066609DF8030001F087F938E76D68002DAA
:10670000DFD1E8E7404603F01DFA30E70C49524676
:106710000823404603F042FAC9E706EA05010331BF
:1067200004EB810152460823404603F037FABEE7E6
:1067300080600020BC5E0020643104009C5F040087
:106740008C6000202DE9F04F614C87B00023064695
:106750000DF10B008DF80B30A568884601F02EF97D
:10676000D4E9012327681A440132D21B012A7FD8B9
:1067700004F21C4904F5836B04F2144A31E01EF064
:10678000040C5DD104EB800003F1010EC26803929A
:106790000EEA010104EB810102F00302012AC9683B
:1067A00003F1020345D0022A41D1BDF80E20C2F305
:1067B00089120332090C03EB92035046CDE9001312
:1067C00002F048FC009980B3019B6360484602F0E8
:1067D00015FCD4E90113226819440131891A0129F1
:1067E00047D80121484602F009FC584602F022FC35
:1067F000504602F01FFCD4E9013103EA0100C21C3B
:1068000004EB820292F800E01EF0030FB7D11EF0F5
:10681000040F03F1010C13D1538812880CEB93136E
:1068200003EB921303EA0100E9E74846CFE761462C
:10683000C3E7BDF80C20C2F38312090C1344BCE774
:106840000EF0030EBEF1010F0AD0BEF1020F03F1EC
:10685000020CD4D153880CEB931303EA0100CEE76A
:1068600012880233C2F38312134403EA0100C6E71D
:106870003A4613400333023205219DF80B0044F8D9
:106880002310226001F0C0F80021124802F07EFBC4
:1068900080F31000F1007B1C2B4001F038013D40DB
:1068A00004EB830341F001010004033540EA16467E
:1068B00041EA8821DE6044F8251094F820341BB1A9
:1068C000FFF716FE0028FBD107B0BDE8F08F00BF30
:1068D000806000209C6400202DE9F04FDFF8A4B117
:1068E00089B0002306460DF1130017468DF81330CA
:1068F000DBF80840039101F061F8DBE90123DBF8E4
:1069000000501A440132521B022A00F282800BF21C
:106910001C480BF5836A0BF2144933E01EF0040C9B
:106920005FD10BEB800003F1010EC26805920EEA05
:1069300001010BEB810102F00302012AC96803F196
:10694000020347D0022A43D1BDF81620C2F38912B0
:106950000332090C03EB92034846CDE9013102F002
:1069600079FB029990B3019BCBF80430404602F0CA
:1069700045FBDBE90113DBF8002019440131891ADA
:10698000022947D80121404602F038FB504602F068
:1069900051FB484602F04EFBDBE9013103EA0100FE
:1069A000C21C0BEB820292F800E01EF0030FB5D17F
:1069B0001EF0040F03F1010C13D1538812880CEB65
:1069C000931303EB921303EA0100E9E74046CEE795
:1069D0006146C1E7BDF81420C2F38312090C1344C9
:1069E000BAE70EF0030EBEF1010F0AD0BEF1020F9E
:1069F00003F1020CD4D153880CEB931303EA01008A
:106A0000CEE712880233C2F38312134403EA010073
:106A1000C6E72A4613400333033245219DF813008D
:106A20004BF82310CBF8002000F0EEFFAB1C234006
:106A30000BEB830300211248DF6002F0A7FA80F31A
:106A40001000F1006B1C2340039A01F038012C4028
:106A50000BEB830341F041010004033440EA164686
:106A600041EA8221DE604BF824109BF820341BB1F0
:106A7000FFF73EFD0028FBD109B0BDE8F08F00BF55
:106A80009C640020806000202DE9F04F684C89B0A4
:106A9000002607460DF11300CDE902238DF813609F
:106AA000A568884600F08AFFD4E9012326681A44C5
:106AB0000132921B032A7FD804F21C4904F5836B30
:106AC00004F2144A31E01EF0040C5DD104EB8000A6
:106AD00003F1010EC26805920EEA010104EB810187
:106AE00002F00302012AC96803F1020345D0022A19
:106AF00041D1BDF81620C2F389120332090C03EB11
:106B000092035046CDE9001302F0A4FA009980B335
:106B1000019B6360484602F071FAD4E901132268D0
:106B200019440131891A032947D80121484602F046
:106B300065FA584602F07EFA504602F07BFAD4E934
:106B4000013103EA0100C21C04EB820292F800E06A
:106B50001EF0030FB7D11EF0040F03F1010C13D187
:106B6000538812880CEB931303EB921303EA010092
:106B7000E9E74846CFE76146C3E7BDF81420C2F312
:106B80008312090C1344BCE70EF0030EBEF1010F93
:106B90000AD0BEF1020F03F1020CD4D153880CEBE2
:106BA000931303EA0100CEE712880233C2F3831283
:106BB000134403EA0100C6E73246134003330432AC
:106BC00085219DF8130044F82310226000F01CFF7B
:106BD000B21C2A40F31C2B4004EB820204EB830C12
:106BE000029BD3600021039B1248CCF80C3002F0CA
:106BF000CDF980F31000F900731C2B4001F038012F
:106C0000354004EB830341F081010004033540EA81
:106C1000174741EA8821DF6044F8251094F82034B2
:106C20001BB1FFF765FC0028FBD109B0BDE8F08F70
:106C3000806000209C6400202DE9F04F6B4C89B0EF
:106C4000002607460DF11300CDE902238DF81360ED
:106C5000A568884600F0B2FED4E9012326681A44EC
:106C60000132921B042A7FD804F21C4904F5836B7D
:106C700004F2144A31E01EF0040C5DD104EB8000F4
:106C800003F1010EC26805920EEA010104EB8101D5
:106C900002F00302012AC96803F1020345D0022A67
:106CA00041D1BDF81620C2F389120332090C03EB5F
:106CB00092035046CDE9001302F0CCF9009980B35D
:106CC000019B6360484602F099F9D4E901132268F8
:106CD00019440131891A042947D80121484602F094
:106CE0008DF9584602F0A6F9504602F0A3F9D4E90E
:106CF000013103EA0100C21C04EB820292F800E0B9
:106D00001EF0030FB7D11EF0040F03F1010C13D1D5
:106D1000538812880CEB931303EB921303EA0100E0
:106D2000E9E74846CFE76146C3E7BDF81420C2F360
:106D30008312090C1344BCE70EF0030EBEF1010FE1
:106D40000AD0BEF1020F03F1020CD4D153880CEB30
:106D5000931303EA0100CEE712880233C2F38312D1
:106D6000134403EA0100C6E73246134003330532F9
:106D7000C5219DF8130044F82310226000F044FE62
:106D8000B01C2840F21C331D2B402A4004EB80002D
:106D900004EB830C04EB8202029BC360039BD36071
:106DA0000021129B1248CCF80C3002F0EFF880F36F
:106DB0001000F900731C2B4001F03801354004EB42
:106DC000830341F0C1010004033540EA174741EA5B
:106DD0008821DF6044F8251094F820341BB1FFF7B8
:106DE00087FB0028FBD109B0BDE8F08F8060002050
:106DF0009C6400202DE9F04F714C89B000260746B5
:106E00000DF11300CDE902238DF81360A5688846C3
:106E100000F0D4FDD4E9012326681A440132921B04
:106E2000052A7FD804F21C4904F5836B04F2144A46
:106E300031E01EF0040C5DD104EB800003F1010E83
:106E4000C26805920EEA010104EB810102F003021F
:106E5000012AC96803F1020345D0022A41D1BDF8D5
:106E60001620C2F389120332090C03EB9203504639
:106E7000CDE9001302F0EEF8009980B3019B636046
:106E8000484602F0BBF8D4E90113226819440131E5
:106E9000891A052947D80121484602F0AFF858461B
:106EA00002F0C8F8504602F0C5F8D4E9013103EA0F
:106EB0000100C21C04EB820292F800E01EF0030FF6
:106EC000B7D11EF0040F03F1010C13D153881288BF
:106ED0000CEB931303EB921303EA0100E9E7484636
:106EE000CFE76146C3E7BDF81420C2F38312090C53
:106EF0001344BCE70EF0030EBEF1010F0AD0BEF141
:106F0000020F03F1020CD4D153880CEB931303EA64
:106F10000100CEE712880233C2F38312134403EA5E
:106F20000100C6E7324613400333063240F2051132
:106F30009DF8130044F82310226000F065FDB11C99
:106F400006F1030C29400CEA050C321D731D2B4081
:106F50002A4004EB810104EB8C0C0298C86004EB1E
:106F6000830E04EB8202039BCCF80C30129BD3609F
:106F70000021139B1348CEF80C3002F007F880F381
:106F80001000F90001F03801731C2B4041F48071AE
:106F9000354004EB830341F001010004033540EA6E
:106FA000174741EA8821DF6044F8251094F820341F
:106FB0001BB1FFF79DFA0028FBD109B0BDE8F08FA7
:106FC000806000209C6400202DE9F04F8FB01F46A8
:106FD000784C0392CDE90927199A189E0C92002348
:106FE0001A9A0B9681460DF117000D928DF8173005
:106FF000A568029100F0E2FCD4E9012326681A4456
:107000000132921B062A7FD804F21C4A04F58368D9
:1070100004F2144B31E01EF0040C5DD104EB80004F
:1070200003F1010EC26806920EEA010104EB810130
:1070300002F00302012AC96803F1020345D0022AC3
:1070400041D1BDF81A20C2F389120332090C03EBB7
:1070500092035846CDE9003101F0FCFF019980B35D
:10706000009B6360504601F0C9FFD4E90113226818
:1070700019440131891A062947D80121504601F0E7
:10708000BDFF404601F0D6FF584601F0D3FFD4E9DA
:10709000013103EA0100C21C04EB820292F800E015
:1070A0001EF0030FB7D11EF0040F03F1010C13D132
:1070B000538812880CEB931303EB921303EA01003D
:1070C000E9E75046CFE76146C3E7BDF81820C2F3B1
:1070D0008312090C1344BCE70EF0030EBEF1010F3E
:1070E0000AD0BEF1020F03F1020CD4D153880CEB8D
:1070F000931303EA0100CEE712880233C2F383122E
:10710000134403EA0100C6E7324613400333073253
:1071100040F245119DF8170044F82310226000F05A
:1071200073FCB11C2940F01C06F1040CB31D2B406C
:1071300028400CEA050C04EB8101721D04EB830E60
:107140002A40039BCB6004EB800004EB8C0C189B63
:10715000C76004EB8202CCF80C30199BD36000218D
:107160001A9B1548CEF80C3001F010FF80F3100088
:107170004FEAC90101F03801731C2B40029A41F417
:10718000A071354004EB830341F001010004033595
:1071900040EA194041EA8221D86044F8251094F869
:1071A00020341BB1FFF7A4F90028FBD10FB0BDE8D4
:1071B000F08F00BF806000209C6400202DE9F04F1C
:1071C0008FB01F46CDE908270392199A7B4C0B928A
:1071D0001A9A189E0C9200231B9A0A9680460DF16B
:1071E00013000D928DF81330A568029100F0E6FBB4
:1071F000D4E9012326681A440132921B072A7FD85A
:1072000004F21C4904F5836B04F2144A31E01EF0C9
:10721000040C5DD104EB800003F1010EC2680592FD
:107220000EEA010104EB810102F00302012AC968A0
:1072300003F1020345D0022A41D1BDF81620C2F362
:1072400089120332090C03EB92035046CDE9003159
:1072500001F000FF019980B3009B6360484601F094
:10726000CDFED4E90113226819440131891A072996
:1072700047D80121484601F0C1FE584601F0DAFE28
:10728000504601F0D7FED4E9013103EA0100C21CE7
:1072900004EB820292F800E01EF0030FB7D11EF05B
:1072A000040F03F1010C13D1538812880CEB9313D4
:1072B00003EB921303EA0100E9E74846CFE7614692
:1072C000C3E7BDF81420C2F38312090C1344BCE7D2
:1072D0000EF0030EBEF1010F0AD0BEF1020F03F152
:1072E000020CD4D153880CEB931303EA0100CEE7D0
:1072F00012880233C2F38312134403EA0100C6E783
:10730000324613400333083240F285119DF81300D2
:1073100044F82310226000F077FBB01C2840F11CD9
:1073200006F1040CB31D2B4029400CEA050C04EBBC
:107330008000721D2A4004EB810104EB8C0C04EBED
:107340008309039BC36004EB8202189BCF6006F1A4
:10735000070ECCF80C300EEA050E199BD36004EB37
:107360008E0E1A9BC9F80C3000211B9B1448CEF8D6
:107370000C3001F00BFE80F310004FEAC80101F061
:107380003801731C2B40029A41F4C071354004EB64
:10739000830341F001010004033540EA184041EA4B
:1073A0008221D86044F8251094F820341BB1FFF7EF
:1073B0009FF80028FBD10FB0BDE8F08F806000205F
:1073C0009C64002030B4124DD5F8101404460020FF
:1073D00069B10B4601E05B684BB11A7A8242FAD17F
:1073E00001300A28F4D14FF0FF3030BC70472072D2
:1073F000D5F8103433B15B686360D5F810345C6045
:1074000030BC7047C5F81044636030BC704700BFA3
:107410008060002038B5084BD3F81044012583F86C
:1074200020543CB12368657220465B6898476468C5
:10743000002CF7D138BD00BF8060002030B5C38874
:1074400085B004460D461BBB217A05291ED0627A01
:1074500082B9134AA08852F8212003920021FFF735
:107460000DF8039A0F490346284605B0BDE83040A1
:107470000DF07EB9A088FFF725F80B4B0B4953F8A8
:10748000202028460DF074F9217AE2E705B030BDDE
:10749000074A00920749084A28460DF069F9D3E7E0
:1074A00060320400C83104003C320400C4310400DE
:1074B000BC310400A43104009C3104002DE9F043E8
:1074C00085B04FF0000C0C9C814694F80C8084F839
:1074D0000CC00E461746184621461D46FFF7AEFF64
:1074E000062F09D8DFE807F0042E343B444F1F0075
:1074F000494620460DF03CF92B7A052B05D06B7AD6
:107500005BB9274920460DF033F920460DF024F9E8
:1075100084F80C8005B0BDE8F083224A2249204659
:107520000DF026F9EDE7D6E90413F2680393B3688A
:107530000291CDE900324946D6E9002320460DF0FC
:1075400017F9D9E73268494620460DF011F9D3E71B
:10755000D6E90023494620460DF00AF9CCE7B36886
:107560000093D6E90023494620460DF001F9C3E710
:10757000D6E9023201920093D6E90023494620461B
:107580000DF0F6F8B8E7D6E90321B3680291CDE92A
:1075900000324946D6E9002320460DF0E9F8ABE772
:1075A000D4310400BC310400C4310400082900D9DE
:1075B00070472DE9F04F9B4683B000241B7B8BF86E
:1075C0000C400D4606465946104690460193DFF89A
:1075D000C8902A4FFFF732FF05E0325D01340DF00D
:1075E000C7F8082C09D0A54239465846F5D849466F
:1075F00001340DF0BDF8082CF5D12149DFF89C903D
:10760000204F214C58460DF0B3F84FF0000A0EE021
:1076100016F80A2012F807C01CF0970F08BF2E2298
:107620000AF1010A0DF0A4F8BAF1080F0BD0554584
:1076300021465846ECD849460AF1010A0DF098F85F
:10764000BAF1080FF3D198F80830052B02D098F85A
:10765000093063B90D4958460DF08AF858460DF0C7
:107660007BF8019B8BF80C3003B0BDE8F08F084A23
:10767000084958460DF07CF8ECE700BFD83104000B
:10768000E431040040590400E8310400D43104001E
:10769000BC310400C4310400E0310400D0310400E6
:1076A00030B482B001248DF80740144B9DF8075088
:1076B000186044F20104A04259609A6013D044F269
:1076C0000201884206D1DA60DA6812889A61DA68C3
:1076D0005268DA6172B69DF80730002BFBD162B6B2
:1076E00002B030BC70471A611A6992685A611A690F
:1076F00012689A611A695268DA61EBE7A4640020A3
:1077000000B583B002900091019244F201007146ED
:107710006A4600F003F803B000BD00BF2DE9F04158
:10772000044686B00E46154672B6FFF773FEFEF7A6
:10773000DFFE0028FBD144F201039C422AD01AD874
:10774000012C51D041F201039C4243D12B4B2C49D7
:107750001888000440F00100FEF7F4FF294B1B6875
:10776000DB0700D500BE2A463146204606B0BDE8FC
:10777000F041FFF795BF44F202039C422AD11F4A11
:107780002B88108820496A68000440F00100FFF748
:107790007BF9E3E7AA68DFF8648005921046B8F841
:1077A000007002F069FA2968059ACDE901163F04D4
:1077B0006968009147F00107034614493846FFF70E
:1077C00003FCB8F800001249000440F00100FEF785
:1077D000B9FFC3E7094B0F491888000440F00100C6
:1077E0003246FFF779F8B9E7044B0B4918880004D3
:1077F00040F00100FEF7A6FFB0E700BFBC5E00202E
:1078000094320400F0ED00E0B8320400D4320400F9
:10781000FC320400103304007432040010B50FF081
:10782000E9FD037B23B183680068BDE81040184779
:1078300010BD00BF0020704770B5056882B0FAB176
:107840002B7B13B90E46696811B1082002B070BDD8
:1078500014462846102215F041FC321E0A4BAC603B
:1078600018BF012200934FF47A712B4607480FF09E
:1078700039FD0028686014BF00200E2002B070BDE2
:10788000072002B070BD00BF1D780200D031040097
:107890002DE9F041476884B0002F57D0037B0446A0
:1078A0000E461546002B3BD12560EFF3058585B9C3
:1078B0004FF002083246CDF800802B4604213846AE
:1078C0000FF05CFD0128064633D0042004B0BDE86B
:1078D000F08100253246009503AB09213846039517
:1078E0000FF04CFD0128F0D10EF0A2FE00950246EB
:1078F00003AB384606210FF041FD0128E5D1039B7B
:1079000043B1144B4FF080525A6040BFBFF34F8FCA
:10791000BFF36F8F01230020237304B0BDE8F08113
:1079200038460FF057FD0028BED0002004B0BDE857
:10793000F0810EF077FECDF8008002462B463146EE
:1079400038460FF01BFD0128E4D0BEE7082004B044
:10795000BDE8F08100ED00E010B50446406884B059
:1079600038B3EFF305835BB90222009203211A4674
:107970000FF004FD012819D10020207304B010BDC0
:107980000022009203AB082103920FF0F7FC0128BC
:107990000CD1039B002BEFD0074B4FF080525A6065
:1079A00040BFBFF34F8FBFF36F8FE5E7042004B0F4
:1079B00010BD082004B010BD00ED00E070B4EFF37E
:1079C000108472B60D4B9A68AAB90D490D4E012567
:1079D0009D60D1F8805035401D60C1F88060D1F8BD
:1079E00084505D604FF0FF33C1F88430027004B9F9
:1079F00062B670BC704701230370F8E750C50020E1
:107A000000E100E0FC06FFBD094B9A687AB170B94D
:107A100010B4EFF3108172B6064A1C6814605C68FB
:107A20005460986001B962B65DF8044B70477047C6
:107A300050C5002000E100E0F0B543688C461BB162
:107A4000314AD468A3423AD20023304EACF8003019
:107A500073684FF0010E03F580544FF6FF7708333B
:107A60009C420ED8BEF1020FACF800E006F11406FD
:107A700048D0736803F5805408339C424FF0020EDF
:107A8000F0D91A680132EDD05A88033203EB820232
:107A90009442E7D39D88BD4207D01D882DB105686B
:107AA0009968A94205D01346DAE79442DAD9134619
:107AB000E7E7174A4360138903810120F0BD12698B
:107AC0009342C1D813F00305BED1114A048912892B
:107AD0009442B9D104689A689442B5D10B4842687F
:107AE000934203D902F58052934207D382699342AD
:107AF00008D902F58052934204D20125ACF8005017
:107B00000120F0BD0020F0BDFC5E002004650020D7
:107B1000E86400202DE9F04FAC4E89B004464FF6E2
:107B2000FF773568002D00F0C9802A78531E052B99
:107B300000F23082DFE803F05B2222030340002CD6
:107B400040F0C3802B79012B00F08881022B00F0DC
:107B50000581002B00F0A8810DF10C08C8E9024452
:107B60000394C8F810400F2404942B78013B052B94
:107B70004CD8DFE803F0746584789848B5F814A011
:107B8000002C40F0B480DFF86C92A97D0AEB8A03E8
:107B900009EB83034FEA8A081C895B6803EB8404C2
:107BA000062900F27884DFE811F0D402E302F6023D
:107BB00009038302B9026902002C40F08680DFF8D5
:107BC00030C29CF80C30002B00F02D819CF8003066
:107BD0008CF80C40013B062B00F2DC81DFE813F04F
:107BE00007041102E401F901DA013802B701002C9F
:107BF00076D12B79032B00F2DD80DFE813F008014A
:107C00009E00FD00B80005238DF80C30704C04F187
:107C1000100554F8043B404603B19847A542F8D1FB
:107C20006C496D480024346001F082F96B480121F1
:107C300001F0F2F900287FF474AF09B0BDE8F08FCD
:107C400001238DF80C302B89ADF81830AB88ADF8D6
:107C50001A30EB68059300238DF81C30D6E700231B
:107C60008DF80C30D2E703238DF80C30EB88ADF89B
:107C700018302B89ADF81A30EB680593C6E702235C
:107C80008DF80C302B89ADF81830AB88ADF81A3070
:107C9000EB680593AB7DA3F10603B3FA83F35B09AD
:107CA0008DF81C30B2E704238DF80C30EB88ADF86A
:107CB00018300023ADF81A300593A7E74549464828
:107CC00001F006F9054630602FE701240DF10C089C
:107CD0000023C8E90033C8E90233C8F8103043E78D
:107CE0003F4B00225A6001240DF10C08F0E7AB7DF8
:107CF000DFF80091022B08D90AEB8A0209EB820215
:107D0000EB88118903330B4413814FEA8A08D0446E
:107D1000EB8809EB8809C3F57F43B9F80A200DF118
:107D20000C08FD3313440022C8E90322A9F80A30E5
:107D3000C8F808200392012416E7DFF8B89099F8F4
:107D40000030022B00F0728399F81430022B00F0FF
:107D50007D83234B0121002219705A600DF10C081C
:107D60000024C8E90344C8F808400394FCE61D4C0D
:107D70001D4A21681D48DFF87C904FF0000885F807
:107D800004800823CDF8008001F0D6FB184B25684D
:107D90005B88A18803EB830309EB830209F8238046
:107DA00053682360022355601181A38000283FF4AB
:107DB00044AF35680A4A0DF10C080023C8E90233C4
:107DC00053600393C8F810300E24CDE60065002000
:107DD000D0640020F8640020C45700202C650020E7
:107DE000E0640020306500203C330400FC5E00208D
:107DF000E864002004650020BE4ABF4811680023E3
:107E000002242B719480012201F02AFCCEE7B94BA9
:107E1000BA4A1968B84801232B710023009308233C
:107E200001F08AFBC2E79CF80030072B09D8DFE895
:107E300013F0100208000800F20144028E008E00C8
:107E40003E02013B062B00F2A580DFE813F0D002D2
:107E5000DA00AD00C200A30001018000A84B1B782E
:107E6000002B00F0B482DFF89CC2BCF80480B8F1AB
:107E7000010F12D8DFF8A09208EB8802204609EB28
:107E80008202137813B308F1010399B201299846CD
:107E9000ACF8043002F11402F3D99A480822002108
:107EA00015F01CF9356859E702232B71CDE904441C
:107EB0000DF10C08EB68039340460DF10A01FFF742
:107EC000BBFD002840F08D810A2401E75368DCF8EF
:107ED000001003F5805E03F1080A002900F07082AB
:107EE0004B88033301EB83018E4540F26D820B68B2
:107EF000013300F069824B88033301EB83039E4515
:107F0000C0F06282B1F804B0BB4518D00C88B4B19F
:107F1000EB88CCF800105B45DFD1002300937A4A50
:107F20007548042301F008FB002840F0AC8208EB00
:107F3000880809EB8809012389F810307DE69E4501
:107F400040F2428219460B680133D4D13CE2694BBE
:107F50006A4A1968684800230093CCF80430072364
:107F60008CF80030082301F0E7FA0446002C3FF4B7
:107F700064AE35680DF10C0841F61D5200239442A1
:107F8000C8E90333C8F80830039308BF1C463FF420
:107F9000EBAD29E20DF10C080023C8E90333C8F862
:107FA000083003930F24DFE5DCF8042051485388A0
:107FB00084880168504803339BB29B0001EB840125
:107FC0000024009403248CF8004001F0B5FA044624
:107FD000CCE7BCF80230DFF8409103EB830309EBF8
:107FE0008309D9F80C30002B40F0CC8104228CF8A6
:107FF0000020D9F804104048012201F031FB04466A
:10800000B4E7BCF80200DFF81091DCF8042000EBC4
:10801000800309EB83038500596801F58054002A29
:1080200040F0128101F10802A242C0F05E812844B2
:1080300009EB8009D9F80C30002B40F0A381042013
:108040008CF8000001222C4801F00AFB04468DE761
:10805000BCF80220DFF8C0909300134409EB8309B9
:1080600006200023D9F80410284A00938CF8000059
:108070000823214801F060FA044677E72A4641F6D2
:108080001D5408EB0A0109EB8101EB8808890333D1
:1080900003440B81D044EB8809EB8809C3F57F4387
:1080A000B9F80A10FD330B441546A9F80A3061E708
:1080B0001748AB69174903604FF0000BC0F804B0D4
:1080C000FFF7BAFC002800F095810223AB7504236A
:1080D0000948CDF800B02146EA1801F02DFA002831
:1080E0003FF4ABADAB7D3268022B4FF00E04D1D91B
:1080F000C7E700BF30650020FC5E00204433040069
:10810000E06400203C650020383304003C33040068
:10811000C46400203865002004650020BC4BBD4AC3
:108120001C885168BC48BD4A00234FF0060C85F8F6
:1081300016C00093042301F0FFF90028D2D104EB0C
:10814000840409EB8409012389F8103009B0BDE8E3
:10815000F08F02230022AB7504230092AE48214623
:10816000EA1801F0E9F90028BCD109B0BDE8F08FA8
:10817000032A0CBF052306230022AB75A6480092F4
:10818000211D042305F1080201F0D6F90028A9D128
:1081900009B0BDE8F08F2B699F48002B14BF032363
:1081A00001230022AB7504F108010092042305F1BC
:1081B0000C0201F0C1F9002894D13EE5EB882A6950
:1081C00095484FF0010C04F10C01002485F816C00D
:1081D0009B00009401F0B0F9002883D109B0BDE8FC
:1081E000F08F04998D4A8B88EB800B882B818A480D
:1081F00000940423BDF80A4001F09EF9002840F0E5
:108200000381874B04EB840403EB84040123237470
:1082100009B0BDE8F08FBCF80200824DDFF8009293
:10822000DCF80420AB88548800EB800109EB810165
:108230000333496823444FF0020EAB8001F58054AC
:1082400000FA0EF58CF800E05388033302EB83024A
:10825000EAE6DFF8CC91BCF8081099F8142099F8F8
:108260000030B2FA82F252090131B3FA83F35B09AA
:108270008CF80B20ACF80810002201218CF80A3091
:10828000ACF802208CF80C208CF80010002B4DD09C
:10829000DFF88C91D9F80C3000228CF80A20002BE2
:1082A00044D199F81020002A40D018464EE001230E
:1082B0008CF800309CF80A30E8E7BCF80220DFF8C0
:1082C0006091584902EB820309EB830308685D68FB
:1082D0008C88586002201C810D60888002FA00F3AF
:1082E000BBE6A342BFF4A3AE1A46136801333FF4C2
:1082F0009EAE5388033302EB8303A3423FF697AE4F
:10830000B2F804E0BE45ECD0B2F800E0BEF1000FD8
:10831000E7D0CCF80420434C5388A58821683E4818
:1083200003339BB29B0001EB850149E69CF80B30BF
:10833000B3B3DFF8EC90D9F8203000228CF80B2092
:1083400073BB99F824305BB3012318469D00E918EC
:1083500009EB8101DCF804204968ACF8020001F562
:108360008054002A00F094805088033002EB800291
:1083700094426DD82B4409EB8309D9F80C30002BBB
:108380003FF45DAE274B2448196802229A800522EB
:108390008CF800200023012201F062F90446E5E593
:1083A0000DF10C080023C8E90333C8F808308CF835
:1083B0000030ACF80230CCF804300393FFF7D4BBA4
:1083C00051468E453FF693ADCCF800005BE50DF1CC
:1083D0000C0821461448082214F080FEC8E9024423
:1083E0000394C8F8104002243568FFF7BDBB9CF821
:1083F0000A304BE70DF10C08C8E9020003900A248B
:10840000C8F81000FFF7B0BB35680E2460E400BF69
:1084100038650020C4640020FC5E0020383304006E
:1084200004650020306500203C65002000239A0090
:108430001A4409EB8203002059680090082309F8C8
:108440002200164A164801F077F8AFE40123EEE760
:10845000106801308ED05088033002EB80008442D7
:1084600088D3B2F804E0BE4505D0B2F800E0BEF112
:10847000000F7FF44EAF84427FF67CAF0246106857
:108480000130E8D176E735680E240DF10C081FE4C1
:1084900001F108026CE72A460F24F2E53C330400A0
:1084A000FC5E00204068FFF735BB00BF20B370B50D
:1084B0000D4682B0E9B10DF106010446FFF7BCFAA2
:1084C00010B90A2002B070BDBDF806000B4B6668FB
:1084D00000EB800003EB800001210C3000F08EFDEA
:1084E0002E60636801220C3300206B60A27202B020
:1084F00070BD052002B070BD0520704704650020E6
:1085000000B310B582B00DF106010446FFF794FAEE
:10851000A8B1BDF806300C4A03EB830302EB8303DA
:10852000DA684AB1A27A3AB1DA680021013A08461B
:10853000DA60A17202B010BD062002B010BD0A20A0
:1085400002B010BD05207047046500201E4B1B784B
:1085500003B328B3CB1C9BB240F2FD3293421CD82C
:10856000F0B41A4A16783EB9558914892C441C4433
:10857000A4B2B4F5806F16D3147D3CB9D58B948B1F
:108580002C441C44A4B2B4F5806F19D307231846B9
:10859000F0BC7047022318467047092318467047FD
:1085A0000523184670473746BC003C4402EB840262
:1085B0002B4453810680418000231846F0BC70474D
:1085C00001263746F0E700BFE06400200465002084
:1085D000134B1A78D2B1034600B30288022A1BD883
:1085E00010B41048598802EB820200EB82028C1C06
:1085F000508984420CDAC1F57F41FD3100240144E9
:1086000051811C6020465DF8044B70470220704782
:1086100004205DF8044B7047042070470520704724
:10862000E0640020046500202DE9F0474E4B1B78E4
:1086300082B073B30C46002941D00A884FF6FF730D
:108640009A4221D04B88FBB14D6815F0030531D11A
:10865000B1F8089009F103039BB240F2FD32934256
:108660002FD8424A1178074639B9508911890144F7
:10867000194489B2B1F5806F25D3117D71B10725F9
:10868000284602B0BDE8F0870425284602B0BDE8C0
:10869000F0870225284602B0BDE8F087D08B918B89
:1086A0000144194489B2B1F5806FE8D24FF0010856
:1086B00041460AE00325284602B0BDE8F0870525BB
:1086C000DEE70925DCE7A84629464FEA810A8A4405
:1086D00002EB8A0A034401A92548AAF80A3000F0EF
:1086E000B9FB1C220646002114F0F8FC002E2FD006
:1086F00002234FF0000AA6F81480337086F816A003
:108700006368336101211B4800F078FCF060238826
:10871000338163881648B38001A9A6F80AA0A6F899
:10872000069000F0C5FB47B1C7F804A0F268124BF1
:108730003A601B8987F80AA03B811048012100F0AC
:108740004FFC044600289BD1FFF7E4F9254697E744
:10875000BAF80A30C9F57F4909F1FD099944AAF828
:108760000A9008258CE700BFE06400200465002023
:10877000C4570020FC640020E86400202C65002021
:108780002DE9F04383B0002A4BD0384B1B78002BE7
:1087900055D00C46002944D009884FF6FF73994202
:1087A00048D06388002B45D0656815F003054BD190
:1087B00001A907462E48B2F80080B2F8029000F0F6
:1087C00049FB1C220646294614F088FC002E3DD0A9
:1087D0000223B575A6F814803370636833610121F4
:1087E000244800F00BFCF060238833816388204824
:1087F000B38001A9A6F80690758100F059FB37B146
:108800007D60F2681C4B3A601B89BD723B811B483E
:10881000012100F0E5FB044640B1284603B0BDE865
:10882000F0830525284603B0BDE8F083FFF772F911
:108830002546F2E70425284603B0BDE8F08302256B
:10884000284603B0BDE8F0830325E6E70C4B08EBB0
:10885000880803EB8808C9F57F49B8F80A3009F1A0
:10886000FD099944A8F80A900825D6E7E06400209D
:10887000C4570020FC640020E86400202C65002020
:10888000046500202DE9F04782B060B34F4B1B78A0
:10889000002B3ED00C4631B30A884FF6FF739A4244
:1088A00032D04B8883B34E6816F0030636D1B1F848
:1088B00008A00AF103039BB240F2FD3293422FD885
:1088C000434A1178054639B951891089084418443A
:1088D00080B2B0F5806F25D3117D49B107263046AF
:1088E00002B0BDE8F0870526304602B0BDE8F0874B
:1088F000D18B908B0844184480B2B0F5806FEDD2D4
:108900004FF0010948460FE00426304602B0BDE8AA
:10891000F0870226304602B0BDE8F0870326DEE786
:108920000926DCE7B14630464FEA8008804402EB76
:1089300088080B442748A8F80A3001A900F08AFAF1
:108940001C220746002114F0C9FB002F32D04FF043
:1089500000080323A7F814903B7087F8168063681B
:108960003B6101211C4800F049FBF86023883B81F2
:108970006388BB800423A7F806A0BB752B68BB6186
:1089800001A91448A7F80A8000F092FAC5F80480FB
:10899000FA68124B2A601B89114885F80A802B81DE
:1089A000012100F01DFB0446002898D1FFF7B2F822
:1089B000264694E7B8F80A30CAF57F4A0AF1FD0A5C
:1089C0009A44A8F80AA0082689E700BFE0640020BE
:1089D00004650020C4570020FC640020E8640020E7
:1089E0002C65002070B51B4B1B7882B00BB34FF683
:1089F000FF739842044624D001A9174800F02AFAD0
:108A00001C220546002114F069FBB5B1052301269F
:108A1000EC8001A92B7010482E7100F049FA0F4824
:108A2000314600F0DDFA044678B10024204602B059
:108A300070BD0224204602B070BD0824204602B05A
:108A400070BD0424204602B070BDFFF763F82046D5
:108A500002B070BDE0640020C45700202C650020E7
:108A60002DE9F043304C2478002C56D0002A57D002
:108A7000002B55D0B3F804E0BEF1010F14D82B4EF3
:108A80000EEB8E0406EB84064FF6FF774FF0000CDA
:108A900034785CB10EF10104A4B2022C9C8006F182
:108AA00014064FF0010EF3D10A2031E01C687568FE
:108AB00005F5805874B36588033504EB8504444597
:108AC00005D3C3F800C0E5E7A845FAD92C462568C8
:108AD0000135F6D06588033504EB8505A845F0D34C
:108AE000B4F80490B945EFD0B4F80090B9F1000F94
:108AF000EAD01C60A5888542D9D125888D42D6D17F
:108B0000A168116019680A4B51601B89138100200C
:108B1000BDE8F08305F10804D1E70220BDE8F08349
:108B20000520BDE8F08300BFE0640020046500205C
:108B3000E86400202D4B1B78002B52D0002952D026
:108B4000002A50D02DE9F0419688012E13D8284DE7
:108B500006EB860305EB83054FF6FF774FF0000C1D
:108B60002B7853B1731C9BB2022B938005F1140533
:108B70004FF00106F4D10A202EE013686C6804F56A
:108B8000805E5BB35C88033403EB8403734505D3D9
:108B9000C2F800C0E6E7A645FAD923461C680134AE
:108BA000F6D05C88033403EB8404A645F0D3B3F815
:108BB0000480B845EFD0B3F80080B8F1000FEAD0D8
:108BC00013601C888442D9D19B680B601268094BE2
:108BD0004A601B890B810020BDE8F08104F1080385
:108BE000D4E7022070470520704700BFE0640020F2
:108BF00004650020E86400202D4B1B78002B52D028
:108C0000002952D0002A50D02DE9F0419688012E3B
:108C100013D8284D06EB860305EB83054FF6FF7747
:108C20004FF0000C2B7853B1731C9BB2022B938036
:108C300005F114054FF00106F4D10A202EE0136867
:108C40006C6804F5805E5BB35C88033403EB8403DB
:108C5000734505D3C2F800C0E6E7A645FAD9234616
:108C60001C680134F6D05C88033403EB8404A64509
:108C7000F0D3B3F80480B845EFD0B3F80080B8F172
:108C8000000FEAD013609C888442D9D19B680B60A6
:108C90001268094B4A601B890B810020BDE8F081F6
:108CA00004F10803D4E7022070470520704700BF95
:108CB000E064002004650020E864002020B119B1C0
:108CC00003680B6000207047052070471EF0040FFA
:108CD0001CBFEFF309800AE0EFF308800849094A56
:108CE000884201D8904202D88D464FF000006B4672
:108CF000854608B5044B9847BDE808409D46704737
:108D00000000042000F80320318D0200BFF34F8FD4
:108D10000549064BCA6802F4E0621343CB60BFF317
:108D20004F8F00BFFDE700BF00ED00E00400FA0533
:108D30002DE9F04782B08046FEF76CFBFDF7D8FBCB
:108D40000028FBD1DFF80491374CB9F80000D8F8BF
:108D500018203649A56A000440F00100FDF7BCFD6B
:108D6000D8E90232B9F80000019200930004D8E972
:108D700000232F4940F00100FEF73CF8B9F800004D
:108D8000D8F81C3000930004D8E9042340F0010017
:108D90002849FDF751FFE36A980725D4DFF8B0A012
:108DA000254F0024012606FA04F32B420AD05AF874
:108DB0002420394632B1B9F80000000440F0010027
:108DC000FDF78AFD01341A2CEDD1290620D42A049E
:108DD00013D41A4B1B68DB0700D500BE4046FFF7D3
:108DE00095FF02B0BDE8F087B9F80000144900040F
:108DF00040F00100FDF7A6FCD0E7B9F800000A4BEF
:108E000010499A6B000440F00100FDF765FDE0E7B2
:108E1000B9F80000044B0C495A6B000440F0010003
:108E2000FDF75AFDD3E700BF00ED00E04C3304002E
:108E3000643304009C33040008340400F0ED00E0C7
:108E4000C43304003434040014340400DC5E002015
:108E50003039040030B482B050E8013F9DB2C4897B
:108E600025448489A54228BF2D1B0489A54202BF41
:108E7000BFF32F8F002207E0C5EA030540E8015445
:108E8000002CE9D14FF001028DF803200193019BE2
:108E90009DF803200B602AB10B880068184402B0CB
:108EA00030BC704702F0FF03184602B030BC704778
:108EB0000A884B889A4201D00020704750E8012F61
:108EC000C2EA024240E80123002BF7D1012070479B
:108ED00030B482B050E8023F1FFAA3F5C488A5421F
:108EE00002BFBFF32F8F00220DE0C489254484897F
:108EF000A54228BF2D1BC3EA054540E80254002CBB
:108F0000E8D14FF001028DF803200193019B9DF8F9
:108F100003200B602AB14B880068184402B030BCB3
:108F2000704702F0FF03184602B030BC704700BF24
:108F30000A884B889A4201D00020704750E8022FDF
:108F4000C2EA224240E80223002BF7D101207047F9
:108F50004A09012301F01F0100EB820003FA01F12D
:108F600000F022B801F01F0201234909934000EBF1
:108F70008100D94300F026B84B0901F01F0150F8D9
:108F80002300C84000F00100704700BF10B4034642
:108F900053E8000F0A4643E8002494F0000FF7D18D
:108FA0005DF8044B704700BF10B4034653E8002F30
:108FB00042EA010043E8000494F0000FF6D15DF8A6
:108FC000044B704710B4034653E8002F02EA010037
:108FD00043E8000494F0000FF6D15DF8044B7047AD
:108FE00010B4034653E8000F00EB010243E80024ED
:108FF00094F0000FF6D15DF8044B704710B40346AF
:1090000053E8002F02EB010043E8000494F0000F46
:10901000F6D15DF8044B704710B4034653E8002FB7
:10902000A2EB010043E8000494F0000FF6D15DF8D4
:10903000044B704710B40346012253E8001F41EA75
:10904000020043E8000494F0000FF6D15DF8044BF1
:10905000704700BF10B40346002253E8000F00EA37
:10906000020143E8001494F0000FF6D15DF8044BC0
:10907000704700BF0000000000285ED0F0B4D0E9C7
:1090800001428369121B5B03D2B243D5C168868B50
:1090900006FB0216B1423DD2CC433444172C4FEAB2
:1090A0009405C1F3800319D98C4613B1264C4CF8B2
:1090B000044BC3F101072F4421A5D5E9004501EB7D
:1090C0008303790803EBC101E3E802459942FBD130
:1090D00027F001039F420CEB83011AD00C461A4B78
:1090E00044F8043BA64214D901F10804A6424B609F
:1090F0000FD901F10C04A6428B600AD901F11004CA
:10910000A642CB6005D901F11404A6420B6188BFC9
:109110004B6144680168531E0C60DBB242B10168C8
:109120000A685C1E551C0D601370E3B2FF2BF6D16C
:10913000036800201871F0BC70470E20704700BF14
:10914000ADBAADBAADBAADBAADBAADBA00000000B5
:109150002DE9F04F85B0064600240DF10F008DF883
:109160000F40FEF72BFCD6E900311A688A4207D877
:109170009DF80F00FEF748FC204605B0BDE8F08FD3
:10918000511E19603168B3680C6812F8010CB6F80A
:109190001C800A79F7681B1BDBB208FB00F89A42B7
:1091A00007EB080538BF0B719DF80F00FEF72CFC8C
:1091B000002D00F0AA80B369B68BDCB2A200C3F325
:1091C000072A5B032E44019205EB840412D5B542B5
:1091D00010D2DFF858B1A946514A59F8043B9342DE
:1091E0004FF098015A464FF0000001D0FEF788FA80
:1091F0004E45F1D8A5423CD2019B013B172B4FEACB
:109200009301C5F3800219D91AB1464B47F80830CB
:109210000435891A08EB820801313DA3D3E9002304
:109220004744480807EBC000E7E802238742FBD128
:1092300021F00103994205EB83051AD02A46394BE8
:1092400042F8043B944214D905F1080294426B6041
:109250000FD905F10C029442AB600AD905F1100256
:109260009442EB6005D905F1140294422B6188BF4A
:109270006B61A6EB8A0296427FF67EAF711E891A59
:1092800017294FEA9105C2F380031AD913B1264971
:1092900042F8041BED1AA3EB0A0A01351EA1D1E91D
:1092A000000106EB8A0A6B080AEBC303EAE8020135
:1092B0005345FBD125F001039D4202EB83023FF4AD
:1092C0005BAF1146184B41F8043B8E427FF654AF1A
:1092D00002F108018E4253607FF64EAF02F10C019D
:1092E0008E4293607FF648AF02F110018E42D36048
:1092F0007FF642AF02F114018E4213617FF63CAF5C
:109300002046536105B0BDE8F08F2C4634E700BF1E
:109310000DF0ADBA0DF0ADBAFECAADBAFECAADBA27
:10932000ADBAADBA0DF0ADBAFECAADBA9839040007
:109330002DE9F04F8369828B0F46D9B287B0A7EB36
:109340008104C3F30723A7420546029203910193C8
:1093500002EB040918D907F1FF38A8EB040828F03C
:109360000308DFF8CCA1DFF8C4B1A044261F56F8EB
:10937000043F53455A464FF0C3014FF0000001D05F
:10938000FEF7BEF94645F2D1019BA9EB8306B14534
:1093900010D9DFF8A081DFF894A156F8043B4345CB
:1093A00052464FF0CE014FF0000001D0FEF7A8F971
:1093B000B145F2D8AB695E0343D54C4541D2029B1F
:1093C00003F1FF3BBBF1170F4FEA9B06C4F380018B
:1093D00040F2A180204611B1534A40F8042B039B70
:1093E000761A0136C91A4EA3D3E9002307EB810789
:1093F000710807EBC101E7E802238F42FBD126F099
:109400000102B24200EB82031AD01946464A41F8E3
:10941000042B894514D903F1080189455A600FD9F5
:1094200003F10C0189459A600AD903F110018945BD
:10943000DA6005D903F1140189451A6188BF5A61C0
:10944000AB69D8031AD5EB68A34208D8D5E9010265
:10945000A98B121AD2B201FB0232944207D340F216
:109460005B11324A0020FEF74BF9EB68A98BE31A37
:10947000B3FBF1F201FB1233002B45D100260DF1B5
:1094800017008DF81760FEF799FAAB692A68D903BF
:109490002BD5A868116881421FD29B030ED56E6838
:1094A0008E420BD2AF8BE868DFF8808016F8013B64
:1094B00003FB07039C421AD0B142F7D84B1C136040
:1094C000EA68AB8BA41AB4FBF3F40C709DF8170098
:1094D000FEF79AFA07B0BDE8F08F144A30464FF411
:1094E000BB71FEF70DF92A68AB691168D5E74246F2
:1094F00040F283110020FEF703F92A681168B14297
:10950000DCD9AF8BE868D1E7084A40F2631100204C
:10951000FEF7F6F8B2E7234677E700BFAFF3008027
:10952000ADBAADBAADBAADBAADBAADBA98390400FC
:109530000DF0ADBAFECAADBA2DE9F04182B00028F7
:1095400054D0002A62D0D0F800E0BEF1000F62D003
:109550001D4663B34768D7F80480B3FBF8F708FBF0
:109560001737002F33D18F0736D112F0030F38D1C0
:10957000C768B9420FD22F4A2F4B10882F4A304963
:109580001024000440F001000094FDF755FB204634
:1095900002B0BDE8F08104694E1E3544A542EAD808
:1095A000DEF80C40A44602B0BDE8F0416047214A15
:1095B000214B1088234A22490924000440F001006D
:1095C0000094FDF739FB204602B0BDE8F081194A4E
:1095D000194B10881C4AEEE7164A174B10881B4A95
:1095E000CDE7144A144B1088194AC8E7114A124BA8
:1095F0001088184A12490E24000440F0010000941B
:10960000FDF71AFB204602B0BDE8F081094A0A4B7B
:109610001088114AEEE7074A074B108808490F4A9D
:109620000824000440F001000094FDF705FB2046EB
:10963000AEE700BFE45E00207C3B0400CC3A0400AF
:10964000D0390400183A0400643A0400903A040047
:10965000A83A0400C83904005C3A0400043A040043
:10966000F0B583B000283FD0D0F800C0BCF1000FA7
:1096700048D02AB34768D7F800E00EF1FF370F4211
:109680002DD1C768B9420ED2254A264B1088264AEA
:1096900026491024000440F001000094FDF7CCFAA4
:1096A000204603B0F0BD04694D1E0EFB0255A542D5
:1096B000EAD8DCF81040A44603B0BDE8F0406047AB
:1096C000174A184B10881949194A0924000440F018
:1096D00001000094FDF7B0FA204603B0F0BD104A37
:1096E000104B1088134AD3E70D4A0E4B10880F49D0
:1096F000114A0E24000440F001000094FDF79CFA8A
:109700002046CEE7064A074B108808490B4A082432
:10971000000440F001000094FDF78EFA2046C0E7F7
:10972000E45E0020903B04001C3B0400D0390400A0
:10973000183A0400F43A0400C8390400043A04005A
:1097400018B103680BB1DB69184770B50B4B0C4CB3
:109750000C4E1B1BA6FB0326132B4FEA161688BFC5
:10976000002509D9236820460135143413B1DB697B
:10977000984710B9B542F5D3002070BD105F0020A6
:10978000FC5E0020CDCCCCCC29DF704728DF7047B1
:10979000034B187A0122B0FA80F05A7440097047DE
:1097A0004465002030B5394D2B7A87B0002B39D075
:1097B000374B1C6802232B722379002B3DD0012BE1
:1097C00024D022689368C3B10023CDE90333029308
:1097D0000093A3680593032301932379002B48D0BA
:1097E000012B07D1E368616904911B0302210293F5
:1097F0008DF800109368684698470023254926484D
:109800002B726B60FFF794FB07B030BDD4E9030304
:109810001844FFF7BBFF20B31128D2D101232B72CC
:1098200007B030BD1B491C48FFF752FB184B0446DC
:1098300018600028BED16860E6E7D4E90520121A56
:10984000B2F5805F28BF4FF48052D4E90313920829
:10985000012A38BF012201441844FFF795FF002870
:10986000DAD12B7C002BCFD10146022000F016F874
:10987000CAE72069E1680123CDE902018DF80030D3
:1098800063690493936868469847B6E74465002087
:109890005C65002058650020D8570020831E012BEE
:1098A0003FD810B5334C237A86B0002B37D0022B2B
:1098B00031D103283AD0304B00221B68E2601A797C
:1098C000002A40D0012A26D1D3E9042101328A425C
:1098D0001A6120D10020207219688A68BAB100226A
:1098E000CDE90322029200929A68019005921A79BA
:1098F000002A35D0012A07D1DA685B690493130383
:10990000022202938DF800208B68684698471B4915
:109910001B48FFF70DFB637C23B9FFF743FF06B03D
:1099200010BD704704F026FE06B010BDE368013399
:10993000082B01D8E360EEE70F4B00221B68E260C2
:1099400022720D20C8E7D3E90512881AB0F5805FAE
:1099500094BF121802F5805291429A61DBD1B9E7A7
:10996000012218698DF80020DA685B690493CDE95B
:109970000202C9E7446500205C65002058650020AC
:10998000D857002000F0FD03012B00D0704730B500
:109990003B4DA0F10100B0FA80F02B7A4009002283
:1099A00087B028746A74002B4AD0364B1C68022397
:1099B0002B722379002B4ED0012B07D1D4E903035E
:1099C0001844FFF7E3FE48B311281BD022689368C0
:1099D0007BB10023CDE9033302930093A368059381
:1099E0000323019323790BB3012B0ED093686846B0
:1099F00098470023244925482B726B60FFF798FA9B
:109A000007B030BD01232B72FAE7E3686169049166
:109A10001B03022102938DF80010E7E72B7C002B3B
:109A2000EED101460220FFF739FFE9E72069E1683E
:109A300001238DF8003063690493CDE90201D5E775
:109A400011491248FFF744FA0E4B044618600028EB
:109A5000ADD16860D4E7D4E90520121AB2F5805F71
:109A600028BF4FF48052D4E903139208012A38BF6B
:109A7000012201441844FFF787FE0028A4D1CDE756
:109A8000446500205C65002058650020D857002000
:109A9000FFF7F2BA2DE9F0418369858BC3F3072202
:109AA000013D25F0030552FA83F3A5EB830503314D
:109AB0004E198046B6FBF5F6FFF74AFBA0B3F6B2A7
:109AC0004FF48073013E0446C580C0F80080838057
:109AD0002BD00346002508E06279AE4202F1010274
:109AE00062713860C0F800801FD040461F46FFF703
:109AF0002FFB013503460028EED16779791E17D078
:109B00002246013399421268FBD1D2F800805FB13E
:109B10002668002501E03446366821460135404676
:109B2000FFF706FCAF42F6D800242046BDE8F081DE
:109B300020682146FFF7FCFBF6E700BF0430012157
:109B4000FFF75CBA2DE9F041012104460430FFF72C
:109B500063FA10F0FF0301D0BDE8F0816779791E48
:109B600016D02246013399421268FBD1D2F8008008
:109B7000002FF1D02668002501E0344636682146E2
:109B800001354046FFF7D4FBAF42F6D8BDE8F0817F
:109B900020682146BDE8F041FFF7CABB2DE9F84334
:109BA000C78804339F42044615468846B3FBF7F244
:109BB00007FB123002D8013A2468FCD13E1AAE42AB
:109BC00028BF2E469DB14FF000090430AD1B204444
:109BD000324608EB090113F073FAAF42B14424682E
:109BE0003E464FF0000028BF2E46002DEDD1BDE8C7
:109BF000F88300BF2DE9F843C78804339F428846A5
:109C00001546B3FBF7F1044607FB113202D80139C0
:109C10002468FCD1BE1AAE4228BF2E469DB14FF03B
:109C200000090432A118AD1B324608EB090013F0FD
:109C300047FAAF42B14424683E464FF0000228BFC5
:109C40002E46002DEDD1BDE8F88300BF01600B6802
:109C500043604A68934204BF00234360704700BFDB
:109C6000436843B1026891680B4443605268934271
:109C700004BF002343607047114910B4A1F59472EA
:109C800005E052F83330984238BF21460CD28C1A86
:109C9000E30F03EBE4035B10914202EBC304F0D843
:109CA00008485DF8044B704702D904F10802EEE75A
:109CB0006068044B5DF8044B002808BF18467047E5
:109CC000DC400400A03F04000A4B185C1F288ABF38
:109CD00009494FF0A04100F01F00D1F804350122DE
:109CE000824022EA03001340C1F80805C1F80C3590
:109CF000704700BFDC40040000030050C20730B4CE
:109D00000ED483070AD54FF0A0430C22C3F82C27AA
:109D1000C3F83027C3F86027C3F8642730BC704706
:109D20004FF0A0430322C3F834274FF40055C3F883
:109D300038274FF48044C3F83C274FF40041C3F860
:109D400040274FF48032C3F80855C3F80845C3F8DC
:109D50000815C3F80825D4E7032806D8012A06D039
:109D600001291BD0022908D071B1072070470129B1
:109D700011D002294FF00002F6D10B4B00EB40004E
:109D8000034400205A707047074B00EB4000034427
:109D900008469A70704700F10E02D2B200EB400301
:109DA00001490020CA5470476065002010B503883F
:109DB000102B07D0112B04D1254B186801381860DF
:109DC00030B110BD224C216811B30131216010BDAA
:109DD00001220221FFF7C0FF40B1072806D01D4B2A
:109DE0001B68002BEDD0BDE8104018470722022168
:109DF0000120FFF7B1FF08B10728F0D10021084684
:109E00000A22FFF7A9FF0028DBD00728E7D1D8E70F
:109E100001220846FFF7A0FF38B1072805D00D4BF7
:109E20001B6803B198472168CFE707220221012070
:109E3000FFF792FF08B10728F1D104220221002088
:109E4000FFF78AFF0028EED00728E8D1EBE700BF34
:109E5000706500206C650020C0B2002348700B7054
:109E6000704700BF2DE9F041D0F800C09CF81820E1
:109E7000DCF800309D6805EBC20113465FFA82FEF4
:109E80008A794C790E7955F83350D10786B04FEA6C
:109E9000540716D514F0010416D05201002302F025
:109EA00020029E4601A90C30CDE90263CDE9045E93
:109EB0008DF804408DF8057009F0D0F906B0BDE8C2
:109EC000F08104F00104E8E7DCF80010097B0EF1F2
:109ED000010E8E45E1DADCF80010DB00896803F141
:109EE000080E71444B79B7EB530FD6D1DCF8003034
:109EF0009CF81810D3F8088008EB0E0301315C7948
:109F00009A7958F80EE01B7904F00104C4F10304B7
:109F10005201C9B2E4B202F020028CF81810C1E775
:109F20002DE9F04F054683B00E4600230DF10700E2
:109F30002C688DF80730FDF741FD4EB92B681B6882
:109F400033B19DF80700FDF75FFD03B0BDE8F08F6A
:109F5000DFF8A480002704F1040968680022214684
:109F600004F0E0FC40B1002323609DF80700FDF7FA
:109F70004BFD03B0BDE8F08F9DF80700FDF744FDF1
:109F800023681B697BB323681E6960691022314610
:109F900013F088F8A8B927762846FFF763FF002852
:109FA000D3D02B681A681268FAB11A681B68516816
:109FB0001B6898470DF107008DF80770FDF7FEFC50
:109FC000CBE705F10C0B584605F1080A09F0D0F86B
:109FD0002B464246314650460FF07CFA584609F06F
:109FE0002DF96661D7E74E46CFE70DF107008DF8F2
:109FF0000720FDF7E3FCB0E7FD9F020010B50078F5
:10A000000B680C4670B103201A68126822B11A68F6
:10A010001B6851681B68984720460121BDE8104025
:10A02000FFF77EBF1A7E19680132097BD2B29142D6
:10A03000EAD91A762046FFF715FF08B12368E3E74F
:10A0400010BD00BF70B503460C4A044608300E46EA
:10A050000FF040FA054670B904F10C0009F0EEF873
:10A0600023681D6096E80F002668043686E80F0016
:10A0700023681A1D5A61284670BD00BFFD9F02006B
:10A0800070B588B0164D079100260121044605924F
:10A090008DF8183001AAADF8046003AB8DF80410F8
:10A0A0004068029302A9CDE903520C9D04F0C6FB5F
:10A0B00008B108B070BD01462046FFF731FF45B931
:10A0C0009DF80430002BFBD19DF80500C0B208B00C
:10A0D00070BD9DF80430002BF6D0A847EFE700BF15
:10A0E000599E02006DDF704779DF70477DDF704752
:10A0F00064DF70472DE9F04F87B00746119D008857
:10A100002C880394BDF84840DDF840A0CDE9014219
:10A11000002858D04FF0000988461E46CB4604E080
:10A120003A880BF1010B93452CDAD8F8002052F84D
:10A130002B00059000220DF1130105A8FFF7D8FFB1
:10A14000044658BB9DF81320B242E9D1B9F1000F83
:10A1500028D02A88019B9119994239DC52440DF18B
:10A16000130105A84FF00109FFF7C2FF002834D101
:10A1700029889DF813200A442A803A880BF1010BA4
:10A180009345D2DBB9F1000F1DD02B88039A013B18
:10A190009B1A9BB2FF2B1BD80AF80230204607B04F
:10A1A000BDE8F08F2A88019B511C324402329A424A
:10A1B00089B20DDC029B29800AF801302A8801321D
:10A1C00092B22A80CAE70024204607B0BDE8F08F8B
:10A1D0000C24204607B0BDE8F08F0446204607B0A7
:10A1E000BDE8F08F2DE9F04700231788138090F821
:10A1F0002D3088B0144605460E46002B40F0FB80FB
:10A20000AA78002A40F0F080E978A1B1DA1CBA42BD
:10A2100000F2ED800222F254238801339BB2012226
:10A220002380F254238813449BB22380F154238863
:10A2300013449BB223806A68AAB1D91CB94200F2C8
:10A24000D680022192F90020F154238801339BB279
:10A250000A212380F154238801339BB22380F254D6
:10A260002388013323802B89002B40F0EE802B8A3A
:10A27000002B40F026812B8B002B40F041812B6A74
:10A28000002B47D0B4F800E00EF10602BA4200F20B
:10A29000AE801A88052A40F292816FF4486802EB7A
:10A2A000080189B24FF27D30814240F2888159889D
:10A2B000052940F284816FF4486C8C441FFA8CFCB1
:10A2C000844540F27C814FF6FF70824204D0814287
:10A2D00002D08A4200F27381052206F80E202288FD
:10A2E000013292B212212280B1542288013292B2FC
:10A2F00022801988B1543244090A517022880232EE
:10A3000092B222805B88B35432441B0A5370238874
:10A31000023323806B6A002B2FD09988B4F800C0D9
:10A32000881C0CF102020244BA4260D8FE285ED8B2
:10A33000033106F80C102288013292B2FF212280EC
:10A34000B1542288013292B222801988B154324429
:10A35000090A51702088023080B220809A8862B148
:10A3600099680593002900F02A81304412F0A8FE74
:10A37000059B9A8823881344238095F82C30002B62
:10A3800040F0DB80287898B32B88012B00F01781F0
:10A3900023889A1CBA422AD8012804D1697802314C
:10A3A00019448F4223D3023FFF1ABFB2B01806A947
:10A3B000ADF81870FFF79AFED0B92B78022B00F099
:10A3C0000281012B00F007810822FE2F0FD823887D
:10A3D000791CF154238801339BB22380F2542388E3
:10A3E00001331F44278003E00433BB424CD90C20C7
:10A3F00008B0BDE8F087082FF9D906A8FFF772FE6C
:10A400000028F5D123880822F254238801339BB217
:10A410001B222380F2542088013080B22080062243
:10A4200030440DF1190112F04BFE23889DF81820DD
:10A4300006339BB212F0FE0218BF01222380F254B1
:10A44000238801339BB22380DAE605F10808022352
:10A4500005F10C01CDE90147009640461A460591E9
:10A46000FFF748FE0028C3D1CDE9014705990096C2
:10A47000404610230622FFF73DFE0028B8D12B8A64
:10A48000002B3FF4F8AE1CE006A8FFF72DFE0028D5
:10A49000AED12388BDF818200321F154238801335D
:10A4A0009BB219212380F154238801339BB2F11808
:10A4B0002380F254130A4B70238802339BB223800B
:10A4C000A2E605F1100805F11401CDE90147009657
:10A4D0004046022303220591FFF70CFE002887D196
:10A4E000CDE9014705990096404610230722FFF762
:10A4F00001FE00287FF47CAF2B8B002B3FF4BFAE16
:10A5000005F1180805F11C01CDE901470096404608
:10A51000022314220591FFF7EDFD00287FF468AFB8
:10A52000CDE9014705990096404610231522FFF713
:10A53000E1FD00283FF4A3AE5AE7A96A00293ED006
:10A540004FF000094B464FF0160A2BE02388F054D9
:10A55000238801339BB2238006F803A023880133AC
:10A560009BB2238031F82220F2543344120A5A70ED
:10A570002088023080B22080B8F8042030444AB1EC
:10A58000D8F80810D9B112F09BFDB8F80420238840
:10A590001344238095F82C205FFA89F39A427FF6C2
:10A5A000F1AEA96A03EB430201EB820809F101094C
:10A5B000B8F80430D81C0233FE2BC7D917E70720A0
:10A5C00008B0BDE8F087BDF818309F42FFF4FCAE3C
:10A5D0001F460922F9E66B789F42FFF4F5AE1F464D
:10A5E0000822F2E6F8B130B4437893421CD0B9B1F6
:10A5F0000024234601E0994212D9045D013423442A
:10A600009BB2C5181C466D789542F4D1994207D982
:10A61000015D9A1C012993B202D0184430BC7047E6
:10A62000002030BC7047704700242346EEE700BF8F
:10A630001AB3002370B5044615461360B8B1036819
:10A64000ABB1C38813F003060FD1084600F0C2FC7B
:10A65000C0B214280FD0237983420AD9E388226834
:10A6600000FB03232B60304670BD072070BD0E2019
:10A6700070BD042070BD052070BD0E20704700BF66
:10A6800072DF704773DF704770B5044600F1AA06A9
:10A690000D4630460722002112F020FDE38813B159
:10A6A000A378012B75D0E379002B6FD194F8AB30F0
:10A6B000002B78D194F8AC30002B74D194F8AD30E5
:10A6C000002B70D194F8AE30002B6CD194F8AF30E1
:10A6D000002B68D194F8B0301A1E18BF01226B1EEF
:10A6E000032B00F24981DFE803F002060B0EA37989
:10A6F000002B40F0F780E37913B1002A40F0358158
:10A70000237A002B65D1657A002D4ED1A5700023E8
:10A7100084F8B33004F13C0518220021284612F0D9
:10A72000DDFCE36A0122591E914284F83C2016D9CF
:10A73000042B14D094F8243084F85120C3B184F849
:10A740005220A378002284F85020042B00F20181CB
:10A75000DFE813F041004B00E1009900E60094F8B7
:10A76000242084F851301AB1A36A84F85230E8E703
:10A77000A378002284F85020042B00F2EA80DFE85E
:10A7800013F02A003400BA00D8005300A378022B3B
:10A790008CD1636B002B00F0E580012284F8B1209E
:10A7A0000820984782E7012299E70422636BA27090
:10A7B000002BACD06279002AA9D094F8B220002AEC
:10A7C000A5D1012184F8B42084F8B310072098475C
:10A7D000A0E70322EAE7002384F83130636B13B16A
:10A7E00094F831009847002070BD00230120022119
:10A7F0008022266484F83100C4F8A430636484F8AD
:10A800003C10A4F8482000212A4604F15400FFF728
:10A8100037FF0028E8D194F8301094F85400FFF77F
:10A8200031FF0028DAD070BDD4E907126164A4F8C2
:10A8300048206279002A00F08F8094F8B220002A24
:10A8400040F08A8094F8B420002A00F0858002232A
:10A85000B4F89810D4F8940084F850300122FFF72F
:10A86000C1FE08B10423037004F1940631462A4660
:10A8700004F15400FFF704FF002878D10622A378E2
:10A8800084F8312060E0D4E9052162640622A4F84E
:10A89000481084F83C206279002A50D094F8B22005
:10A8A000002A4CD194F8B420002A48D00223B4F8EE
:10A8B0009810D4F8940084F850300122FFF792FEEB
:10A8C00008B10423037004F1940631462A4604F1CA
:10A8D0005400FFF7D5FE002849D10522A37884F85B
:10A8E000312031E094F82430002B7FF404AF002AAB
:10A8F0003FF406AF0AE7022384F831300323D4E99A
:10A90000032184F83C3000232664A4F84810C4F8DE
:10A91000A430626477E7022384F831300723EEE73E
:10A92000D4E9072162640622A4F8481084F83C2088
:10A930007FE7D4E905126164A4F84820ABE703225D
:10A9400084F8312004F19406C4F8A460002B3FF48D
:10A9500045AFD4F8A41057E7042284F8312004F15D
:10A960009406F1E784F8B130A0E60225CEE6A3789C
:10A97000002B3FF433AFECE70023A370C7E600BF22
:10A9800080F83010704700BF002967D0F8B5044642
:10A99000002865D091F87A300F4623B191F89830AD
:10A9A0000BB10720F8BD4FF0000C84F802C007F18E
:10A9B00078060FCE251D0FC50FCE0FC596E80700F0
:10A9C00085E8070084F830C0D7F8A4306363D7F86F
:10A9D000A830A3634FF6FF7504F19403C4F8A430C4
:10A9E0006146A4F8A850072204F1AA0012F076FBF1
:10A9F00023780BB984F85450224604F155011F25E1
:10AA0000C4F89410384622F8985FFFF7EBFB002853
:10AA1000C8D1224604F17401C4F89C1007F13C002F
:10AA200022F8A05FFFF7DEFB0028BBD1D4E9053692
:10AA30004FF48072012520640146A4F85020A4F848
:10AA4000486084F83C50636404F13C0204F1540013
:10AA5000FFF716FE0028A5D12570F8BD0E2070471F
:10AA60000E20F8BD38B5037883B10446817000200C
:10AA70000D46FEF765FE18B101236370002038BD56
:10AA800029462046BDE83840FFF7FEBD082038BD06
:10AA900070B50388112B0C460BD0262B1ED0102B23
:10AAA00000D070BDC37B012BFBD18388A1F8A830F7
:10AAB00070BD002381F8B2308288B1F8A8309A4284
:10AAC000EFD108790028ECD10B7853B301258D70B4
:10AAD000FEF736FEC8B10123637070BD037A013BF7
:10AAE000012BDED80B78E3B18B780F4A0133A2FB40
:10AAF000031202F4FE7505EB92055B1BDDB2A57037
:10AB00000020FEF71DFE0028E5D129462046FFF76C
:10AB1000BBFD0028C5D0A36B002BC2D0BDE87040A0
:10AB200018470820F7E700BFCDCCCCCC023801286D
:10AB300000D9704770B54B780C4603B970BD0B78DF
:10AB40000020487093B18D78FEF7FAFD10B1012313
:10AB5000637070BD29462046FFF796FD0028EDD0B2
:10AB6000A36B002BEAD0BDE8704018470820F7E738
:10AB700075DF704776DF70477ADF70477BDF70479D
:10AB800070B51B4D2B8884B2A34282B011D1194EEF
:10AB9000297A327B91420ED3337C00222A72DBB9B0
:10ABA000736933B10022ADF806408DF8042001A886
:10ABB000984702B070BD184605F10A01FFF7D8FFAB
:10ABC00028B11128F5D0B369002BF1D1F1E72B7A28
:10ABD00001332B7202B070BD3B212046FFF7CAFF44
:10ABE00030F00803DCD0B369002BD9D09847D7E701
:10ABF0009065002074650020F0B50288122A83B0A9
:10AC000003463ED015D8102A73D0112A0FD16C4CB0
:10AC1000828823889A420AD16068FCF79DFE18B1A9
:10AC2000684B9B6903B198474FF6FF73238003B0CD
:10AC3000F0BD502AFBD1634DC188EA899142F6D11B
:10AC4000028A022AF3D15E4C828826889642EED18F
:10AC5000123000F03DFA002800F09C80637A002B4F
:10AC600040F09F80D5E90113277A60683246002FB3
:10AC700018BF1946FCF70CFE0028D8D0AB693BBBC7
:10AC8000D5E74F4C828821889142D0D1408965898F
:10AC900085421FD8A58985421CD3E0899D8940F251
:10ACA000F313984294BF031AC31AAB4212D800F2AE
:10ACB000F310A8420ED3434B5B694FF4807222819C
:10ACC000002BB4D00122ADF806108DF8042001A8A5
:10ACD0009847ACE73B4D267A6068D5E90113002E12
:10ACE00018BF194600236372FCF7D2FD0028C5D1B6
:10ACF0009DE7C67B012E9AD1314C21884FF6FF7219
:10AD000091423FD1304D8288228003CDC4F80A00A1
:10AD1000C4F80E10598A608900258842257222D80D
:10AD2000A08988421FD3E189988A40F2F31399429F
:10AD300094BF4B1ACB1A834215D801F2F31181420A
:10AD400011D3204D6672EB89002B7FF470AF6B69D5
:10AD5000002B3FF46CAF0121ADF806208DF80410F4
:10AD600001A8984763E7174DEB8900216172002B1A
:10AD70007FF45DAF60686968FCF78AFD00283FF4E6
:10AD800056AF7BE70F4B9B69002B3FF450AF04207D
:10AD900098474CE76068FCF7DFFD00283FF447AFB9
:10ADA0006CE76B6900222272002B3FF440AF012256
:10ADB000ADF806608DF8042001A8984737E700BF7A
:10ADC0009065002074650020A465002070B3F8B57C
:10ADD000054606460FCD164F3C460FC4844695E8FF
:10ADE0000700144D3D6084E80700BCF1000F17D048
:10ADF0006046FFF7C1FE90B933681868596803C50B
:10AE00000D4B0E490E4A18464FF6FF7440F8041FCA
:10AE10001C800021FCF710FD002818BF0320F8BD9E
:10AE20002846FFF7ABFE0028EAD0F8BD0E20704799
:10AE300074650020A465002090650020AC650020AA
:10AE400081AB02002DE9F04703888788112B98B069
:10AE500007D01A2B044652D0102B09D018B0BDE8E9
:10AE6000F0873B483946FEF77DF818B0BDE8F0871B
:10AE7000384A9368DB43009351686846FEF7A2F8AE
:10AE8000009B0193019B83B300252E46314601A808
:10AE9000FEF772F828B118AB03EB4503013523F830
:10AEA000286C0136142EF1D10D950DF1340CBCE84F
:10AEB0000F0002AE0FC6BCE80F000FC69CE80700EB
:10AEC00086E807008DB10DF10A08DFF8A0A008EBB5
:10AED000450538F8029F204E304649460436FEF7B5
:10AEE00041F8B245F8D1A845F3D1132F17D91B4A21
:10AEF000E3210420FCF704FC18B0BDE8F087037AD6
:10AF000017481F2B4FEA1314394618D9FEF720F8BB
:10AF1000022C1448394616D0FEF71AF89EE70C4862
:10AF20003946FEF715F80C483946FEF711F8E37B71
:10AF3000012B93D00C483946FEF70AF88EE7FEF74E
:10AF400011F808483946FEF70DF818B0BDE8F0874B
:10AF5000D4650020CC650020D0650020E0400400CE
:10AF6000DC650020E0650020D865002044660020F4
:10AF7000132801D90020704710B501460446074840
:10AF8000FDF7FAFF08B9002010BD21460448FDF77F
:10AF9000F3FF002814BF0220012010BDD06500205F
:10AFA000D8650020132801D90020704710B501464C
:10AFB00004460648FDF7E0FF08B9002010BD214611
:10AFC0000348BDE81040FDF7D7BF00BFD0650020A3
:10AFD000DC650020132801D91420704710B5014604
:10AFE00004460448FDF7C8FF08B1204610BD1420F0
:10AFF00010BD00BFD065002070B50C4E0446304631
:10B000000D46FDF7B9FF08B1132C01D9002070BD22
:10B010002146301DFDF7B0FF0028F7D0A81D06EB34
:10B0200080002146BDE87040FDF7A6BFCC6500203A
:10B03000F8B50F4F0446384616460D46FDF79CFFFF
:10B0400008B1132C00D9F8BD2146381DFDF794FF37
:10B050000028F8D0A81D07EB800021461EB1BDE8EE
:10B06000F840FDF775BFBDE8F840FDF77BBF00BFB6
:10B07000CC650020F0B5154E83B004460D46014660
:10B0800030461746FDF778FF18B90026304603B062
:10B09000F0BD043406EB8404A3680193002DF4D0C2
:10B0A000019B002BF1D000263446214601A8FDF774
:10B0B00063FF03463946A0B201340BB1A8470136FD
:10B0C000142CF2D1304603B0F0BD00BFCC65002097
:10B0D000007800F00100704730B5002187B00446C9
:10B0E000284802F0C3F808B907B030BD204600F088
:10B0F00081FA8628024620D00ED8C0B1112837D157
:10B10000214B204619780122FFF792FF1D480021AC
:10B1100002F0DAF807B030BD43F20203984227D1BB
:10B12000194B204619780022FFF782FFEEE7164BF5
:10B1300020461978FFF77CFFD6E70025CDE90155B9
:10B1400006232046ADF8064003958DF80430CDE97E
:10B15000045500F003FD034601A8ADF8083001F0E6
:10B16000DFFF094B2A4619782046FFF761FFCDE73C
:10B170000025CDE90155072320460392ADF806408E
:10B18000E3E700BF446600204666002070B54FF636
:10B19000FF738AB000249842CDE90044CDE902440F
:10B1A000ADF8020004941CD0054600F06FFA112897
:10B1B000064643D017D8E0B10B2829D10F23BDF89C
:10B1C00002008DF8003000F0C9FC03466846ADF877
:10B1D000043001F0A5FF2246194B28461978FFF7E5
:10B1E00027FF0AB070BD43F20203984210D12246F5
:10B1F000F2E70E23BDF802008DF8003000F0AEFC3F
:10B2000003466846ADF8043001F08AFF3246E3E7B2
:10B21000002407232846CDE90544CDE908448DF8EC
:10B2200014300796ADF8165000F098FC034605A8B8
:10B23000ADF8183001F074FF2246CDE70122CBE7CC
:10B240004566002070B5354E86B031780546FFF76B
:10B25000D3FE08B106B070BD0446284600F06EFA71
:10B26000112819D8112842D8DFE800F02A414141BD
:10B270004141234123414141414141414109012291
:10B28000274B28461978FFF7D3FE31782246284607
:10B29000FFF7CEFE06B070BD43F202029042EED040
:10B2A00043F20142904222D12846FFF76FFF01226C
:10B2B000E6E7284600F052FC00F05CFA0022DFE7E7
:10B2C000002310222846CDE90133CDE903338DF860
:10B2D00004200593ADF8065000F040FC012403461D
:10B2E00001A8ADF8083001F01BFF2246C8E7002294
:10B2F000072303902846CDE90122CDE904228DF8E9
:10B300000430ADF8065000F029FC034601A8ADF862
:10B31000083001F005FF0122B2E700BF48660020B7
:10B320004766002070B54FF6FF738AB0002498423C
:10B33000CDE90044CDE90244ADF8020004941CD0EC
:10B34000054600F0A3F91128064643D017D8E0B10E
:10B350000B2829D10F23BDF802008DF8003000F032
:10B36000FDFB03466846ADF8043001F0D9FE2246E5
:10B37000194B28461978FFF75BFE0AB070BD43F2FF
:10B380000203984210D12246F2E70E23BDF80200D4
:10B390008DF8003000F0E2FB03466846ADF804305B
:10B3A00001F0BEFE3246E3E7002407232846CDE93C
:10B3B0000544CDE908448DF814300796ADF81650D1
:10B3C00000F0CCFB034605A8ADF8183001F0A8FE4C
:10B3D0002246CDE70122CBE745660020037803B182
:10B3E000704710B504464088FFF7D0FE608800F033
:10B3F0008FF900B910BD044B60881978BDE8104082
:10B400000122FFF715BE00BF47660020F0B50378A4
:10B41000082B83B007D0224C207822490022FFF766
:10B4200029FE03B0F0BD417A04460029F3D1057A24
:10B43000072D22D0082D2DD0012DECD180886A4611
:10B44000294601F089FA06460028E4D1019B1B78C1
:10B45000002BE0D0A08800F065FC4FF6FF73984207
:10B46000D9D0114F0E4C39782A46FFF7E1FD3878D4
:10B470000E493246FFF7FEFDCEE78088084C00F00B
:10B4800051FC4FF6FF739842C6D021780122FFF796
:10B49000CFFDC1E70648024C01F016FFBCE700BF34
:10B4A00046660020D9B002004766002045B202007F
:10B4B0004466002070B503888588522B86B011D071
:10B4C000542B2BD0502B12D0294C2A4B2A491878B8
:10B4D0000022FFF7CFFD207828490022FFF7CAFDA0
:10B4E00006B070BD2846FFF751FE214CEDE7037B07
:10B4F000012BE9D1827A012AE6D1018942F60213B1
:10B500009942E1D11E4E1A4C31782846FFF790FD42
:10B5100030781C490022FFF7ADFDD6E70026112345
:10B520002846CDE90166CDE903668DF80430ADF813
:10B530000650059600F012FBADF8080000F01AF96D
:10B54000114B0B4C197832462846FFF771FD2178D4
:10B5500032462846FFF76CFDBDF8060000F0FEFA03
:10B56000034601A8ADF8083001F0DAFDADE700BFF1
:10B57000476600204566002025B3020045B2020060
:10B5800046660020D9B0020048660020AFDF704751
:10B59000B1DF7047B2DF7047B3DF704770B5134C4F
:10B5A00023884FF6FF75AB4282B001D102B070BD67
:10B5B0000F4A92E803006E4686E803000022184610
:10B5C000314601F051FB2388AB420BD1EEE7184620
:10B5D00001F03CFB00223146208001F045FB23882E
:10B5E000AB42E3D01128F2D102B070BD4A66002010
:10B5F000104104002DE9F04182B0074600F0AEFA98
:10B600004FF6FF7398423AD0064601224FF00308E6
:10B610006B4608213046551C01F0A2F90446ADB234
:10B6200003233846E4B9019A911D42F8048BFFF7D1
:10B63000B1FF034608213046CBB10C2B03D101F0FA
:10B6400035FA2A46E4E70821052B18BF1C4601F00D
:10B650002DFA002818BF0324204602B0BDE8F0816F
:10B66000072C08BF0C24204602B0BDE8F08132460A
:10B6700001F0BAFA0446204602B0BDE8F08143F278
:10B680000204204602B0BDE8F08100BF2DE9F04180
:10B6900082B0064600F062FA4FF6FF7398422CD152
:10B6A00000273D4603244FF0010823463A46294629
:10B6B0003046FFF76DFF04280AD008280AD00B286F
:10B6C0000AD0B8F1000F08BF0B2002B0BDE8F0812E
:10B6D0001120F6E70020F4E714F0020404D13DB194
:10B6E00027462546032400E001244FF00008DCE74C
:10B6F000002FEAD02F460324F7E76A46082101F01D
:10B700002BF90028CCD1019DAF882C680635CAE7FB
:10B7100000B585B00DF10703039300F01FFA02AAEC
:10B72000012101F019F920B9039B187805B05DF8E3
:10B7300004FB002005B05DF804FB00BF70B50C4EA3
:10B7400004463046FFF728FF78B9318843F20305F5
:10B750004FF6FF722046FFF719FFA84200D070BDD8
:10B760003188013189B23180F2E7032070BD00BF1A
:10B770004C66002010B5074B044693E8030082B0E6
:10B780006B4683E8030000221946204601F06CFA5C
:10B7900002B010BD1841040046DF70470388102B2B
:10B7A00040F0F9802DE9F043041D0FCC9FB007ADA8
:10B7B0000FC50FCC0FC594E807009DF8203003F0AB
:10B7C000FE03062B85E8070063D1BDF81C704FF619
:10B7D000FF75AF425AD0DFF82482874E98F80010E8
:10B7E00001223846FFF724FC98F800103846FFF78E
:10B7F00003FC002800F0D0800023324603E0013330
:10B80000142B00F0C9805188B94202F10C02F6D124
:10B81000DBB203EB43034FF6FF7106EB830426F81C
:10B820002310DDE9080104F10802606022F8021B20
:10B83000090C678011704FF6FF739D4226D0BDF84A
:10B840001C406E4B20461978FFF7D6FB78B16A4E44
:10B850000023324602E00133142B08D05188A14264
:10B8600002F10C02F7D103EB430326F82350BDF895
:10B870001C20ADF84C5012A80023ADF84A208DF8DA
:10B88000483001F061FC12A8FFF7A8FD1FB0BDE829
:10B89000F08300F0DDFD9DF82030032B4FEA5302CA
:10B8A00040F28A80022A90D105AE0DF1060532469B
:10B8B0002946072000F0D4FD002886D09DF82030CE
:10B8C00003F0FE03042BF2D1069C03220DF12101AB
:10B8D00002A811F0F5FB032209A904A811F0F0FB5E
:10B8E000237C8DF84830E37B8DF84930A37B8DF8BD
:10B8F0004A30637B8DF84B30237B8DF84C30E37AF4
:10B900008DF84D30A37A8DF84E30637A8DF84F3034
:10B91000237A8DF85030E3798DF85130A3798DF882
:10B92000523063798DF8533023798DF85430E378B1
:10B930008DF85530A3788DF8563063788DF85730F0
:10B9400000210D2216A811F0C9FBBDF810309DF89A
:10B9500012208DF865205BBA12A8ADF86630FFF7AB
:10B960001BFFBDF876309DF875208DF80E205BBA70
:10B97000032203A902A8ADF80C3011F093FB0028B4
:10B9800095D1BDF81C70BDF806504FF6FF739F426D
:10B990007FF421AF4FE77047DFF85C900024B9F8DF
:10B9A000020098F80010FFF727FB09F10C0908B313
:10B9B0000134142CF3D13EE705AE0DF106053246F5
:10B9C0002946072000F04CFD034606220DF1210018
:10B9D000002B3FF4FAAE06999DF820304C7C634072
:10B9E00013F0FE0F01F11201E9D111F05BFB002809
:10B9F000E5D1C6E7E3B20CE7506600204E660020B2
:10BA000070B5102204460D460130013111F04AFB99
:10BA1000002852D16378FBB9A378EBB9E378DBB99E
:10BA20002379CBB96379BBB9A379ABB9E3799BB976
:10BA3000237A8BB9637A7BB9A37A6BB9E37A5BB962
:10BA4000237B4BB9637B3BB9A37B2BB9E37B1BB94E
:10BA5000237C0646002B31D06B78002B5CD1AB7871
:10BA6000002B59D1EB78002B56D12B79002B53D1D9
:10BA70006B79002B50D1AB79002B4DD1EB79002B9A
:10BA80004AD12B7A002B47D16B7A002B44D1AB7A69
:10BA9000002B41D1EB7A002B3ED12B7B002B3BD1ED
:10BAA0006B7B002B38D1AB7B002B35D1EB7B9BBB69
:10BAB000287C061E18BF012600E00026637C6A7CF5
:10BAC00083EA020111F0FE0F0BD003F0FE03042BFA
:10BAD0001ED0062B1CD002F0FC02042A18D0002035
