:020000040001F9
:10C00000B83D0020F5C001000FC1010011C10100C1
:10C010000000000000000000000000000000000020
:10C0200000000000000000000000000013C101003B
:10C03000000000000000000015C1010017C1010050
:10C0400019C1010019C101009DC6010019C10100FB
:10C0500019C10100000000005DC2010019C101000A
:10C0600019C1010019C1010019C1010019C1010064
:10C0700019C1010019C1010019C1010019C1010054
:10C0800019C10100A9C3010019C1010019C10100B2
:10C090001DC6010019C1010025C6010019C101001A
:10C0A00019C1010019C101000000000000000000DA
:10C0B0000000000000000000000000000000000080
:10C0C0000348854600F08CF80048004779DA010003
:10C0D000B83D0020401E00BF00BF00BF00BF00BF32
:10C0E00000BF00BF00BF00BF00BF00BF00BFF1D155
:10C0F000704700000321094802680A4302600848AB
:10C1000002680A4302600748804707480047FEE785
:10C11000FEE7FEE7FEE7FEE7FEE70000240500403D
:10C120005405004049C60100C1C0010030B50B46AE
:10C13000014600202022012409E00D46D5409D4201
:10C1400005D31D469540491B254695404019154687
:10C15000521E002DF1DC30BD0549064A08685043E7
:10C16000054A801808604008704701490860704718
:10C17000202900206D4EC6413930000003460B4394
:10C180009B0703D009E008C9121F08C0042AFAD28D
:10C1900003E00B780370401C491C521EF9D2704713
:10C1A000D2B201E00270401C491EFBD2704700224F
:10C1B000F6E710B513460A4604461946FFF7F0FFA6
:10C1C000204610BD10B5044605E00B780370401CF6
:10C1D000002B00D0491C521EF7D2204610BD000093
:10C1E000064C0125064E05E0E36807CC2B430C3CCA
:10C1F00098471034B442F7D3FFF766FF28EB0100ED
:10C2000048EB010070B58C180578401C6B075B0F7C
:10C2100001D10378401C2A1106D10278401C03E0AA
:10C2200006780E70401C491C5B1EF9D12B0705D403
:10C230000023521E0DD40B70491CFAE70378401CF2
:10C24000CB1A921C03E01D780D70491C5B1C521E1A
:10C25000F9D5A142D8D3002070BD0000F8B5002464
:10C26000FF250135012627460094284601F0F2FDFE
:10C27000002808D034484068304204D033480021B8
:10C280002818344301602D1D76007F1CADB2042FA9
:10C29000EBD3FF207D3001F0DDFD002807D02C48D6
:10C2A00000210160400704432A48006900902A4F9A
:10C2B000200712D00126002526420AD02748AA00CE
:10C2C000111808690969C004C00E8903BA58890F9A
:10C2D000904776006D1C042DEED3002C30DA00243C
:10C2E0001D4E0021301940304156491C25D0077899
:10C2F000BD06AD0E284600F045FF80003658002EE2
:10C300001BD0BF090121A940154AA8008018006868
:10C31000009A8003800F114202D0022802D00CE064
:10C3200003280AD1032F05D102280AD0022128466A
:10C3300001F062FD39462846B047641C042CCFD377
:10C34000F8BD0321F3E700000063004000600040F7
:10C350007C6100400005005048310020006500402D
:10C36000000700508307FF22DB0E9A408907090E61
:10C37000994000280BDA0007000F083883080848A6
:10C380009B001818C36993430B43C361704783082C
:10C3900004489B001B1818689043084318607047B6
:10C3A00000ED00E000E400E010B506490020086060
:10C3B00048608860C860034940390860486002F0FE
:10C3C000F1F910BD40110140F7B51821484321494A
:10C3D00016464418E16A8807800F02280BD0A06A2D
:10C3E000626A801A401E01D5226A1018864202DD58
:10C3F00089072DD00646002E2AD00027A06A616A40
:10C40000451A6D1E01D5206A4519616A206A411AD4
:10C41000A94201DC616A451AB54200DB3546616A12
:10C42000E0692A4640180199FFF7A8FE01987F1994
:10C4300040190190606A761B40196062606A216A47
:10C44000884201D100206062002ED7D13846FEBD5F
:10C450000020FEBDA428002010B500220B460029B4
:10C4600000D105E01C78002C02D0521C5B1CF9E7BF
:10C47000FFF7AAFF10BD0FB408B504A900916A46E2
:10C48000039900F004F801B008BC04B01847F7B5F0
:10C4900098B007A8029040200025049503901898B2
:10C4A0000C46059506902178641C002974D0252936
:10C4B00007D002A800F048FA05980028F3DA1BB06C
:10C4C000F0BD00210123022704220826207823281A
:10C4D00017D02B2813D02D280DD030280DD00022B6
:10C4E00020780346303B0A2B0ED20A235A431218F7
:10C4F000303A641CF4E7194304E0394302E0114385
:10C5000000E03143641CE1E70023C7B22E2F0AD1BB
:10C51000641C20780746303F0A2F04D20A277B4349
:10C520001B18303BF4E76C280DD068280BD070281E
:10C5300052D00BDC25285AD058282ED063280CD096
:10C54000642858D110E02078641CECE7732832D0BE
:10C55000752817D078284ED11FE01A981A9A0068CB
:10C56000011D1160017843E01A981A9F0068061DAA
:10C570003E6000680191009201460A2202A800F084
:10C580000FF938E01A981A9F0068061D3E6000688F
:10C59000009201910A2209E02FE01A981A9F006880
:10C5A000061D3E600068009201911022014602A81B
:10C5B00000F058F91FE01A981A9A0068011D1160DE
:10C5C00006683178761C002915D002A800F0BCF965
:10C5D00005980028F5DA0EE01A981A9A00680823E0
:10C5E000011D11600168102200960195DFE72521E9
:10C5F00002A800F0A9F9641C5EE70598002800DC99
:10C600005DE70498002804D0024607A91898FFF7B0
:10C61000DBFE049905984018059050E710B502F02C
:10C6200057F810BD10B507484068002807D080476C
:10C63000002803D00022114600F01CFA10BD01F0C2
:10C640005BF810BD8C28002010B501F0B7F8002869
:10C6500005D00E490C484860C8130D4988610D4843
:10C66000018CC9B201290ED1818C09070BD1018D32
:10C670000906090F042906D1808D0006000F02D19A
:10C6800005490120886010BDDFFF07C0000500409C
:10C69000006C0040C00F00F000060040F0B53C4DBB
:10C6A000012185B04902284601F0E3FB012700265D
:10C6B000384C002823D0FF212531284601F0D4FB37
:10C6C00000281CD0FF2025302E50812032498000C8
:10C6D0008860607D002800D16F600221684601708B
:10C6E0002E49086808600390E17C68460172E068A2
:10C6F0000190E67406CC6846083C90471DE0042192
:10C70000284601F0B6FB002817D0FF210931284642
:10C7100001F0AAFB002810D001F076FFE07C217D1B
:10C7200088420AD1607D002800D16F6081201A49BB
:10C7300080008860207D01F07DFFFF211D312846AB
:10C7400001F092FB00280DD0A07C218A884202D9FA
:10C7500002F06AF806E0FF211D316E50002801D07A
:10C7600002F078F8FF214531284601F07DFB0028D2
:10C770000CD0FF2045302E50607D002800D02F6067
:10C78000E07C002802D0207D01F054FF05B0F0BD10
:10C790000020004090310020002300408024004011
:10C7A000FFB583B00E4670420D9F0C9C009000298F
:10C7B00000DB0846012502E0FFF7B8FC6D1C059977
:10C7C0008842F9D20698A84200D90546002C04D028
:10C7D000002E01DB780700D5641EB80702D5069845
:10C7E000002811D0F8070FD1002C0DD02046641E70
:10C7F000A84209D92021039800F0A6F80398C06840
:10C800000028F1DA07B0F0BD002E02DA2D21009EDB
:10C8100002E0780707D52B21039800F095F80398DC
:10C82000C0680028EEDBB807800F022811D10698F7
:10C8300000280ED1002C0CD02046641EA84208D936
:10C840003021039800F080F80398C0680028F1DADE
:10C85000D8E7019700943146069B059A039800F0AB
:10C8600001F8CFE7FFB581B001271E463D460A9C7F
:10C87000029802E0FFF75AFC6D1C03998842F9D236
:10C88000AE4200D935460B98C0071CD1002C1AD0F7
:10C890000B98800701D5002E02D0202000900BE0DD
:10C8A0003020FBE70099019800F04EF80198C0682D
:10C8B000002845DB002C06D02046641EA842F1D893
:10C8C00001E00398474339460298FFF72FFC0146E1
:10C8D0000398814201D3012000E000203146761EFA
:10C8E000012901DD012100E000210843E9D1154EB5
:10C8F00039460298FFF71AFC0146029A7943511A09
:10C900000291315C019800F01FF80198C06800287E
:10C9100005DB38460399FFF709FC0700E8D10B98BF
:10C92000C0070DD0002C0BD02046641EA84207D9AA
:10C930002021019800F008F80198C0680028F1DA79
:10C9400005B0F0BDC8EA010010B504468068636810
:10C95000421C934205DB23681954A260E068401C26
:10C96000E060A2686068824209D121682069FFF70F
:10C970002BFDA168884203D00020C043E06010BDB9
:10C980000020A06010BD02E008C8121F08C1002AE4
:10C99000FAD170477047002001E001C1121F002A40
:10C9A000FBD17047024B401C1B68C0B21847000007
:10C9B000482800200021054AFF235354491CC9B2CE
:10C9C0000729FAD30149091F086070474C28002045
:10C9D000024AFF2110184170704700004C280020C7
:10C9E000F8B5064614481D4600781746884204D11B
:10C9F000D9B2104601F0D2FFF8BD084600F02CF87D
:10CA0000FF2806D0401EC0B22A46394600F008FD75
:10CA1000F8BDE9B2384601F0C1FF0124B44205D0A7
:10CA2000601EC0B22A46394600F0FAFC641CE4B22B
:10CA3000062CF3D3F8BD00004C280020014A115405
:10CA4000704700004C280020024B0A4601461B6834
:10CA500000201847482800200146054A0120135CA1
:10CA60008B4204D0401CC0B20628F8D3FF20704788
:10CA70004C280020BFF34F8F04490348C860BFF320
:10CA80004F8F00BFFDE700000400FA0500ED00E055
:10CA900010B58268C368934203D000F0EFFD002018
:10CAA00010BD052010BD002906D0002A02D0531E5B
:10CAB000134203D0092070470E2070470160838025
:10CAC00000218160C1600846704710B58268C36864
:10CAD0009A1A83889A4203D800F0DAFD002010BD2C
:10CAE000042010BDF7B5164607001AD0002E18D046
:10CAF000B868F96800250C1A30683460002C12D030
:10CB0000019900290BD0A04200D204460198411996
:10CB100038466D1C00F0B2FDA542F7D3346000200A
:10CB2000FEBD0E20FEBD0520FEBDF7B51646070072
:10CB30001CD0002E1AD0B868F9680025081AB988E8
:10CB40000C1A3068641C346012D0019900290BD093
:10CB5000A04200D204460198415D38466D1C00F0A9
:10CB600097FDA542F7D334600020FEBD0E20FEBD28
:10CB70000420FEBD094B9B68002B07D0002A07D07C
:10CB8000002805D00068037C002B03D008207047E4
:10CB90000720704741744261002070476C280020D4
:10CBA000FFB59007002581B014460E46002832D10B
:10CBB0001B4F002C31D001F005FD04987861032053
:10CBC000387033461821224600204B43BC6018348D
:10CBD000C10089180D704D708E704C601C19401C7E
:10CBE0000328F5DBFD607D7001240E48BD7024052F
:10CBF000046003211420FFF7B5FB0B4804600B4CC5
:10CC00000198A06003211120FFF7ACFB6068386138
:10CC1000002005B0F0BD0720FBE7BD60FBE700008A
:10CC20006C28002080E200E000E100E000150140F7
:10CC3000FEB50D461B4917468968044600292AD0CF
:10CC4000002C28D0052D01D20720FEBD60690028E8
:10CC500021D0607C012820D0002601F0ADFEC0006C
:10CC60001049019089684018694601F0CFFE0028FC
:10CC700015D0012101700C49446049680830E2C0B8
:10CC8000084901988968411868460078487001F0A1
:10CC900061FD0020FEBD0820FEBD2E46DDE704201C
:10CCA000FEBD00006C2800200015014010B50446B0
:10CCB00009488168C2688088511A814207D10121E0
:10CCC000064800F0C7FF002801D0052010BD21460E
:10CCD0000148FFF7DDFE10BD283100206628002046
:10CCE00070B50446224888B01E460D0042601CD034
:10CCF000A888296882B21F48FFF7D5FE002815D101
:10CD0000A889A96882B21B481030FFF7CCFE002822
:10CD10000CD1202218496846FFF730FAA068069027
:10CD20002079002804D0012103E0072008B070BD5D
:10CD300000216846017506776079002800D00E2032
:10CD400069464875E0780290A078039020780190B9
:10CD5000607800900949684600F024FF0028E5D17A
:10CD600000F0D2FF02480121801C00F073FFDDE7D4
:10CD7000642800202831002088EA0100A9E8010089
:10CD800010B50446064801214470401C00F0C8FF5D
:10CD9000112803D121460348FFF797FE10BD00007C
:10CDA0006428002038310020F8B50646002401F040
:10CDB00069F83146104800F051F80F48B1887C30CE
:10CDC00001E0641CE4B21C226243121812898A42F8
:10CDD00002D0062CF5D3F8BD062CFCD21C21064D42
:10CDE0004C43103D20186F880089688031462846E2
:10CDF00000F03EF96F80F8BD4C2B002030B50028C4
:10CE000015D0002913D00E4A1378002B11D0936847
:10CE1000022B10D011D20B4CDD002C190588258077
:10CE2000408860805B1C61600020936030BD0E20F4
:10CE300030BD082030BD062030BD042030BD0000CC
:10CE400054280020903000200021034801228160F6
:10CE500002704160084670475428002070B50028D1
:10CE600015D0002913D0244A1278002A0FD00A883E
:10CE7000302A17D00CDC04464034102A10D0112A76
:10CE800005D17C21FFF793F90020C043A08670BD37
:10CE9000322A2DD0332AFAD1091D01F007F970BDCD
:10CEA0008888F3E70546C888091D002807D00021B7
:10CEB000284600F065FB284601F046F970BD2C4677
:10CEC0006034207E3A22504340194A8902808A8980
:10CED0004280CA89C280098A0181284600F05AF935
:10CEE0000100EBD000206076284600F07FFB70BD8B
:10CEF000091D01F07DF870BD5428002070B5002890
:10CF00000DD0144A1378002B0BD09368002B08D057
:10CF100004466034637E002B05D0112070BD0E20C6
:10CF200070BD082070BD00250346556040339986CA
:10CF30000246A576084825760188118040885080F1
:10CF4000988E012190DF0028ECD10120607600202E
:10CF500070BD00005428002090300020F8B50F4626
:10CF60000978012921D0022917D003291DD11E4992
:10CF7000408800241C22624352181289824203D046
:10CF8000641CE4B2062CF5D3062C0ED017A10020A9
:10CF9000FFF762FA0026164D1CE000F09FF800280B
:10CFA00003D000221146FFF765FDF8BD7868825D69
:10CFB000002A06D00FA10020FFF75DFA6878401C18
:10CFC00005E06A780CA10020FFF755FA0020761CD6
:10CFD0006870F6B2387AB042E8D8C2B26B682046C0
:10CFE00079689847F8BD0000C82B00207C0000003D
:10CFF000002800202564200044656C696D69746513
:10D00000722061667465722025642062797465738C
:10D010000A20000030B5134B0D4604000FCB85B03D
:10D0200003936B4607C31AD0002D18D021466846DB
:10D0300063DF002811D121786846817401210182C3
:10D0400009480460881E60802868E0600020A08095
:10D050002081064904A8FFF7D1FE05B030BD0E209F
:10D06000FBE7000060EA01006028002089D401008D
:10D070003EB500282ED000292CD04288164B9A426B
:10D0800002D08C88A24225D10C88112C16D0382CC5
:10D0900020D18288002A1DD08B8993421AD1C26880
:10D0A000002A17D003236A4613700A4612320192EF
:10D0B000097C6A4611726946C2680AE08988914211
:10D0C00008D1C268002A05D004216C462170438033
:10D0D000694690473EBD0000FFFF00001FB50100FC
:10D0E00018D048880D4A904216D0C988002913D01C
:10D0F00001236A46137300235373094B1A695B6952
:10D10000009201936A46518003A90291694697DF14
:10D1100004B010BD0E20FBE70820F9E7FFFF000078
:10D1200060EA01003EB5002803D0142A03D9072085
:10D130003EBD0E203EBD4388094CA34201D10820CC
:10D140003EBD084D38CD00930295019404896B468D
:10D150005C80DA8002914088694697DF3EBD00001E
:10D16000FFFF00007CEA010070B5064600200D4676
:10D17000044603E0315D00F079F9641CAC42F9DB50
:10D1800070BD0000024909182020085670470000B1
:10D190004831002008B5014660310A46097E3A232D
:10D1A0005943D27D0918002A08D0521ED2B20C234E
:10D1B0005A435218528A6B46521C01E0CA886B4689
:10D1C0001A80098959804030808E194692DF08BD47
:10D1D000FFB582B000240B98009401941C188A18A3
:10D1E000A44696460C1E21D0002B1FD0002841D00B
:10D1F00018785B1C00281DD0401E6246C0B2D21AAF
:10D20000904206D96D462879082528436D46287135
:10D21000D0B27246121B904206D96D46287902257B
:10D2200028436D462871D0B2024615E001206946B8
:10D23000087121E06A461079042218E01D785B1C11
:10D24000002D05D16F463E7904273E436F463E715F
:10D25000521E2570D2B2641C002AEFD1634509D258
:10D26000FE28C5D074450CD36A46107902221043BB
:10D270006A461071601A00906B4607CB03C206B075
:10D28000F0BD00202070641CB2E70000F8B5234810
:10D29000C16800293ED00E6821494C680769C078F2
:10D2A000E11B0D022D0AED1C002814D101201D4A9E
:10D2B000000450601B4A403A50601B49400008601F
:10D2C0001A4908601A49012008602F20FEF702FF62
:10D2D00012490120C870B54200D23546E819000253
:10D2E0000F4B000A403318600D4A5168001B091BA0
:10D2F0000902090A0002000AC91C814209D95068C2
:10D3000018602F20FEF7E6FE01200749400480390F
:10D310000860F8BD01F056F9F8BD00006C28002047
:10D32000001501404013014080E200E000E100E010
:10D3300000100140F1B582B00121152000F06CFD14
:10D340000121162000F068FD0121172000F064FD86
:10D350000121152000F072FD0121162000F06EFD64
:10D360000121172000F06AFD0023482227490820E8
:10D3700001F08EF9002803D000221146FFF77AFB56
:10D3800000200090694601900870684660DF002820
:10D3900003D000221146FFF76DFB1D4801F06EF926
:10D3A000002803D000221146FFF764FBFFF74CFD75
:10D3B000002803D000221146FFF75CFB15480090BF
:10D3C000124869464830FFF725FE002803D00022A6
:10D3D0001146FFF74FFB0D4D00240F4ED435802032
:10D3E00000F07AFB01461C206043471938460C3098
:10D3F0008022FFF758FB641C3E81062CEFDB0749B7
:10D400000298486000F026F8FEBD0000F42A0020D3
:10D41000A9CD01005DCF0100FFFF00000028002022
:10D4200007B5062810D21C225043084A074B801823
:10D4300002898C3B5A80064B9A4205D002AA0C30D6
:10D44000FFF773FB00F0AEFE0EBD0000C82B0020FE
:10D45000FFFF000010B5044886DF002803D000223B
:10D460001146FFF707FB10BD40EA010048400021CC
:10D470008C22C30702D04008504000E04008491CFD
:10D48000C9B20829F5D37047FEB5064600780028D2
:10D4900030D1B08801282DD1174CB0792168097896
:10D4A000884227D1002522E00C2068438019C189D9
:10D4B000022902D003290CD018E0C18A206801811A
:10D4C000C268002A12D001216B4619706946904744
:10D4D0000CE02268C18A9180008BD080D368002B39
:10D4E00004D0022069460870104698476D1C307AB7
:10D4F000A842D9D8FEBD000060280020F3B506463A
:10D5000005466036307E3A2148434719F47D0C20A9
:10D510006043C1193A79601C0A3183B0904227D127
:10D5200001AB0022284600F027F9002823D010E0A4
:10D53000401EA04201D1002003E00C206043C0192E
:10D5400016300246009001AB284600F015F900287D
:10D5500008D00021049840350170A88E01A993DFFE
:10D5600005B0F0BDF07D0099401C641CF075E4B27C
:10D570003879A042DCD80498012101700020EFE73F
:10D58000F3B504466030007E3A214843071981B064
:10D59000384600F0F9FF060023D0124D68680228D3
:10D5A0001FD24034A18E44220F4C5043031959809E
:10D5B0000299002907D0002121543A223946181D2A
:10D5C000FEF7DCFD01E0022121546868442141435B
:10D5D0000919401C0E646860A968884201D100F0F6
:10D5E00035FEFEBD54280020A0300020F8B50446CA
:10D5F00060300D46007E3A214843001900F0C4FF18
:10D60000010016D00B484268022A12D2403444234B
:10D61000A68E5343084C1F461B195E800126E65513
:10D620005D60521C196442608068824201D100F042
:10D630000DFEF8BD54280020A030002010B50E4982
:10D6400000234A788C78A24212D0521CD2B24A707F
:10D65000022A00D14B704A78074B920018339A582F
:10D660000260086910180002000A0861012010BD5C
:10D670000360002010BD00006C28002082688388B1
:10D680001A4003689A5C0A708168491C816070477F
:10D69000C26883881A4003689954C168491CC160F4
:10D6A0007047000010B5002823D0124B0022001F45
:10D6B000196803E0814203D80A4649680029F9D174
:10D6C000002A0AD01368841A9C4204D100681818F2
:10D6D0001060104602E0506000E01860002907D09A
:10D6E00002680B1A934203D10B68D2180260496892
:10D6F000416010BD24290020F8B51E4C2078002878
:10D7000037D02069002807D00026E068002805D01F
:10D710000025002E04D013E00126F6E70125F8E7E6
:10D72000684651DF052806D0002806D000221146A1
:10D73000FFF7A0F904E0012602E02169009888477C
:10D74000002D12D1608869460880A06861DF052835
:10D7500006D0002806D000221146FFF78BF904E01E
:10D76000012502E0E168A0688847002ED8D0002D8E
:10D77000CFD0F8BD8C28002030B50989002A05D00B
:10D78000D088491C814212D1002030BD024660324F
:10D79000147E3A256C4324182489A142F4D0491CF4
:10D7A0001980117E3A2251430818008902E019803D
:10D7B000D088401E5880012030BD00001048018CE8
:10D7C000C9B2012917D1818C090714D1018D09062D
:10D7D0000A0F03D1828D1206120F0ED0090F0129F4
:10D7E00003D1828D1206120F07D0032903D1808D39
:10D7F0000006000F01D00020704701207047000094
:10D80000C00F00F0F3B500240D4683B08E460935F5
:10D8100062E0285D29190190487802280AD003287F
:10D8200008D0042823D0052821D006283CD007287A
:10D830003AD04EE001980026470815E07000001924
:10D84000411902206A46891C64DF00280BD1684612
:10D85000018803980088814205D168468178039841
:10D860008078814232D0761CB742E7D831E0019807
:10D870000026870815E0B0000019411902206A4609
:10D88000891C64DF00280BD1684601880398008852
:10D89000814205D16846817803988078814215D00D
:10D8A000761CB742E7D814E010206A46891C64DF72
:10D8B00000280ED16846018803980088814208D16B
:10D8C0006846817803988078814202D1012005B0B2
:10D8D000F0BD01982418641C7046007AC008A0426C
:10D8E00097D80020F3E70000F8B52C49C8680A690A
:10D8F0000C780F7989688646944600913EE000993D
:10D90000E20055182A7836E0182353436968521C00
:10D91000C918AB78D2B2934200D100220B78022B07
:10D9200002D0032B27D123E04E680346014603E0D3
:10D93000B14204D00B46C96900291CD0F8E7002980
:10D9400019D08B4208D1C069002805D1144F012697
:10D95000BE600026B44601270E68C969D961002956
:10D9600009D00B689B190B6005E00174C06900E0E9
:10D9700000210028F9D169789142C5D12146641E61
:10D98000E4B20029BBD1054962460A61C8600F7143
:10D99000704501D00120F8BD0020F8BD6C280020A2
:10D9A00000100140F8B5044631480026C1680091D6
:10D9B00007784EE02E48F90080680D1843E0002CEF
:10D9C00002D02046E4691FE02878182141436A68A4
:10D9D000401CC0B251182870AA78904200D12E7015
:10D9E0000A784868012A30D1027C002A2DD18A6841
:10D9F0004260CA6882600A69C260496981611C49E3
:10DA00000979002900D04660194943680A699C4693
:10DA1000991A0902174B090A994202D28268891899
:10DA200007E06146511A09028268090A8A4202D94E
:10DA3000511A016000E006604660012186600174B1
:10DA4000C66100F08FFE002CB9D128786978884231
:10DA5000BAD138467F1EFFB20028ABD10448C16856
:10DA60000098814201D00120F8BD0020F8BD0000DF
:10DA70006C280020FFFF7F000023114A0521184673
:10DA8000FFF78EF8002803D000221146FEF7F2FFC0
:10DA90000CA10020FEF7E0FC0C48FEF78BFF0C48C1
:10DAA00000F054FF0B48FFF745FC0020FEF75DFB3C
:10DAB00048DF0028FCD000221146FEF7DBFFF7E725
:10DAC0002C29002053746172740A000079E201006D
:10DAD00049CA0100A5C90100F0B50B30C108C90051
:10DAE000144F0026144A0FE003688B420BD38B427D
:10DAF00005D95C1A4318456830C3083B00E0436809
:10DB0000136002C004E0021D10680028ECD130460A
:10DB1000002803D13868002801D00020F0BD064A53
:10DB200006481060064A121AD208D20044C00120EA
:10DB30003860D7E72829002024290020BC350020A0
:10DB4000B83500208207D30EFF229A408907090EBC
:10DB500010B5994000280BDA03071B0F083B9C08FF
:10DB60000C4BA400E318DC6994430C43DC6107E030
:10DB70008408094BA400E418236893430B432360F3
:10DB8000C106C90E012088400449086004490860A4
:10DB900010BD000000ED00E000E400E080E200E0E5
:10DBA00000E100E0F3B50446244881B0807D002800
:10DBB00001D00820FEBD002C00D1214C206800F0CF
:10DBC00010F92078012739461E4E8140B1600021AE
:10DBD000606800F0FDF81C4DA0696862607D217DE1
:10DBE0000843E86603CCE8606961207B083C0128B3
:10DBF0000ED10021A06800F0EBF8E06800F0F1F829
:10DC0000207B39468140B160E168A068A960286145
:10DC10000A4E0298706021693160002806D00C4AD3
:10DC2000217F0A4850600220FFF78CFF0420286003
:10DC30000020F074B074B7757075FEBD903100208F
:10DC4000A8EA010000050050002500408000020005
:10DC500000230040F8B5294DEA7C002A01D01120AC
:10DC6000F8BDE974E86000202875687D002801D1BE
:10DC700000F0F0FC6868224C002805D08120214982
:10DC8000800048600020F8BDFF212531204600F0CB
:10DC9000EBF80546FF210931204600F0E5F807467C
:10DCA000FF214531204600F0DFF806463946314372
:10DCB0002943E9D02846304306D100F0A5FC0F489F
:10DCC000C17C007D8142DFD8FF21453100206050BA
:10DCD000FF21253160500949002DC87401D003206F
:10DCE000F8BD002E01D00F20F8BD497D012000298C
:10DCF00001D02060C6E76060C4E7000090310020DA
:10DD0000002000400023004010B5044C607D002836
:10DD100003D100F09FFC0120607510BD9031002000
:10DD2000F8B5204C0026A27C002A01D01120F8BDB5
:10DD3000A174A060002020821B4DFF271D37E851F1
:10DD40000120A86000F070FD6168002911D024E076
:10DD5000FF2701372946144800F086F8002802D131
:10DD6000208AB842F6D1208AB84203D000F05CFD88
:10DD700000E03D46A07C218A8842E9D8218AC81F5C
:10DD8000F9380CD0084F2946384600F06DF80028C5
:10DD9000F9D00120F8600020A0743046F8BD0F26AD
:10DDA000F9E70000903100200020004030B552001B
:10DDB0000A439900039C0A432102049D0A43290453
:10DDC0000A43024980004018026030BD000700503D
:10DDD0001CB500220B46009211460192FFF7E6FFA8
:10DDE0001CBD1CB5002100910B460122019111467A
:10DDF000FFF7DCFF1CBD0000820006481018026817
:10DE000003231B049A430260026809040A43026068
:10DE10007047000000070050002904D00121814014
:10DE2000044881617047044A002180008018016025
:10DE3000704700000005005000070050012282409A
:10DE40000348002901D082607047C260704700001B
:10DE500000050050034940180068012800D0002048
:10DE600070470000006000404058002800D00120AA
:10DE700070470322120280184068084000D0012039
:10DE800070470000F8B50546041D008800264C4F79
:10DE900013287DD01EDC01287BD0102847D0112804
:10DEA00017D1484E00241C20604387193889A9885F
:10DEB000884206D1224644A10020FEF7DCFA4748FA
:10DEC0003881641CE4B2062CEDD301211520FFF744
:10DED000B5FFF8BD19285DD01B2805D01D28F8D145
:10DEE0002088A11C75DF4CE0A41C21463C48FFF7AC
:10DEF00089FC0028EDD03878FF28EAD1314837492D
:10DF00001C227243121812898A4203D0761CF6B280
:10DF1000062EF5D3324633A10020FEF7ACFA304A84
:10DF20003E70121D11460831204688DFF8BD387852
:10DF30000628FBD21C214843224EE11C80190622F0
:10DF4000401CA41CFEF73EF938781C2301462278B9
:10DF500058433254AA88801902813246A8888C3AE4
:10DF600050800846FEF734FDFFF774FAFF20387042
:10DF700000211520FFF762FF3046A9887C38FEF7A4
:10DF8000BDFF0028D2D000221146FEF773FDF8BD78
:10DF90000CE011E000211520FFF750FFA0780228C7
:10DFA000F5D00328F3D1FF203870F0E70023A888CC
:10DFB0001A4685217FDFE4E700F0F4F8E7E7000088
:10DFC00000280020C82B0020446973636F6E6E65C3
:10DFD000637465643A2025640A000000FFFF0000B6
:10DFE00034EA01004E65773A2025640A00000000FB
:10DFF000F3B583B0039E3A226036307E5043039AD5
:10E0000085184888002837D1083100912C79087884
:10E010002018042800D904202871002711E00A20C4
:10E020000099784341180C206043401901900A225E
:10E030000A30891CFEF7A2F800210198641C818235
:10E040007F1C2879A042EAD80C2044436019C2887A
:10E05000307E3A23039958434018008982420BD2FC
:10E060002879042808D0F0750398FFF793F8010089
:10E070000ED00020707608E00024F47569460398FD
:10E08000FFF73CFA010005D074760398FFF7AEFA6B
:10E0900005B0F0BD684600780028F9D0012103984A
:10E0A000FFF76EFA039800F04FF8F1E7F8B5044671
:10E0B000054660340B46207E3A2148434219E07DF4
:10E0C0000C26704380180A30844619465888083157
:10E0D000002812D11B4E0B880DE0062747437F18FE
:10E0E000BF88B74206D1062358434018418860468E
:10E0F000418102E0401C8342EFD80026684606704A
:10E10000E07D1179401C884203D1012069460870E6
:10E110000FE0E07569462846FFF7F0F9010004D0EA
:10E1200066762846FFF762FAF8BD68460078002850
:10E13000FAD001212846FFF723FA284600F004F818
:10E14000F8BD00000229000070B5044605466034A1
:10E15000A07E1249401CC0B2A07689680026884281
:10E160001AD2E675207E3A21401CC0B241434A19BA
:10E1700020760B49C00040180188118040885080EB
:10E1800074201671405B012190DF010003D0667698
:10E190002846FFF72BFA70BD667670BD5428002024
:10E1A00090300020F0B500268BB03546002E43D1CC
:10E1B0001C202946414321480C18204920898C39CC
:10E1C000488014200C3400902BE0009802A982B201
:10E1D0001A488C38FEF7A6FF1949884206D1204616
:10E1E0006A4602A9FEF7A1FC012621E0082805D015
:10E1F000002803D000221146FEF73CFC002707E070
:10E2000002A8C25D0FA10020FEF735F97F1CFFB206
:10E2100000988742F4D30CA10020FEF71DF91420CA
:10E2200000906A4602A92046FEF75CFC0528CCD186
:10E230006D1CEDB2062DB9D30BB0F0BDC82B00207C
:10E2400004300000256420000A00000070B500249E
:10E25000074D084E05E0442060438019016C884753
:10E26000641CA8688442F6D30020686070BD00007A
:10E2700054280020A0300020F7B504467B488CB01D
:10E280004068002809D17A4A01217A48FEF772FCD9
:10E29000002221217848FEF7CBFC002006460B9097
:10E2A00020463221484375494518D9E00D987249F6
:10E2B000825D0C39085D4255401CC0B208550D9A6C
:10E2C000925D002A02D032287ED0C7E001287CD996
:10E2D000401EFFF701FC0890002802D168A1FEF75C
:10E2E000BBF865482B460C38025D0899501E00901B
:10E2F00006A8521EFEF76CFF6846007F002813D068
:10E30000224663A10020FEF7B6F8002706E0EA5D8A
:10E3100067A10020FEF7AFF87F1CFFB256480C380B
:10E32000005DB842F3D81EE00698401EC1B20898BE
:10E33000FEF71AFF01460898069A401E105C8142BB
:10E3400016D022465DA10020FEF795F8032707E0CE
:10E35000089857A1C25D0020FEF78DF87F1CFFB220
:10E360000698B842F4D85AA10020FEF775F83CE0B0
:10E37000FDF7F2FE089840780990089800780A9016
:10E380000B98002801D053A200E054A255A357A136
:10E390000020FEF770F8089852A3807801285648AC
:10E3A0002AD0015D0898089A0079D27803AF0292CA
:10E3B0000BC70A9909980191009081002B480830F9
:10E3C000435808384DA101E02FE011E00268002019
:10E3D000FEF751F820460999FEF730FB46482A46D9
:10E3E000035D20460A99FEF7FBFA0898FFF75AF9F1
:10E3F00041490020085531E0089A1C4FD27808990D
:10E4000092001837005D0979BA580593039104907A
:10E410000A990998019100908100384602921038BB
:10E420004358083841A10268D1E722464EA1002096
:10E43000FEF721F8002706E0EA5D1DA10020FEF7A7
:10E440001AF87F1CFFB22C48005DB842F4D820A116
:10E450000020FEF701F8284800210155761CB6B2CD
:10E460000E98864200D221E70FB0F0BD10280020A0
:10E47000C1E601005CEA010070300020702E00202F
:10E480004D616C6C6F63206661696C65640A0000A5
:10E49000434F4253206465636F6465206661696C15
:10E4A00065642066726F6D2025643A2000000000CC
:10E4B000203078253032782000000000435243207D
:10E4C0006572726F722066726F6D202564200A007B
:10E4D0000A0000001B5B343B34326D001B5B343B95
:10E4E00034306D001B5B306D000000002573202070
:10E4F00020202025730000006430002025643A208D
:10E5000025732564202D3E2025643A2053696D70C3
:10E510006C65202825642F25642920282564206225
:10E52000797465732925730A0000000025643A2078
:10E5300025732564202D3E2025643A2025732077FD
:10E540006974682073657175656E6365206E756D9D
:10E5500062657220256420282564206279746573C1
:10E560002925730A000000004D6178206672616DF4
:10E57000652073697A6520726561636865642066E9
:10E580006F722025640A000070B50D4B00210B4A04
:10E590009B680EE0CC00A518AD788678B54207D10F
:10E5A000145B0588AC4203D1C8008018406870BD78
:10E5B000491C9942EED3002070BD0000903000202D
:10E5C0005428002070B501240B49600408600B49F1
:10E5D00040108860094940398860094D6C602F20DF
:10E5E000FDF778FDAC60074D00242F202C61FDF76E
:10E5F00071FDEC7070BD000080E100E0401301404F
:10E60000001001406C280020FF210748093100223A
:10E610004250064881690648037DC268D154017D95
:10E62000491C017570470000002000400025004093
:10E63000903100201FB5012269460A700872044813
:10E64000C16801910021C17406C8684690471FBD8A
:10E6500090310020FF220548253200218150FF2201
:10E660000932815001210160704700000020004004
:10E6700010B508461146C046C04610BD002803D05C
:10E680000249C860002070470E2070478C28002087
:10E6900070B5002901D08C0701D0072070BD064C51
:10E6A0000125A16062800549636010DF0028F5D173
:10E6B000257016202EDF70BD8C28002071E6010029
:10E6C00002480168491C01607047000010280020C2
:10E6D000FEB51F4C00252769E06802906846FEF7EA
:10E6E000ADFF0190FFF700F906460198002822D0FF
:10E6F00000230098E16817E00E680A46864202D9B6
:10E70000301A086012E0801BF31800261660D668E5
:10E71000D169B446002E07D0FE183602360A56607C
:10E7200066469660D56115460029E5D12846E16028
:10E73000FFF738F906E02846FFF734F9002801D141
:10E74000002E02D00298FEF7A1FD00202071FEBD30
:10E750006C28002001200249000508607047000075
:10E7600000E200E010B50E4BD968002906D002681F
:10E770000C68A24204D8A21A0A60C161D86010BD18
:10E780000B4604E00B46C969121B002904D00C6833
:10E790009442F7D3A41A0C600260C161D86110BD25
:10E7A0006C280020F8B51E4DEC68002C36D01D48B2
:10E7B000002740682969401A0602360A2068B042DC
:10E7C0001AD8361AC7192246107CE469002811D0DD
:10E7D000002010746B69002B09D09169506998472B
:10E7E000002807D000221146FEF744F902E05169E3
:10E7F00090698847002CE1D16978A878814206D1D8
:10E80000401CC0B2A870022801D10020A8700449A1
:10E810000006800D18310F50FFF79CFFF8BD000077
:10E820006C28002000150140FF2107481D310022FF
:10E8300042500648028A8168895C028A521C028220
:10E840000348C16170470000002000409031002063
:10E85000002500401FB500216A461170107204485F
:10E8600082680192817406C8684690471FBD000007
:10E870009031002008B50178002909D0012901D084
:10E88000022904D1002240681146FEF7F3F808BDC2
:10E890006846FEF70BFA034A012152686846904722
:10E8A00008BD0000082800207CB50178254D01290D
:10E8B0000AD002292FD000292CD129462248FEF760
:10E8C000E7F800282ED031E0406801781E48103863
:10E8D000FEF7FBF81C4C103C002805D001216A46CD
:10E8E00011700190684608E0A068E168081A0128E4
:10E8F00005D1002069460870684669688847A068A5
:10E90000E168081AA188884204D80E480121801CB9
:10E91000FFF7A0F97CBD02216A461170C068019022
:10E9200068460CE001210748FFF7FAF906488168BC
:10E93000C0688842EED1032069460870684669685D
:10E9400088477CBD642800203831002010B50F4A6C
:10E95000044607CA88B004AB07C30D4800900120E5
:10E9600001900C48029001204002039003230A4AC0
:10E97000694604A8FEF7B4F9002803D00022114626
:10E98000FEF778F80248446008B010BD50EA010074
:10E9900008280020702C002075E8010070B50D4695
:10E9A0000646002404E0305DFEF7EAF9641CE4B298
:10E9B000AC42F8D370BD000012494868C005C00DD4
:10E9C00019D0103840B2002807DA0207120F083AAF
:10E9D000920892005118C96904E081080A4A890026
:10E9E000891809688007C00EC1400806800F0128F9
:10E9F00003D0032803D00220704700207047012075
:10EA00007047000000ED00E000E400E04278837809
:10EA1000521CD2B2934200D100220378934201D11A
:10EA2000002070470A704168407818225043081847
:10EA300070470000010002000600100000003200D4
:10EA40000100000000000000A0000A00000000001B
:10EA50000B09080A0100000000509D0070300020E2
:10EA60009ECADC240EE5A9E093F3A3B50000406E36
:10EA7000010100000000020000000000020100008F
:10EA80000000000000000000000000000000000086
:10EA90000000000000000000000000000000000076
:10EAA00000509D0003000000000000000000000076
:10EAB0000000000000000000000000000000000056
:10EAC00000509D00030000003031323334353637BA
:10EAD00038394142434445464461746100000000B6
:10EAE00041636B0053796E61636B00001B5B313BCC
:10EAF00033336D001B5B313B33356D001B5B313BAA
:10EB000033366D001B5B323B33376D0053796E003B
:10EB1000416C697665207465737400005465726D8C
:10EB2000696E616C0000000048EB010000280020C5
:10EB30002C01000004C2010090EB01002C290020F0
:10EB40008C14000096C901000217FF14FCEA011A98
:10EB5000EC041AF4041404EB011AD8081AE0041A9D
:10EB60000C0C1AE4081A10080168600B534547475B
:10EB70004552205254545A02041A1C8413A83112CC
:10EB8000200226043930123503282010D324F40043
:040000050001C0C175
:00000001FF
