:020000022000DC
:10600000000004202D0C0300550C03002D86020017
:10601000590C03005B0C03005D0C03000000000042
:10602000000000000000000000000000AD4C030074
:10603000610C030000000000CD4C0300650C030060
:10604000B90E0300670C0300C1180300FD3D0300F7
:10605000F5280300670C0300CD1203008938030004
:10606000670C03005124030019250300670C03008B
:10607000670C0300670C0300670C0300670C030048
:10608000670C0300D54D0300670C0300670C030089
:10609000670C0300670C0300DDE20200670C0300DD
:1060A000670C0300670C0300670C0300E125030085
:1060B000B9350300670C0300000000000000000079
:1060C000670C03006D360300213703007D3E03009B
:1060D000670C0300670C0300670C0300670C0300E8
:1060E000670C0300670C0300670C0300000000004E
:1060F00000000000D537030000000000670C03001B
:10610000000000000000000000000000000000008F
:10611000000000000000000000000000000000007F
:10612000000000000000000000000000000000006F
:10613000000000000000000000000000000000005F
:10614000000000000000000000000000000000004F
:10615000000000000000000000000000000000003F
:10616000000000000000000000000000000000002F
:10617000000000000000000000000000000000001F
:10618000000000000000000000000000000000000F
:1061900000000000000000000000000000000000FF
:1061A00000000000000000000000000000000000EF
:1061B00000000000000000000000000000000000DF
:1061C00000000000000000000000000000000000CF
:1061D00000000000000000000000000000000000BF
:1061E00000000000000000000000000000000000AF
:1061F000000000000000000000000000000000009F
:1062000010B5054C237833B9044B13B10448AFF3F0
:1062100000800123237010BD1C5F002000000000DF
:10622000486704000C4B43B10C480D4910B5AFF35F
:1062300000800C48036823B910BD0A48036833B9CD
:106240007047094B002BF7D0BDE810401847064BAC
:10625000002BF5D0184700BF00000000486704007D
:10626000205F00209C5E002000000000154B002BEA
:1062700008BF134B9D46A3F5803A00218B460F467D
:106280001348144A121A17F0C1FC0F4B002B00D010
:1062900098470E4B002B00D09847002000210400A7
:1062A0000D000D48002802D00C48AFF3008017F015
:1062B0004FFC2000290013F017FF17F035FC00BF3A
:1062C00000000800000004200000000000000000A2
:1062D0001C5F0020ACC60020000000000000000091
:1062E000704700BF00B583B0044B0093044A4023BD
:1062F00000F036F803B05DF804FB00BF0563020050
:106300003C5F002002B32DE9F843114B114E884643
:10631000144643F0010903270025224608EB050136
:10632000002010F02DFF03461D444FF47A40E41A7C
:1063300023B9337833B1C847013F06D00123337006
:10634000002CEAD1BDE8F88370473770BDE8F883C8
:10635000803B0400385F0020704700BF10F0D4BFBE
:10636000F0B595B0002415460F4608461E4603F0CA
:1063700015F8384623460822089505A91A9D09965E
:106380000D950A948DF82C400C9403F05BF89DF861
:106390001430079806998DF8114003F00302012A82
:1063A0000290039128D0022A04D0384602F0FAFF66
:1063B00015B0F0BDBDF81650C3F3C2038DF8103010
:1063C000C5F389150826082D2C4628BF0824334616
:1063D00022460EA9384603F035F82D1B214608AB9E
:1063E00002AA0EA8264400F05BFE002DEBD1384631
:1063F00002F0D8FF15B0F0BDBDF81460059DC6F3DE
:106400008316C3F3C204B2000EA9384608238DF8E0
:106410001040C5F3952503F015F808AB00933246FC
:1064200028460EA902AB00F095FDBEE710B5054C5D
:10643000FFF794FF2046042100F04CFD0123637216
:1064400010BD00BFB8570020F0B5334D85B005F53D
:10645000836002F0A1FA05F2144002F09DFA6A6826
:10646000AF6802EA0701CB1C05EB8303541C1878C4
:1064700010F0030F00F003060ED010F0040016D049
:10648000012E37D0022E02F10200ECD15A8800EB27
:10649000921202EA0701E6E74007F1D459881A8808
:1064A00004EB911404EB921202EA0701DBE705EB1F
:1064B0008101531CC96801913B4005EB830301F046
:1064C0000301DB680293012902F102041CD00229B6
:1064D00018D1BDF80630BDF80A60C3F38913033341
:1064E00004EB93040D4802F065FA00B16C6030468D
:1064F00005B0F0BD1B880232C3F383131A4402EACD
:106500000701B0E70646EDE7BDF80430BDF80A60C4
:10651000C3F383131C44E5E78C600020A0640020D3
:1065200008B50E4B0E480022FF21C3F818249960CD
:106530001A605A60C3F8142483F8202402F0DCFEA9
:1065400058B9084A084BD21AD20806D00749034660
:1065500021F8233001339A42FAD108BD8C60002023
:106560007C6804007C680400AC670400A05E002026
:1065700021B9124A02EBC0000068704730B41049DC
:106580000E4D491BC9080ED00E4B5A88824218BFC7
:10659000002205D10FE0DC88844203F1040305D01A
:1065A00001329142F7D1002030BC704705EBC200A8
:1065B000006830BC70472846FAE700BFAC670400AB
:1065C0007C680400A05E0020094B013903EBC00089
:1065D00003290BD8DFE801F0020806040220704707
:1065E0004079704700797047042070470020704759
:1065F000AC6704002DE9F047904C94E80C009A42F7
:1066000084B061D00023C4F81834BFF34F8F63689F
:10661000A56827680EE011F0040623D001F00301FD
:1066200001294BD0022903D15288023303EB921384
:106630009F4212D903EA0500C21C04EB82021178C2
:106640008E07E8D14807E9D451881288013303EB5B
:10665000911303EB92139F42ECD80020676004B0C3
:10666000BDE8F08704EB80005A1CC16801912A4004
:1066700004EB820201F00301D2680292022903F1C5
:10668000020825D0012977D0D4F8105435B12B68F1
:1066900028469B6898476D68002DF8D1684B69497A
:1066A0001888000440F0020000F0D2F86068236807
:1066B000C01A18BF012004B0BDE8F0871288023369
:1066C000C2F383121344B3E7002004B0BDE8F0879F
:1066D000BDF806305C48C3F38919B9F1500FCA46BA
:1066E000A8BF4FF0500A6AF38F130AF10801ADF802
:1066F000063002F003FE07460028C5D002F04EFE29
:10670000334625EA08060136082201A93846B600B4
:1067100002F06AFEB24540F28480002E6CD15246EF
:1067200008234A49384602F05FFE09F1030608EBE8
:106730009606D4F81834002B5AD1D4F810544DB121
:106740006B7A3946284613B12B681B6898476D68E9
:10675000002DF5D1384602F025FE04A8002300F8EC
:106760000D3D00F0DDFED4F8183403B966609DF8E5
:10677000030000F0FBFE99E7BDF804303248C3F394
:106780008312062A28BF0622911C62F3891389000E
:10679000ADF8043002F0B2FD074600283FF474AFB4
:1067A00002F0FCFD3346082201A9384602F01CFE27
:1067B000BDF8043013F4707F3ED0B2464FF00809A4
:1067C00005EA080103314B4604EB810104223846F7
:1067D00002F00AFEBDF804300AF1010AC3F3831384
:1067E00008F10106534509F10409B046E8D8A0E7CD
:1067F000384602F0D7FD59E705EA08010331AAEB54
:10680000060504EB810132463846EDB2082302F05A
:10681000EBFD2A4606F108030C49384602F0E4FD78
:1068200083E705EA0801033104EB8101524608239E
:10683000384602F0D9FD78E746467AE78C600020BA
:10684000C85E0020943B04007C680400986000202F
:106850002DE9F04383B002AB002203F8012DDFF8ED
:10686000E090074618468846D9F8085000F058FED0
:10687000D9F80820D9F80430D9F80060134401335E
:106880009B1B012B57D809F21C440121204602F022
:1068900067F8FFF7D9FD0146204602F061F899E854
:1068A0000A00D9F80820134401335B1A012BECD9F4
:1068B00001240A40033244F004036FF389130231C8
:1068C0009DF8070049F82230C9F8001000F04EFE8C
:1068D00000211A4802F00EF880F3100033192B4003
:1068E00009EB830300043540033540EA1740D860C4
:1068F00019F8253067F3C50309F8253039F8253034
:106900006FF3891329F8253059F8252068F39F2261
:10691000134664F301036FF3820349F8252009F855
:10692000253099F820341BB1FFF764FE0028FBD115
:1069300003B0BDE8F0833146BAE700BFA864002089
:106940008C6000202DE9F04782B002AB002403F8F0
:10695000014D374C8046184692468946A56800F09E
:10696000DFFDA2686368276813440133DB1B022B39
:106970005BD804F21C460121304601F0F1FFFFF71D
:1069800063FD0146304601F0EBFF94E80A00A2687F
:10699000134401335B1A022BEDD901260A4003325E
:1069A00046F0040366F3891344F8223003319DF85E
:1069B0000700216000F0DAFDBB1C2B4004EB8303D1
:1069C00000211C48C3F80CA001F094FF80F31000D4
:1069D000BB192B4004EB830300043D40033540EA20
:1069E0001840D86014F8253068F3C50304F8253042
:1069F00034F8253066F3891324F8253054F825201F
:106A000069F39F22134666F301036FF3820344F890
:106A1000252004F8253094F820341BB1FFF7EAFD57
:106A20000028FBD102B0BDE8F0873946B5E700BFCA
:106A30008C600020A86400202DE9F04F85B004ADE3
:106A4000002405F8014D3C4C0193804628469346AE
:106A50008946A66800F064FDA2686368276813444D
:106A60000133DB1B032B65D804F21C4501212846AA
:106A700001F076FFFFF7E8FC0146284601F070FFC1
:106A800094E80A00A268134401335B1A032BEDD982
:106A900001250A4003324FF0020A45F004036AF36D
:106AA000891344F8223004319DF80F00216000F072
:106AB0005DFD07EB0A0EFA1C0EEA060E324004EBEF
:106AC000820204EB8E0E019B1C48CEF80CB0002114
:106AD000D36001F00FFF80F310007A19324004EB0D
:106AE000820200043E40033640EA1840D06014F8A9
:106AF000262068F3C50204F8262034F826206AF31D
:106B0000891224F8262054F8262069F39F22134680
:106B100065F301036FF3820344F8262004F826305E
:106B200094F820341BB1FFF765FD0028FBD105B0B8
:106B3000BDE8F08F3946ABE78C600020A8640020E8
:106B40002DE9F04F85B004AD002405F8014D404C0F
:106B50000193804628468946A668934600F0E0FCEB
:106B6000A168636827680B440133DB1B042B6CD8D6
:106B700004F21C450121284601F0F2FEFFF764FCF7
:106B80000146284601F0ECFE94E80C00A1680B4495
:106B900001339B1A042BEDD9012511404FF0030A54
:106BA000033145F004036AF3891344F821300532B8
:106BB0009DF80F00226000F0D9FCB81C07EB0A0E0C
:106BC00030400EEA060E3A1D324004EB800004EB22
:106BD0008E0E04EB8202019BC0F80CB00021CEF8AF
:106BE0000C301C480E9BD36001F084FE80F3100033
:106BF0007A19324004EB820200043E40564440EAD7
:106C00001840D06014F8262068F3C50204F8262046
:106C100034F826206AF3891224F8262054F8262016
:106C200069F39F22134665F301036FF3820344F86F
:106C3000262004F8263094F820341BB1FFF7DAFC44
:106C40000028FBD105B0BDE8F08F3A46A4E700BFAD
:106C50008C600020A86400202DE9F04F89B008ADB9
:106C6000002405F8114D474C129F05938046994624
:106C70002846139B0697924604920793A6688B4674
:106C800000F04EFCA2686368276813440133DB1BE5
:106C9000052B75D804F21C450121284601F060FE41
:106CA000FFF7D2FB0146284601F05AFE94E80A009D
:106CB000A268134401335B1A052BEDD90A40012564
:106CC000D31C45F0040E042262F3891E44F823E02D
:106CD00006319DF80F000192216000F047FCB91CBD
:106CE00007F1030C07F1040E31400CEA060C0EEA22
:106CF000060E7B1D334004EB810104EB8C0C04EB8E
:106D00008E0E04EB8303129AC1F80CA01E48CCF837
:106D10000C900021CEF80C20139ADA6001F0EAFD05
:106D200080F310007B19334004EB830300043E40E2
:106D3000033640EA1840D86014F82630019A68F308
:106D4000C50304F8263034F8263062F3891324F89A
:106D5000263054F826206BF39F22134665F3010377
:106D60006FF3820344F8262004F8263094F8203488
:106D70001BB1FFF73FFC0028FBD109B0BDE8F08F45
:106D800039469BE78C600020A86400202DE9F04F75
:106D900089B008AD002405F8154D04934B4C129FA3
:106DA00005979946139B06938046149B03922846A9
:106DB00092460793A6688B4600F0B2FBA268636810
:106DC000276813440133DB1B062B7CD804F21C45D7
:106DD0000121284601F0C4FDFFF736FB0146284695
:106DE00001F0BEFD94E80A00A268134401335B1A67
:106DF000062BEDD90A400125D31C45F0040E0522CF
:106E000062F3891E44F823E007319DF80B000192DC
:106E1000216000F0ABFBB91CF81C07F1040C3140F9
:106E200030400CEA060C07F1050E0EEA060E04EBE4
:106E3000810104EB800004EB8C0CBB1D129AC1F89D
:106E40000CA0334004EB8E0EC0F80C9004EB8303CF
:106E5000CCF80C20139ACEF80C200021149A1C4870
:106E6000DA6001F047FD80F310007B19334004EB3A
:106E7000830300043E40033640EA1840D86014F80B
:106E80002630019A68F3C50304F8263034F826301A
:106E900062F3891324F8263054F826206BF39F22DE
:106EA000134665F301036FF3820344F8262004F8C8
:106EB000263094F820341BB1FFF79CFB0028FBD14F
:106EC00009B0BDE8F08F394694E700BF8C60002020
:106ED000A864002030B4144DD5F81044002154B1FA
:106EE000237A8B4213D0234602E01A7A8A420ED0CC
:106EF0005B68002BF9D10172D5F810347BB15B6867
:106F00004360D5F810345860084630BC70470131F2
:106F10000A29E4D14FF0FF31084630BC7047C5F86C
:106F200010044360F0E700BF8C60002038B5084BC8
:106F3000D3F81044012583F820543CB123686572CE
:106F400020465B6898476468002CF7D138BD00BFC5
:106F50008C6000202DE9F04784B01D460C9C002376
:106F600094F80C802373EB8881460E461746002B5D
:106F70003BD1297A05290FD06B7A002B3DD1404BAC
:106F8000A88853F821A00021FFF7F2FA52460346E1
:106F90003C4920460DF01EFA062F0FD8DFE807F017
:106FA000484D535A04633900F168B06896E80C0004
:106FB00001910090494620460DF00CFA2B7A052BE2
:106FC00005D06B7A5BB9304920460DF003FA2046B4
:106FD0000DF0F4F984F80C8004B0BDE8F0872B4A7A
:106FE0002B4920460DF0F6F9EDE7284A0092294991
:106FF000294A20460DF0EEF9BBE7A888FFF7E4FA2E
:10700000264B234953F8202020460DF0E3F9297A36
:10701000B5E77069316996E80C000390B068F768CD
:1070200002918DE88100494620460DF0D3F9C5E76D
:10703000494620460DF0CEF9C0E732684946204661
:107040000DF0C8F9BAE7494696E80C0020460DF065
:10705000C1F9B3E7B16896E80C00204600914946B3
:107060000DF0B8F9AAE7B068F768316996E80C0046
:1070700002918DE88100494620460DF0ABF99DE76D
:10708000403C0400303C04003C3C0400243C040030
:107090002C3C04000C3C0400043C0400CC3B0400E9
:1070A000082900D970472DE9F04F1D46904600236E
:1070B0002A7B2B7385B0B8F80630039207460E463C
:1070C000002B6BD198F80810052911D098F80930D9
:1070D000002B6BD13C4BB8F8040053F82140002141
:1070E000FFF746FA22460346384928460DF072F962
:1070F000DFF8F8B0DFF8F8900024A64249462846A9
:107100003ED93A5D01340DF065F9082CF5D13049CE
:10711000DFF8E090DFF8E0B028460DF05BF90024DE
:1071200011E017F804A016F037FD50445946437893
:1071300013F0970F14BF52462E22284601340DF04B
:1071400049F9082C08D0A64249462846E9D8013416
:107150000DF040F9082CF6D198F80830052B02D034
:1071600098F80930A3B91B4928460DF033F9284691
:107170000DF024F99DF80C302B7305B0BDE8F08FAD
:107180000134594628460DF025F9082CB5D1BEE743
:10719000114A124928460DF01DF9E4E70E4A009203
:1071A0000F49104A28460DF015F98BE7B8F804008E
:1071B000FFF70AFA0C4B094953F8202028460DF036
:1071C00009F998F8081085E7403C0400303C0400B9
:1071D000FC3B04003C3C0400243C04002C3C040028
:1071E0000C3C0400043C0400CC3B0400F83B0400CD
:1071F000F03B0400383C0400003C040030B482B092
:1072000001248DF80740154B9DF80750186044F293
:107210000104A04259609A6014D044F202018842ED
:1072200008D072B69DF80730002BFBD162B602B0D1
:1072300030BC7047DA60DA6812889A61DA6852689E
:10724000DA61EEE71A611A6992685A611A6912687E
:107250009A611A695268DA61E3E700BFB0640020FE
:1072600000B583B002900091019244F20100714692
:107270006A4600F003F803B000BD00BF2DE9F043FB
:10728000044685B00E46154672B6FFF74FFEFFF76F
:10729000B1F90028FBD141F201039C4254D03ED900
:1072A00044F201039C421AD044F202039C4241D1B1
:1072B0002A4A2B8810882A496A68000440F0010095
:1072C000FFF7BAFB274B1B68DB0700D500BE2A4639
:1072D0003146204605B0BDE8F043FFF78FBFD5F833
:1072E0000890DFF878804846B8F8007002F0EEF8B1
:1072F0002B68019302963F046B68009347F00107E7
:1073000003464A4638461849FFF740FDB8F80000E2
:107310001649000440F00100FFF79AFAD2E7012C69
:1073200008D10E4B12491888000440F00100FFF705
:107330008FFAC7E7094B0F491888000440F0010095
:107340003246FFF7FFFABDE7044B0B4918880004EB
:1073500040F00100FFF77CFAB4E700BFC85E0020F0
:10736000E83C0400F0ED00E0043D04002C3D040086
:10737000A43C0400403D0400C43C040010B50FF0E0
:10738000F5FE037B03B910BD83680068BDE81040BB
:10739000184700BF002070473AB170B505682B7BD5
:1073A00082B023B1082002B070BD072070476B681F
:1073B000002BF7D114460E4610221946284616F027
:1073C00025FC321C084BAC6018BF012200934FF41F
:1073D0007A712B4605480FF0E5FC0028686014BF61
:1073E00000200E20DFE700BF7D730200383C040060
:1073F0002DE9F041476884B0002F44D0037B154647
:107400000C460646002B42D13560EFF3058585B961
:107410004FF002082246CDF800802B460421384662
:107420000FF00EFD0128044638D0042004B0BDE85A
:10743000F08104AD4FF0000845F8048D2246CDF8E8
:1074400000802B46092138460FF0FAFC0128ECD1C8
:107450000EF058FFCDF8008002462B463846062134
:107460000FF0EEFC0128E0D1039B43B1124B4FF02B
:1074700080525A6040BFBFF34F8FBFF36F8F01231D
:1074800033730020D2E7082004B0BDE8F08138460D
:107490000FF060FE0028B7D00020C7E70EF02CFFE9
:1074A000CDF8008002462B46214638460FF0C8FC36
:1074B0000128BAD1E3E700BF00ED00E0416859B30D
:1074C00010B5044684B0EFF305835BB90222084689
:1074D000009203211A460FF0B3FC012818D00420B3
:1074E00004B010BD04AB002243F8042D08460092FE
:1074F00008210FF0A5FC0128F1D1039B43B1074BF4
:107500004FF080525A6040BFBFF34F8FBFF36F8F71
:107510000020207304B010BD0820704700ED00E08B
:1075200070B4EFF3108472B60D4B9A68AAB90D4986
:107530000D4E01259D60D1F8805035401D60C1F889
:107540008060D1F884505D604FF0FF33C1F8843023
:10755000027004B962B670BC704701230370F8E78B
:1075600050C5002000E100E0FC06FFBD094B9A6811
:1075700072B168B910B4EFF3108272B606491C6894
:107580000C605C684C60986002B962B65DF8044BB0
:10759000704700BF50C5002000E100E0F0B5344C5A
:1075A000344D67886268BE00F31905EB830383B02E
:1075B000596801F58050002A56D05388033302EBF6
:1075C0008302904234D91368013331D05388033396
:1075D00002EB830398422BD34FF6FF7CB2F804E012
:1075E000E64517D0B2F800E0BEF1000F12D062609D
:1075F0005388214D2148AE882968033300259BB26A
:1076000000959B0001EB86010325257001F028FB06
:1076100003B0F0BD98420BD91A6801321A4607D060
:10762000B3F802E00EF1030E03EB8E039842D5D2BD
:10763000F31905EB8303DB686BB10F4D0F48296825
:107640000227052600230122AF80267003B0BDE883
:10765000F04001F09DBB094804250122257003B0CC
:10766000BDE8F04001F094BB01F10802A9E700BFBA
:10767000F4640020106500203C650020085F0020B5
:107680002DE9F041436888464BB13B4AD468A34298
:1076900005D31269934202D813F003054DD000239D
:1076A000DFF8DCC0A8F800304FF0010E4FF6FF768F
:1076B000DCF80470002207F580540837002A3AD01D
:1076C0005388033302EB83039C420DD80EF1010370
:1076D000A8F800E01FFA83FEBEF1030F0CF1140CB2
:1076E000E6D10020BDE8F0811A680132EED05A8858
:1076F000033203EB82029442E8D39D88B5420DD059
:107700001D885DB19D6801688D421A46D6D11B4A1D
:107710004360138903810120BDE8F081A242D5D2E4
:10772000136801331346D1D05588033502EB850227
:10773000A242CBD8E1E73B46C6E7104A048912894A
:107740009442ACD104689A689442A8D10C4842682B
:10775000934203D902F58052934207D38269934240
:10776000BFD902F580529342BBD20125A8F8005040
:107770000120BDE8F08100BF085F0020F464002014
:10778000106500202DE9F04FA04F89B004464FF658
:10779000FF783E68002E00F007813278531E052BDB
:1077A00000F2B283DFE803F0313E3E1E1E03002CE0
:1077B00040F0B880DFF87CE29EF80C30002B00F03F
:1077C000A1819EF800308EF80C40013B062B00F2A0
:1077D0009B83DFE813F0970281015F014701990362
:1077E00070028401002C40F09D803379012B00F061
:1077F000B78103ADC0F09E81022B0394AC60EC60B6
:107800002C6140F08783002032E0002C40F0AB80F8
:107810003379032B00F2BE80DFE813F0EC00100197
:10782000AF00CD00B6F81490002C00F08380B37D3B
:10783000022B40F263814FEA8904754DF38804EB13
:10784000090205EB8202033311890B4413814C4476
:1078500005EB8404F3886289C3F57F4303ADFD33F0
:10786000134400226381AA600392EA602A61012026
:1078700004903378023B042B0AD8DFE803F0432F4F
:1078800023034F0004238DF80C30F388ADF8183033
:10789000604C04F1100654F8043B284603B19847A5
:1078A000A642F8D15C495D4800243C6000F0F4FF3A
:1078B00001215B4801F062F800287FF46AAF09B04B
:1078C000BDE8F08F03238DF80C30F388ADF8183045
:1078D0003389ADF81A30F3680593D9E702238DF8A0
:1078E0000C303389ADF81830B388ADF81A30F3682E
:1078F0000593B37DA3F10603B3FA83F35B098DF817
:107900001C30C5E701238DF80C303389ADF81830F1
:10791000B388ADF81A30F3680593B9E705238DF8FD
:107920000C30B5E703AD0023AB600393EB602B6134
:1079300001209DE74FEA8904354DB17D04EB090331
:1079400005EB8303B3F808A05B6803EB8A0A0629FA
:1079500000F21283DFE811F0170189019B01640135
:1079600077014B01480103AD2E4A00235360039376
:10797000AB60EB602B6101207AE72B4C2B48216830
:107980000023337102250122A58001F001FA0028AD
:1079900095D03E68234A03AD002353600393AB6048
:1079A000EB602B610E2063E71B491C4800F044FF8D
:1079B00006463860F1E61C4C1D4A21681B48144DF0
:1079C0004FF0000986F804900823CDF8009001F0EC
:1079D00047F9184B26685B88A18803EB830305EB06
:1079E000830205F8239053682360022356601181B7
:1079F000A380CCE70C4B104A19680C4801230024E3
:107A000033710823009401F02BF9C0E70C650020C6
:107A100010650020DC64002004650020C4570020AD
:107A200038650020EC6400203C650020085F0020E1
:107A30005C3D0400F4640020643D0400A74D2B78F5
:107A4000022B00F079822B7D022B00F0888203AD9F
:107A5000A34B002001221A7003905860A860E860D0
:107A6000286105E7BEF802309C4D03EB830305EB6C
:107A70008305EB68002B00F06E819A4B9A481968D9
:107A8000022205249A80002301228EF8004001F092
:107A90007FF912E09348DEF8042084880168538857
:107AA0009148033301EB8401002400949BB203242A
:107AB0009B008EF8004001F0D3F8002840F087804A
:107AC000FDE6884ADEF804109388498803330B44A6
:107AD000022193808EF80010FFF760FDEDE7814BE7
:107AE000824A19688048002307240093CEF80430A6
:107AF0008EF80040082301F0B3F8DEE7774D4FEA37
:107B00008904A4E69EF80030072B00F2618101A2EF
:107B100052F823F08F7D0200D17D0200D17D02005A
:107B2000C37A0200697D0200DF7A0200DF7A020078
:107B3000C57D02000223337103946C60AC60F3686E
:107B4000039328460DF10A01FFF79AFD002840F043
:107B5000C58103946C60AC60EC602C610A2087E600
:107B60005F4B1B78002B40F049812146082260487A
:107B700016F04CF8022003AD0023AB600393EB60DA
:107B80002B613E6874E602230022B3750423009241
:107B90005146F218544801F063F800283FF48FAEC4
:107BA000B17D0E20022908D904EB090205EB8202FF
:107BB000F388118903330B4413814C4405EB84058E
:107BC000F3886A89C3F57F43FD3313446B8103ADAA
:107BD00041F61D5200239042AB600393EB602B6192
:107BE00000F0C8813E6843E641F61D50DCE7414B9A
:107BF000414AB3F800A051683B48404A00234FF087
:107C0000060E86F816E00093042301F029F80028F8
:107C1000C6D10AEB8A0A05EB8A0501232B744EE6CE
:107C2000F388326930484FF0010E86F816E04FF0C5
:107C3000000E0AF10C019B00CDF800E001F010F8F5
:107C40000028ADD13BE62C4BB2691A6018460022E1
:107C500028495A60FFF714FD002894D103AD039022
:107C6000A860E86028610A2002E6032A14BF062300
:107C700005230022B3750AF104010092042306F1E2
:107C80000802194800F0ECFF002889D117E6336993
:107C90001548002B0CBF012303230022B3750AF102
:107CA00008010092042306F10C0200F0D9FF00281D
:107CB0007FF476AF03E6BEF80220084D930013442C
:107CC00005EB83050624002369680D4A00930648E6
:107CD0008EF80040082300F0C3FFEEE61065002098
:107CE000EC6400203C650020085F0020643D040037
:107CF0004865002044650020D0640020583D040001
:107D00005C3D04009EF80A304BB19C4DEB680022AC
:107D10008EF80A201BB92A7C002A40F008819EF8C0
:107D20000B3053B1954D2B6A00228EF80B2023B9EE
:107D300095F82430002B40F0F98003AD0020A860B6
:107D40008EF80000AEF80200CEF804000390E86060
:107D500028613E688CE50424696889488EF80040F3
:107D6000012201F015F8A8E6BEF80220834D854CEB
:107D70009300991805EB810120684E68B4F804C09F
:107D8000486002202660A1F808C0A08097E77B4DDC
:107D9000BEF808102B782A7DB3FA83F3B2FA82F288
:107DA00000205B095209013101248EF80A308EF857
:107DB0000B20AEF80810AEF802008EF80C008EF81A
:107DC0000040A1E701238EF800309EF80A309BE7BF
:107DD000013B062B00F2988001A252F823F000BF6D
:107DE000057D0200D97A0200957A0200657A0200C8
:107DF000097F0200B77C0200DF7A02006248B0F817
:107E00000490B9F1010F00F2AC805C4D09EB890ED2
:107E100005EB8E0E9EF80030BBB109F101091FFA87
:107E200089F9B9F1020FA0F804900EF1140EF1D106
:107E300003AD08220021544815F0E8FE0020A86098
:107E40000390E86028613E6812E5DEF804100368DC
:107E500001F5805201F1080C002B65D059880331DF
:107E600003EB8101914201D30460D6E70B68013333
:107E7000FAD04B88033301EB83039342F4D8B1F873
:107E800004A0C24514D0B1F800B0BBF1000F0FD070
:107E9000B6F806B00160D3450B46DDD10023009350
:107EA0003A4A3748042300F0DBFE80B10E2062E638
:107EB0009A42D9D9196801311946D5D0B3F802A030
:107EC0000AF1030A03EB8A039342CDD8D7E709EB03
:107ED000890905EB890501232B74F0E404992B4AE9
:107EE0008B88F3800B883381254800940423BDF8E8
:107EF0000A6000F0B5FE78B12C606C60AC60EC609C
:107F00002C613E680E20B3E403AD0023AB60039305
:107F1000EB602B610F20ABE4184B06EB860603EBFE
:107F2000860601233374CAE461469BE70123AEF859
:107F30000230FFF733FBC0E500239800184405EB3F
:107F4000800300245968124A0094082305F8204051
:107F50000B4800F085FE00287FF41BADAFE4012341
:107F6000EBE703AD0822214615F050FE0394AC6008
:107F7000EC602C613E6846E40F2013E6106500209B
:107F8000085F00203C65002048650020583D040043
:107F90005C3D04004068FFF7F5BB00BF2DE9F047EA
:107FA00082B0002A60D0B2F8008057880E4605469D
:107FB00001A94548994600F001FC1C220446002115
:107FC00015F024FE002C2FD04FF0000A84F800900A
:107FD000A4F8148084F816A07368236101213B483B
:107FE00000F0BEFCE060338823817388A380B9F180
:107FF000030FE7802DD0A4F80AA001A9324800F0B1
:108000000BFC3DB100236B60E168314A29601289A5
:10801000AB722A8101212F4800F094FC044690B1F4
:10802000002002B0BDE8F0872B4A08EB880802EB7D
:108030008802C7F57F435189FD330B4408205381E3
:1080400002B0BDE8F087FFF79DFB204602B0BDE817
:10805000F0870423A3752B68A36101A9A4F80AA0E3
:10806000194800F0D9FBCDE70F89FA1C92B240F213
:10807000FD34A24201D90920D3E7174C94F80080BF
:10808000B8F1000F07D16689258935441544ADB292
:10809000B5F5806F0BD3257D3DB9E68BA58B3544B7
:1080A0001544ADB2B5F5806F0AD30720B9E7C646CF
:1080B0004FEA8E05754404EB85043244628175E70E
:1080C0004FF00108C646F3E7C457002008650020BA
:1080D000F4640020386500201065002060B159B1BB
:1080E00070B582B00C460DF106010546FFF7C8FADF
:1080F00020B90A2002B070BD05207047BDF8060007
:10810000084B6E6800EB800003EB80000C3001210F
:1081100000F026FC26606B6801220C3363600020AF
:10812000AA72E7E71065002050B110B582B00DF1DA
:1081300006010446FFF7A4FA20B90A2002B010BDD8
:1081400005207047BDF80630094A03EB830302EBB4
:108150008303DA6812B9062002B010BDA27A002AA1
:10816000F9D0DA680021013ADA600846A172E5E741
:10817000106500201E4B1B7813B902231846704768
:1081800040B1CB1C9BB240F2FD32934205D909238A
:1081900018467047052318467047F0B4154A1578FD
:1081A000A5B95689148934441C44A4B2B4F5806F2F
:1081B0000CD22F46BC003C4402EB84023344538172
:1081C0000580418000231846F0BC7047147D54B9E7
:1081D000D68B948B34441C44A4B2B4F5806F02D285
:1081E00001252F46E6E707231846F0BC704700BF7D
:1081F000EC64002010650020134B1B7813B9022398
:1082000018467047A8B10388022B02D904231846E8
:10821000704710B40D4A418803EB830302EB8303DC
:108220008C1C5A89944206DB042318465DF8044BE3
:1082300070470523E4E7C1F57F41FD311144002279
:10824000598113460260F0E7EC64002010650020BD
:108250000F4B1B780BB90220704759B110B40C8832
:108260004FF6FF739C4201D04B882BB904205DF878
:10827000044B7047052070474A6812F0030201D092
:108280000320F4E702235DF8044BFFF787BE00BF2D
:10829000EC64002032B130B40E4C247824B90220B2
:1082A00030BC70470520704771B10D884FF6FF74E0
:1082B000A54201D04C8814B9042030BC70474B68EB
:1082C0009B0703D00320EBE70520E9E7022330BC3E
:1082D000FFF764BEEC64002020B1104A12781AB98E
:1082E00002207047052070470029FBD010B40C888D
:1082F0004FF6FF72944201D04A881AB904205DF803
:10830000044B70474A6812F0030201D00320F6E7DD
:1083100003235DF8044BFFF741BE00BFEC6400206F
:10832000174B1B780BB9022070474FF6FF7398422A
:1083300001D10420704770B582B001A904461148EC
:1083400000F03CFA1C220546002115F05FFC85B1C7
:1083500005230126EC8001A92B702E71094800F03D
:108360005BFA3146084800F0EDFA044620B10020DF
:1083700000E0082002B070BDFFF704FA2046F9E7DC
:10838000EC640020C4570020386500202DE9F0433C
:10839000354C247814B90220BDE8F08362B35BB396
:1083A000B3F804C0BCF1010F23D8304F0CEB8C04A0
:1083B00007EB84074FF6FF7E4FF000083C786CB95E
:1083C0001C687D6805F58056002C4AD06588033509
:1083D00004EB8504A64212D8C3F800800CF1010C0E
:1083E0001FFA8CFCBCF1020FA3F804C007F11407BC
:1083F000E4D10A20BDE8F0830520BDE8F0832568BC
:108400000135E9D06588033504EB8505AE42E3D339
:10841000B4F80490F14515D0B4F80090B9F1000F0C
:1084200010D01C60A5888542CBD125888D42C8D14B
:10843000A168116019680E4B51601B8913810020DF
:10844000BDE8F083B542C7D22C6801342C46C3D0B6
:10845000B5F8029009F1030905EB8905AE42BBD3DB
:10846000D6E705F10804B5E7EC64002010650020AC
:10847000F4640020314B1B780BB90220704741B3E4
:108480003AB32DE9F0419788012F1FD82C4E07EB06
:10849000870306EB83064FF6FF7E4FF0000C337820
:1084A0006BB91468736803F58055002C43D063885A
:1084B000033304EB83039D420DD8C2F800C001379B
:1084C000BFB2022F978006F11406E8D10A20BDE85A
:1084D000F081052070471C680134EED05C880334BD
:1084E00003EB8404AC42E8D8B3F80480F04513D021
:1084F000B3F80080B8F1000F0ED013601D888542DC
:108500001C46CFD19B680B6012680E4B4A601B89DA
:108510000B810020BDE8F081AC42CED2236801334C
:108520002346CAD0B4F8028008F1030804EB88049B
:10853000A542C2D3D8E70833BDE700BFEC640020F2
:1085400010650020F4640020314B1B780BB9022029
:108550007047D1B1CAB12DE9F0419688012E11D8EA
:108560002C4F06EB860307EB83074FF6FF7E4FF099
:10857000000C3B785BB10136B6B2022E968007F153
:108580001407F6D10A20BDE8F08105207047146871
:108590007B6803F58055002C38D06388033304EBE7
:1085A00083039D4202D8C2F800C0E4E71C6801348E
:1085B000F9D05C88033403EB8404AC42F3D8B3F8FD
:1085C0000480F04513D0B3F80080B8F1000F0ED04E
:1085D00013609D8885421C46DAD19B680B60126847
:1085E0000D4B4A601B890B810020BDE8F081AC4235
:1085F000D9D2236801332346D5D0B4F8028008F1DC
:10860000030804EB8804A542CDD3D8E70833C8E7B4
:10861000EC64002010650020F464002020B119B142
:1086200003680B6000207047052070471EF0040FA0
:108630001CBFEFF309800AE0EFF308800849094AFC
:10864000884201D8904202D88D464FF000006B4618
:10865000854608B5044B9847BDE808409D467047DD
:108660000000042000F8032091860200BFF34F8F22
:108670000549064BCA6802F4E0621343CB60BFF3BE
:108680004F8F00BFFDE700BF00ED00E00400FA05DA
:108690002DE9F04782B08146FEF748FCFDF7AAFFBE
:1086A0000028FBD1DFF80C81394CB8F80000D9F86C
:1086B00018203849A56A000440F00100FEF742F98D
:1086C000B8F80000D9F80810D9F80C60000499E84F
:1086D0000C0040F00100009101962F49FEF7BCFA12
:1086E000B8F80000D9F81C10D9F81430D9F81020C7
:1086F0000091000440F001002849FEF721FAE36AE6
:10870000980726D4DFF8B0A0254F0024012606FAEA
:1087100004F32B420BD05AF8243039461A4633B1B1
:10872000B8F80000000440F00100FEF70BF9013436
:108730001A2CECD1290620D42A0413D4194B1B6817
:10874000DB0700D500BE4846FFF790FF02B0BDE84A
:10875000F087B8F800001449000440F00100FEF76B
:1087600077F8CFE7B8F80000094B10499A6B00047E
:1087700040F00100FEF7E6F8E0E7B8F80000044B2F
:108780000B495A6B000440F00100FEF7DBF8D3E719
:1087900000ED00E07C3D0400943D0400CC3D04006D
:1087A000383E0400F0ED00E0F43D0400643E0400B7
:1087B000443E0400E85E0020803E040030B482B0F5
:1087C00050E8013F9DB2C48925448489A54228BF51
:1087D0002D1B0489A54202BFBFF32F8F002207E0A3
:1087E000C5EA030540E80154002CE9D14FF001022D
:1087F0008DF803200193019B9DF803200B602AB1A3
:108800000B880068184402B030BC704702F0FF03C8
:10881000184602B030BC70470A884B889A4201D093
:108820000020704750E8012FC2EA024240E80123CD
:10883000002BF7D10120704730B482B050E8023FDE
:108840001FFAA3F5C488A54202BFBFF32F8F0022F1
:108850000DE0C48925448489A54228BF2D1BC3EAA5
:10886000054540E80254002CE8D14FF001028DF894
:1088700003200193019B9DF803200B602AB14B88D4
:108880000068184402B030BC704702F0FF0318467D
:1088900002B030BC704700BF0A884B889A4201D0B2
:1088A0000020704750E8022FC2EA224240E802232B
:1088B000002BF7D10120704701F01F024B09012165
:1088C00000EB8300914000F021B800BF01F01F02CF
:1088D00001234909934000EB8100D94300F024B8FB
:1088E0004B0901F01F0150F82300C84000F00100BF
:1088F000704700BF00B550E8002F0B4640E8003E2F
:108900009EF0000FF7D110465DF804FB00B550E86B
:10891000003F43EA010240E8002E9EF0000FF6D12E
:1089200010465DF804FB00BF00B550E8003F03EAC5
:10893000010240E8002E9EF0000FF6D110465DF8CF
:1089400004FB00BF00B550E8002F02EB010340E834
:10895000003E9EF0000FF6D110465DF804FB00BF0C
:1089600000B550E8003F03EB010240E8002E9EF006
:10897000000FF6D110465DF804FB00BF00B550E8CB
:10898000003FA3EB010240E8002E9EF0000FF6D15D
:1089900010465DF804FB00BF00B5012350E8002F2E
:1089A00042EA030E40E800E191F0000FF6D1704674
:1089B0005DF804FB00B5002350E800EF0EEA030267
:1089C00040E8002191F0000FF6D170465DF804FBFD
:1089D00030B330B4446882688369121B5B03D2B23F
:1089E0000BD5C368818B01FB02318B4205D20D4C44
:1089F00043F8044B9942FBD844680168531E0C604D
:108A0000DBB242B101680A685C1E551C0D60137030
:108A1000E3B2FF2BF6D103680020187130BC704719
:108A20000E207047ADBAADBA2DE9F04782B002AB67
:108A3000002403F8014D05461846FEF771FD2B682A
:108A400069681A688A424AD9511E19602968AB6858
:108A50000F6812F8010C0A79AC8BEE68DB1BDBB2F5
:108A60009A4204FB006438BF0B719DF80700FEF7C3
:108A70007DFD84B3AB69AE8B5FFA83F8C3F3072542
:108A80005B03264404EB880813D5B44211D2DFF807
:108A900068A0DFF86890274657F8043B53454A46DC
:108AA0004FF098014FF0000001D0FEF7D9FBBE4215
:108AB000F2D8444505D20E4B204640F8043B804591
:108AC000FBD8A6EB85039E4204D90A4A43F8042B3F
:108AD0009E42FBD84446204602B0BDE8F0879DF890
:108AE0000700FEF743FD204602B0BDE8F08700BF57
:108AF0000DF0ADBAFECAADBAADBAADBAC843040006
:108B00002DE9F04F8469B0F81C80E7B2A1EB87072C
:108B1000B94283B00646C4F30724B84412D9DFF83B
:108B200038B1DFF82CA189463D4655F8043B5B453A
:108B300052464FF0C3014FF0000001D0FEF790FB0A
:108B4000A945F2D8A8EB8404A0450FD9DFF80C9111
:108B50003F4D54F8043B4B452A464FF0CE014FF0B1
:108B6000000001D0FEF77CFBA045F2D8B3695C039E
:108B700008D5474506D2374A3B4643F8042B98456B
:108B8000FBD8B369D8031AD5F368BB4208D8B268DA
:108B90007068B18B121AD2B201FB0232974207D32E
:108BA00040F25B112A4A0020FEF75AFBF368B18BB2
:108BB000FB1AB3FBF1F201FB1233002B40D102A8E8
:108BC000002400F8014DFEF7ABFCB3693268D9030D
:108BD0002BD5B168106888421FD29B030ED57468EC
:108BE00084420BD2DFF8688014F8011BB38BF56860
:108BF00001FB03539F421AD0A042F5D8431C1360D7
:108C0000F268B38BBF1AB7FBF3F707709DF8070044
:108C1000FEF7ACFC03B0BDE8F08F0D4A20464FF4E0
:108C2000BB71FEF71DFB3268B3691068D5E7424699
:108C3000002040F28311FEF713FB32681068DBE777
:108C4000034A40F263110020FEF70AFBB7E700BFBA
:108C5000C8430400ADBAADBA0DF0ADBAFECAADBAA4
:108C60002DE9F04383B0DDF8288000283DD016467A
:108C7000002A4AD0D0F800E0BEF1000F4AD01C46CE
:108C8000F3B14768D7F80490B3FBF9F709FB17373E
:108C900037BB11F0030F4BD1B6075ED1C668B142A6
:108CA00056D301F1FF3C05696444AC4250D8CDF87D
:108CB0002880DEF80C40A44603B0BDE8F0436047CE
:108CC000284A294B1088294A29490924000440F0E0
:108CD00001000094FDF734FF204603B0BDE8F083A7
:108CE000204A214B1088234AEEE71E4A1E4B10886B
:108CF000214A1F490E24000440F001000094FDF7B2
:108D00001FFF204603B0BDE8F083164A164B1088BB
:108D10001A4AEEE7134A144B10881549184A0824DA
:108D2000000440F001000094FDF70AFF2046D4E75C
:108D30000C4A0D4B1088134A0D491024000440F0D2
:108D400001000094FDF7FCFE204603B0BDE8F0836F
:108D5000044A054B10880C4AEEE7024A024B108881
:108D60000A4AE9E7F05E0020F8430400DC4404000E
:108D7000A044040034450400984404002C45040039
:108D800020450400604504009C450400784504002B
:108D9000F0B583B000283FD0D0F800E0BEF1000F5E
:108DA00049D0B2B14768D7F800C00CF1FF370F4285
:108DB0002DD1C768B9421BD34E1E04690CFB026556
:108DC000A54215D8DEF81040A44603B0BDE8F04037
:108DD0006047204A204B10882049214A092400047A
:108DE00040F001000094FDF7ABFE204603B0F0BD5B
:108DF000184A194B10881B4A18491024000440F0E7
:108E000001000094FDF79CFE204603B0F0BD114A1E
:108E1000114B1088144AEFE70E4A0F4B10880F4988
:108E2000124A0E24000440F001000094FDF788FE71
:108E3000204603B0F0BD074A074B108807490C4A8B
:108E40000824000440F001000094FDF779FE20465C
:108E500003B0F0BDF05E00200C440400A044040008
:108E6000DC44040048440400204404009844040006
:108E70002045040018B103680BB1DB69184770B5D1
:108E80000B4C0C4D0C4B2D1BA3FB05352D090CD0A9
:108E900005EB850504EB850523682046143413B1E2
:108EA000DB69984718B9AC42F6D1002070BD70BD9F
:108EB000085F00201C5F0020CDCCCCCC29DF7047A0
:108EC00028DF7047034B187A0122B0FA80F05A74F9
:108ED000400970475065002030B55D4C237A87B05B
:108EE000002B66D05B4B1B68022222721A79002A83
:108EF00033D0012A25D019688A68CAB10022032517
:108F00000592029200920392049201959A6805924A
:108F10001A796846002A57D0012A07D102228DF813
:108F20000020DA68120302925B6904938B68984709
:108F300000234949494823726360FFF7ADFC07B03D
:108F400030BDD8681A691044FFF7BAFFC8B11128BC
:108F5000D1D10123237207B030BD9D695A69D96808
:108F60001869521BB2F5805F28BF4FF480529208F7
:108F7000012A38BF012229442844FFF79FFF002817
:108F8000E5D1227C002AE6D1227A002AE3D0022A07
:108F90000AD1E0601A7922B3012A05D11A69596908
:108FA00001328A421A6128D0637CBBB105F0B2F865
:108FB000D1E729492948FFF73FFC264B18600346B3
:108FC000002891D16060C6E701228DF800201A695F
:108FD0000292DA6803925B690493A7E7FFF77CFFCC
:108FE000B9E79A695969881AB0F5805F94BF121879
:108FF00002F5805291429A61D6D1002222721968FC
:109000008868B0B105920092019202920392049294
:109010009A6805921A79684682B1012A07D102221C
:109020008DF80020DA68120302925B6904938B6862
:10903000984709490948FFF72FFCB5E701228DF849
:1090400000201A690292DA6803925B690493EEE7E2
:10905000506500206865002064650020D857002016
:10906000831E012B00D9704730B5354C237A87B069
:10907000002B47D0022B41D103280AD1E3680133EA
:10908000082B44D92F4B00221B68E26022720D206E
:1090900015E02C4B00221B68E2601A79002A38D0B8
:1090A000012A2BD11A69596901328A421A6125D1E4
:1090B00002284FF0000214BF0D20104622721968DA
:1090C0008A68BAB100220592029200920392049239
:1090D0009A68019005921A7942B3012A07D1DA6899
:1090E0005B6904931303022202938DF800208B68BE
:1090F0006846984714491548FFF7CEFB637C1BB1BF
:1091000005F008F807B030BDFFF7E6FEFAE7E360C8
:10911000F4E79A6959698D1AB5F5805F94BF5219C1
:1091200002F5805291429A61E8D1C1E71869DA6884
:109130005B69029001258DF8005003920493D6E7F5
:10914000506500206865002064650020D857002025
:1091500000F0FD03012B00D0704730B5624CA0F148
:109160000100B0FA80F0237A4009002287B0207411
:109170006274002B5FD05D4B1B68022222721A7949
:10918000002A45D0012A1DD019688A688AB10022B8
:1091900003250592029200920392049201959A6827
:1091A00005921A796846002A59D0012A4ED08B6858
:1091B000984700234E494F4823726360FFF76CFBCA
:1091C00007B030BDD8681A691044FFF779FE28B19E
:1091D0001128D9D10123237207B030BD227C002A87
:1091E000FAD1227A002AF7D0022A0BD1E0601A794C
:1091F000002A41D0012A05D11A69596901328A42EF
:109200001A6145D0637C002B33D004F083FFE3E781
:109210009D695A69D9681869521BB2F5805F28BFE9
:109220004FF480529208012A38BF01222944284471
:10923000FFF744FECBE72E492E48FFF7FDFA2B4BF4
:1092400018600346002898D16060C5E702228DF8B7
:109250000020DA68120302925B690493A7E70122F7
:109260008DF800201A690292DA6803925B69049310
:109270009DE7FFF731FEAFE79A695969881AB0F5A3
:10928000805F94BF121802F5805291429A61B9D161
:109290000022227219688868B0B10592009201928A
:1092A0000292039204929A6805921A79684682B1F2
:1092B000012A07D102228DF80020DA6812030292F7
:1092C0005B6904938B68984709490A48FFF7E4FAF9
:1092D00098E701228DF800201A690292DA68039259
:1092E0005B690493EEE700BF5065002068650020CD
:1092F00064650020D8570020FFF76ABB2DE9F041D4
:10930000838B82695E1ECF1C06F00306C2F3072121
:109310009E1B51FA82F2A6EB8206013E374480463C
:10932000B7FBF6F7FFF780FB80B3FFB20025012300
:10933000013F0446C680C0F800800571437128D003
:10934000064609E06379AF4203F1010363713060BF
:10935000C0F8008006461CD04046FFF765FB01358B
:109360000028EFD16679721E16D023460130824262
:109370001B68FBD81F684EB1214600250C680135DB
:109380003846FFF7BDFBAE422146F7D10020BDE8CD
:10939000F0812046BDE8F0812768EDE70430012127
:1093A000FFF7DEBAF8B5012104460430FFF7E6FA0C
:1093B000C0B200B1F8BD6679721E12D023460130EA
:1093C00082421B68FBD81F68002EF3D02146002480
:1093D0000D6801343846FFF793FBA6422946F7D1C2
:1093E000F8BD2768F2E700BF2DE9F843C6880433CB
:1093F0000F46B3FBF6F5904606FB1533044615B150
:10940000013D2468FCD1F51A454528BF4546B8F111
:10941000000F15D04FF000090433E018A8EB050841
:109420002A4607EB090114F0E6FB4645A9442468E7
:1094300035464FF0000328BF4546B8F1000FEBD189
:10944000BDE8F8832DE9F843C68804330F46B3FB23
:10945000F6F5904606FB1531044615B1013D24682A
:10946000FCD1751A454528BF4546B8F1000F15D007
:109470004FF0000904312144A8EB05082A4607EB08
:10948000090014F0B8FB4645A944246835464FF05E
:10949000000128BF4546B8F1000FEBD1BDE8F883C5
:1094A00001600B6843604A68934204BF0023436035
:1094B000704700BF436843B1026891680B44436042
:1094C0005268934204BF00234360704730B4184D84
:1094D000A5F59472AB1ADB1003EBD3735B1002EBB0
:1094E000C30152F83330984228BF0C4605D311E02F
:1094F00052F8333098420CD221468B1ADB1003EB22
:10950000D3735B10914202EBC304F1D8094830BC1D
:1095100070470D46984204D904F10802AA42D9D3F3
:10952000F4E76068034B002808BF1846EFE700BF68
:1095300020470400E44504000A4B195C1F298ABF38
:1095400009484FF0A04001F01F01D0F80435012276
:109550008A4022EA03011340C0F80815C0F80C3510
:10956000704700BF0C4B040000030050C20770B4EA
:109570000ED483070AD54FF0A0430C22C3F82C2742
:10958000C3F83027C3F86027C3F8642770BC70475E
:109590004FF0A04303224FF400564FF480454FF4A0
:1095A00000444FF48031C3F83427C3F83827C3F898
:1095B0003C27C3F84027C3F80865C3F80855C3F82B
:1095C0000845C3F80815D4E7032801D907207047D8
:1095D000012A12D0012917D008D30229F6D10D4B48
:1095E00000EB4000034400205A707047094B00EB29
:1095F0004000034400209A707047012901D00022E6
:10960000E8E700F10E02D2B200EB4003014900206E
:10961000CA5470476C65002010B50388102B08D021
:10962000112B05D1264B18680138186038B110BDD0
:1096300010BD234C216881B10131216010BD012290
:109640000221FFF7C1FF48B3072827D01D4B1B6835
:10965000002BECD0BDE81040184701220846FFF768
:10966000B3FF48B1072807D0164B1B6803B19847D2
:1096700021680131216010BD072202210120FFF77E
:10968000A3FF08B10728EFD1042202210020FFF731
:109690009BFF0028ECD00728E6D1E9E7072202214A
:1096A0000120FFF791FF08B10728CFD1002108461C
:1096B0000A22FFF789FF0028B9D00728C6D110BDBC
:1096C0007C65002078650020C0B2002348700B70D4
:1096D000704700BF2DE9F04F89B00DF1200800233D
:1096E00008F8143D05460C4640462E68FDF718FF65
:1096F0004CB92B681B6833B19DF80C00FDF736FFA1
:1097000009B0BDE8F08F4FF00009686800223146CB
:1097100004F0D6FE10B100233360EDE79DF80C0095
:10972000FDF724FF33681B69002B6BD033681C697D
:1097300070691022214614F04FFA05F10C07002839
:109740004BD186F818902968087E0B68C0B204B225
:109750009B68E20003EB020E53F834C09EF806301B
:109760009EF805409EF804A013F001034FEA540E42
:109770002ED014F0010340D10C68247B0130A042AC
:1097800007DA08688068083210444079BEEB500F51
:109790003AD09B461C462022384641468DF80C4064
:1097A0008DF80DE0CDF810A00593CDF818C0CDF8D8
:1097B0001CB009F087FB0028A2D02A6813681B6838
:1097C000002B3ED140468DF80C30FDF7A9FE9CE7FA
:1097D00004F001049B461A46DEE7384605F1080A04
:1097E00009F0FCFA2B461C4A2146504610F002FBB9
:1097F000384609F057FB7461A3E700239B46012418
:109800002022C9E7341D93E70B68087ED3F808B01F
:109810000BEB02030130019098795C7900905BF8C2
:1098200002B0009A9DF804001B79087614F0010F2D
:109830000CBF0324022412F0010F0CBF00222022CF
:10984000AAE71168136849681B68984740468DF875
:109850000C90FDF765FE58E75D9802002DE9F04396
:1098600000780B6887B00C4678B103201A6812683C
:1098700022B11A681B6851681B689847204601216D
:10988000FFF728FF07B0BDE8F0831A7E19680132A0
:10989000097BD2B29142E9D91A76216891F818E091
:1098A0000B685FFA8EFE0FFA8EF29B684FEAC20CCD
:1098B00003EB0C0553F83260AB796A792F7913F01A
:1098C00001034FEA520515D012F0010328D10A68AE
:1098D000127B0EF1010E964508DA0A6892680CF1C7
:1098E000080C62445279B5EB520F1FD09C469E463D
:1098F000202203E002F0010E9C461A4601A904F161
:109900000C008DF804E08DF805500297039304963F
:10991000CDF814C009F0D6FA0028B3D02368A5E723
:10992000034684464FF0010E2022E7E70B6891F8CA
:1099300018809A6802EB0C0308F1010893F805906F
:1099400093F806E0187952F80CC019F0010F0CBF1B
:10995000032202225FFA88F81EF0010F03469646A2
:1099600081F818800CBF00222022C7E770B503469B
:1099700004460C4A08300E4610F03CFA054670B911
:1099800004F10C0009F08EFA23681D6096E80F00C0
:109990002668043686E80F0023681A1D5A61284697
:1099A00070BD00BF5D980200F0B589B008AC03AE91
:1099B00044F8186D0546079100272146134E05927D
:1099C000012401AA4068ADF804708DF818308DF8B4
:1099D0000440039604920E9C04F0FEFC08B109B00A
:1099E000F0BD01462846FFF775FE44B99DF80430E6
:1099F000002BFBD19DF80500C0B209B0F0BD9DF869
:109A00000430002BF6D0A047EFE700BFC996020054
:109A10006DDF704779DF70477DDF704764DF704727
:109A20002DE9F04F83B004880C9FBDF83490B7F84F
:109A300000A0002C4CD09846002316468B460546C5
:109A40001C4603E02A880134A24224DD6A6852F8E9
:109A50002400019000220DF1030101A8FFF7DEFFB1
:109A600010BB9DF80320B242ECD103B33A8893199E
:109A70004B4518DC42440DF1030101A80123FFF717
:109A8000CDFF88B939889DF803200A443A802A8896
:109A90000134A242DADCDBB13B88013BA3EB0A03D1
:109AA0009BB2FF2B12D90C2003B0BDE8F08F3B888E
:109AB0005A1C334402334B4592B2F4DC3A8008F826
:109AC00002B03A88013292B23A80D3E708F80A30FD
:109AD000002003B0BDE8F08F2DE9F0470023178880
:109AE000138090F82D3086B0144605460E46002BA4
:109AF00049D1AA78002A70D1EA78002A2ED16A6862
:109B0000A2B1D91CB94225D8022192F90020F15402
:109B1000238801339BB20A212380F1542388013327
:109B20009BB22380F2542388013323802B89002B9E
:109B300040F029812B8A002B40F03E812B8B002B9B
:109B400040F053812B6A002B00F0A7802288911DE2
:109B5000B94262D90C2006B0BDE8F087D91CB942E1
:109B6000F8D80221F154238801339BB201212380CC
:109B7000F15423880B449BB22380F25423880B4476
:109B80009BB22380BBE7082FE4D904A8FFF740FF6E
:109B90000028E0D113880822CA54238801339BB2DD
:109BA0001B222380CA542088013080B220800622E4
:109BB00008440DF1110114F01EF823889DF81020BF
:109BC00006339BB212F0FE0218BF01222380F2542A
:109BD000238801339BB223808BE70433BB42B9D87F
:109BE00004A8FFF717FF0028B5D12388BDF810207F
:109BF0000321F154238801339BB219212380F154AE
:109C0000238801339BB2F1182380F254120A4A7060
:109C1000238802339BB223806EE71988052940F21E
:109C2000AE806FF4486801EB080080B24FF27D3ED1
:109C3000704540F2A4805888052840F2A0806FF457
:109C4000486C84441FFA8CFCF44540F298804FF62F
:109C5000FF7E714504D0704502D0814200F28F80B2
:109C60000521B1542288013292B212212280B154CE
:109C70002288013292B222801988B1543244090AF2
:109C800051702288023292B222805B88B3543244EF
:109C90001B0A53702388023323806B6A002B30D059
:109CA0009888B4F800E0811C0EF102020A44BA421E
:109CB0003FF650AFFE293FF64DAF033006F80E00D9
:109CC0002288013292B2FF212280B15422880132CF
:109CD00092B222801988B1543244090A5170208806
:109CE000023080B220809A885AB199680393002983
:109CF00045D0304413F07FFF039B9A882388134498
:109D0000238095F82C30002B40F08880287800289C
:109D10003FF421AF2B88012B31D023889A1CBA4203
:109D20003FF618AF012805D16978023119448F42F6
:109D3000FFF410AF023FFB1A06A99BB221F8083DC1
:109D4000B018FFF769FE00287FF405AF2A78022AD1
:109D500000F0B080012A00F0B5800821FE2B3FF60C
:109D6000F9AE2288581CB0542288013292B2228067
:109D7000B15422880132134423800020EBE60720EF
:109D800006B0BDE8F08705F1080802228DE89000D2
:109D9000404611463346FFF743FE00287FF4DBAE12
:109DA0008DE890004046334610220621FFF738FE2A
:109DB00000283FF4BFAECEE605F110088DE8900014
:109DC0004046334602220321FFF72AFE00287FF493
:109DD000C2AE8DE890004046334610220721FFF7BF
:109DE0001FFE00283FF4AAAEB5E605F118088DE87D
:109DF00090004046334602221421FFF711FE00284E
:109E00007FF4A9AE8DE8900040463346102215211C
:109E1000FFF706FE00283FF495AE9CE6D5F82880B3
:109E2000B8F1000FABD0B8F804200232FE2A3FF69A
:109E300091AE23884FF000094FF0160A0132F25418
:109E4000238801339BB2238006F803A023880133C3
:109E50009BB22380B8F80020F2543344120A5A709F
:109E6000238802339BB22380B8F80410F0180A4606
:109E700061B1D8F808301946002B80D013F0BBFE32
:109E8000B8F80420238813449BB2238009F1010908
:109E900095F82C205FFA89F94A4509EB49087FF6C5
:109EA00035AFAA6A02EB8808B8F804200232FE2A0D
:109EB000C4D94FE6BDF810209342FFF44EAF1346CD
:109EC00009214BE76A789342FFF447AF1346082114
:109ED00044E700BFD8B130B4437893421BD0B9B146
:109EE0000024234601E0994212D9045D0134234441
:109EF0009BB2C5181C466D789542F4D1994207D99A
:109F0000025D0233012A9BB202D030BC1844704774
:109F1000002030BCFBE700242346EFE75AB10023C2
:109F2000136040B1036833B170B5C38813F0030503
:109F300003D0072070BD0E20704704460846164621
:109F400000F0CAFCC0B2142804D02379834203D89D
:109F5000042070BD052070BDE388226800FB032348
:109F60003360284670BD00BF72DF704773DF7047F3
:109F700070B5044600F1AA060D46304607220021BE
:109F800013F044FEE38813B1A378012B2AD0E379C0
:109F90002BBB94F8AB30002B40F0C38094F8AC306E
:109FA000002B40F0BE8094F8AD30002B40F0B9801B
:109FB00094F8AE30002B40F0B48094F8AF30002B12
:109FC00040F0AF8094F8B0301A1C18BF01226B1E0D
:109FD000032B00F24881DFE803F00F5B1845A378FC
:109FE000022BD6D1636B002B00F0F780012284F89E
:109FF000B12008209847CCE7A379002B48D094F8EB
:10A000002430002B44D1002A48D1237A53B3636B08
:10A010000322A2706BBB002384F8B33004F13C052B
:10A0200018220021284613F0F1FDE36A0122591E8F
:10A03000914284F83C2054D9042B52D094F8241037
:10A0400084F85120002955D084F85220A3780021AB
:10A050001A4684F85010042B39D8DFE803F07B64EB
:10A06000AE217F00657ACDB1636B0422A270002B14
:10A07000D1D06279002ACED094F8B220002ACAD179
:10A08000012184F8B42084F8B31007209847C5E76D
:10A09000E379002BB9D0002AB7D00225A570BAE722
:10A0A0006269A16962640622A4F8481084F83C2021
:10A0B000627922B194F8B220002A00F0B280032223
:10A0C00084F8312004F19406C4F8A4601A46002AEA
:10A0D00040F0CC80636B13B194F8310098470020B6
:10A0E00070BD94F8242084F8513072B1A36A84F8CA
:10A0F0005230ABE7A37884F850101A46042BE6D808
:10A10000DFE803F028116E737900A37800211A4666
:10A1100084F85010042BDAD8DFE803F01C056267DE
:10A120006D00012253E700230120022180222664D2
:10A1300084F83100C4F8A430636484F83C10A4F8B7
:10A14000482000212A4604F15400FFF70DFF0028A3
:10A150005DD070BD002384F83130BBE7E269216A2D
:10A1600062640622A4F8481084F83C206279002A30
:10A1700047D094F8B220002A43D194F8B420002AA2
:10A180003FD0022384F850300122B4F89810D4F85C
:10A190009400FFF79FFE08B10423037004F19406B6
:10A1A00031462A4604F15400FFF7DEFE002858D15C
:10A1B0000622A37884F8312086E7022384F8313020
:10A1C00007232169E26884F83C3000232664A4F860
:10A1D0004810C4F8A4306264B3E784F8B130D8E61C
:10A1E000022384F831300323EBE76169A2696164DB
:10A1F000A4F848205CE7E169226A6164A4F8482079
:10A20000B4E7042284F8312004F194065CE794F862
:10A21000301094F85400FFF7A9FE00283FF45AAF1D
:10A2200097E794F8B420002A3FF449AF022384F85A
:10A2300050300122B4F89810D4F89400FFF74AFE89
:10A2400008B10423037004F1940631462A4604F150
:10A250005400FFF789FE20B90522A37884F8312045
:10A2600032E7A27833E70025A570D4E6D4F8A4102D
:10A2700068E700BF80F83010704700BF002943D066
:10A28000002841D0F8B591F87A30BBBB4FF0000EF2
:10A2900080F802E001F1780604460F460FCE251D36
:10A2A0000FC50FCE0FC596E8070085E8070084F8B4
:10A2B00030E0D7F8A4306363D7F8A830A3634FF633
:10A2C000FF7504F19403C4F8A4307146A4F8A850B3
:10A2D000072204F1AA0013F099FC23780BB984F843
:10A2E0005450224604F155011F25C4F894103846F5
:10A2F00022F8985FFFF7F0FB40B1F8BD91F8983075
:10A30000002BC3D00720F8BD0E207047224604F171
:10A310007401C4F89C1007F13C0022F8A05FFFF71D
:10A32000DBFBB8B901236269A569206484F8500099
:10A330000146626484F8513084F83C30A4F84850F7
:10A3400004F13C0204F15400FFF70EFE0028D4D1C2
:10A350002370F8BDF8BD00BF38B503780BB90820ED
:10A3600038BD04460020A1700D46FEF783FD18B1EC
:10A3700001236370002038BD29462046BDE83840DF
:10A38000FFF7F6BD70B50388112B0C460BD0262BBA
:10A390001DD0102B00D070BDC37B012BFBD1838857
:10A3A000A1F8A83070BD002381F8B2308288B1F8DE
:10A3B000A8309A42EFD108790028ECD10B780BBB7A
:10A3C0000820A36B002BE6D0BDE870401847037A45
:10A3D000013B012BDFD80B78002BF1D08B78104A92
:10A3E000013382FB0312DD17C5EB620505EB850522
:10A3F0005B1BDDB2A5700020FEF73CFD40B10123E0
:10A40000637070BD01258D70FEF734FD0028F6D114
:10A4100029462046FFF7ACFD0028BCD0D1E700BF9D
:10A42000676666660238012801D84B7803B9704721
:10A4300070B50B7800200C46487063B90820A36BF8
:10A4400043B1BDE87040184729462046FFF790FD0C
:10A450000028F4D170BD8D78FEF70CFD0028F3D0F4
:10A460000123637070BD00BF75DF704776DF7047F2
:10A470007ADF70477BDF704730B51D4B1A8885B295
:10A48000AA4283B001D003B030BD1A4C187A217BA8
:10A4900088420FD3227C00211972BAB96369002B5C
:10A4A000F1D00022ADF806508DF8042001A898479D
:10A4B00003B030BD104603F10A01FFF7D5FF88B1A4
:10A4C0001128E0D0A369002BF1D1DCE73B2128461D
:10A4D000FFF7CCFF30F00803E0D0A369002BDDD0FC
:10A4E0009847DBE71A7A01321A7203B030BD00BF19
:10A4F0009C65002080650020F0B50288112A83B099
:10A5000003463ED02BD9122A08D0502A04D1684DD8
:10A51000C188EA89914246D003B0F0BD654C82887B
:10A5200021889142F8D1E189B1F5FA7F61D2002604
:10A5300058896589854248D8A589854245D39B8934
:10A540009E4242D801F2F31199423ED3584B5B69C7
:10A550000121002061722072002B78D1DCE7102AE3
:10A56000DAD1C27B012AD7D1524C21884FF6FF7233
:10A57000914242D04E4B9B69002BCDD0042098478E
:10A58000CAE74C4C828823889A42C5D16068FCF7A0
:10A5900095FF18B1464B9B6903B198474FF6FF737F
:10A5A000238003B0F0BD028A022AB5D1414C8688CF
:10A5B0002788BE42B0D1123000F00AFA00285AD1E2
:10A5C0006068FCF77BFF70B9A6E7394D267A6B68A7
:10A5D000A9686068002E08BF194600236372FCF763
:10A5E00007FF002898D0AB69002B95D0984703B09F
:10A5F000F0BD6FF4F9700E189AE72F4D8288228013
:10A6000003CDC4F80E10E589C4F80A000021B5F5A1
:10A61000FA7F217202D36FF4F976A919588A6689F4
:10A6200086421AD8A689864217D39B8A8B4214D3B6
:10A6300005F2F3159D4210D31D4BD889012161729B
:10A6400000287FF469AF5B69002B3FF465AF8DF89C
:10A650000410ADF8062001A8C8E7154DEB890021CC
:10A660006172002B7FF458AF60686968FCF7C0FE28
:10A670000028B8D150E7637A63B96B68A968277A74
:10A6800060683246002F08BF1946FCF7B1FE00286B
:10A69000A9D141E76B6900222272002B3FF43CAF45
:10A6A0000122ADF806708DF8042001A8984733E721
:10A6B000806500209C650020B065002050B3F8B58F
:10A6C000054606460FCD174F3C460FC4864695E813
:10A6D0000700154B3B6084E80700BEF1000F1BD05C
:10A6E0007046FFF7C5FEA0B932681068516803C311
:10A6F0000E4B0F490F4A18464FF6FF7440F8041FDF
:10A700001C800021FCF748FE002814BF0320002015
:10A71000F8BDF8BD0E2070471846FFF7ABFE0028C5
:10A72000E6D0F8BD80650020B06500209C65002063
:10A73000B865002079A402002DE9F04F0388B0F835
:10A7400004A0112B99B075D01A2B814661D0102B23
:10A7500002D019B0BDE8F08F3E4A936818A8DB43D9
:10A7600040F8603D5168FEF7DFF8009B0193019BC4
:10A770008BB34FF000084446214601A8FEF7B0F81D
:10A7800030B118AB03EB480308F1010823F8284C5B
:10A790000134142CF0D1CDF834800DAD0FCD02ACC6
:10A7A0000FC40FCD0FC495E8070084E80700B8F187
:10A7B000000F10D0284E0DF10A0B00273BF8025F66
:10A7C000264C204629460434FEF780F8A642F8D1EC
:10A7D00001374745F2D1BAF1130F07D9204AE321D7
:10A7E0000420FCF73DFD19B0BDE8F08F51461D482F
:10A7F000FEF762F851461948FEF75EF899F80F30F7
:10A80000012BA6D051461848FEF756F819B0BDE8FE
:10A81000F08F047A15482409012C514611DDFEF70A
:10A820004BF8022C514612480FD0FEF745F819B0EC
:10A83000BDE8F08F51460B48FEF748F819B0BDE867
:10A84000F08FFEF743F80A485146FEF73FF819B07B
:10A85000BDE8F08FD865002050660020DC65002040
:10A86000104B0400E0650020E4650020E86500204E
:10A87000EC650020132801D90020704710B501466F
:10A8800004460748FEF72CF840B121460548FEF77C
:10A8900027F8002814BF0220012010BD002010BDA1
:10A8A000DC650020E4650020132801D900207047F2
:10A8B00010B5014604460648FEF712F828B12146B5
:10A8C0000448BDE81040FEF70BB8002010BD00BFE3
:10A8D000DC650020E8650020132801D914207047AA
:10A8E00010B5014604460448FDF7FAFF08B12046BA
:10A8F00010BD142010BD00BFDC65002070B50C4CED
:10A90000054620460E46FDF7EBFF08B1132D01D991
:10A91000002070BD2946201DFDF7E2FF0028F7D07A
:10A92000B01D04EB80002946BDE87040FDF7D8BF9C
:10A93000D8650020F8B50F4C0546204617460E4650
:10A94000FDF7CEFF08B1132D00D9F8BD2946201D13
:10A95000FDF7C6FF0028F8D0B01D04EB80002946A3
:10A960001FB9BDE8F840FDF7B1BFBDE8F840FDF7FD
:10A97000A3BF00BFD8650020F0B5144C054683B0D6
:10A980000E46204629461746FDF7AAFF18B90025AE
:10A99000284603B0F0BD043504EB8504A368019399
:10A9A000002EF4D0019B002BF1D000252C4602E0B4
:10A9B0000134142CECD0214601A8FDF791FF0028AA
:10A9C000F6D03946A0B2B0470135F1E7D86500208E
:10A9D000007800F00100704730B5002187B00546CF
:10A9E000224802F043F908B907B030BD04462846B2
:10A9F00000F0B6FA1128024607D012D986282BD0CB
:10AA000043F20203984213D10024194B22461978CD
:10AA10002846FFF78FFF0021144802F051F907B0D4
:10AA200030BD28B9124B28461978FFF783FFDBE7C2
:10AA3000002401940723284603920294ADF806509F
:10AA4000049405948DF8043000F04EFDADF8080034
:10AA500001A802F06BF8D8E70024019406232846E9
:10AA60000294ADF806500394EAE700BF5066002058
:10AA70005266002070B54FF6FF728AB000249042F3
:10AA800000940194029403940494ADF8020012D04F
:10AA9000054600F0B3FA0B2806460ED01DD9112842
:10AAA00019D043F20203984226D122461D4B284674
:10AAB0001978FFF73FFF0AB070BD0F23BDF8020001
:10AAC0008DF8003000F010FDADF80400684602F08B
:10AAD0002DF82246EAE70122E8E768B90E23BDF81F
:10AAE00002008DF8003000F0FFFCADF8040068466D
:10AAF00002F01CF83246D9E70024072328460594C3
:10AB000007968DF814300694ADF816500894099401
:10AB100000F0EAFCADF8180005A802F007F822469C
:10AB2000C4E700BF5166002070B54FF6FF728AB0CF
:10AB30000024904200940194029403940494ADF88C
:10AB4000020012D0054600F059FA0B2806460ED036
:10AB50001DD9112819D043F20203984226D122466A
:10AB60001D4B28461978FFF7E5FE0AB070BD0F238C
:10AB7000BDF802008DF8003000F0B6FCADF804001E
:10AB8000684601F0D3FF2246EAE70122E8E768B908
:10AB90000E23BDF802008DF8003000F0A5FCADF8E2
:10ABA0000400684601F0C2FF3246D9E700240723BB
:10ABB0002846059407968DF814300694ADF8165083
:10ABC0000894099400F090FCADF8180005A801F075
:10ABD000ADFF2246C4E700BF5166002070B5304E7D
:10ABE00086B031780546FFF789FE08B106B070BD22
:10ABF0000446284600F05AFA082803462DD029D9E1
:10AC000043F20202904249D043F20142904240D0C6
:10AC1000112843D000220721284601920292049273
:10AC2000059203938DF80410ADF8065000F05CFC1B
:10AC3000ADF8080001A801F079FF0122194B284660
:10AC40001978FFF777FE224631782846FFF772FE23
:10AC500006B070BD40B10628DCD1284600F044FCA7
:10AC600000F046FA0022E9E71023284601940294F6
:10AC70000394049405948DF80430ADF8065000F068
:10AC800033FC0124ADF8080001A801F04FFF224673
:10AC9000D4E72846FFF748FF0122CFE70122CDE79E
:10ACA0005466002053660020F0B504788BB00CB1D8
:10ACB0000BB0F0BD468800944FF6FF739E420546E8
:10ACC000ADF80260019402940394049413D03046CA
:10ACD00000F094F90B28074640D019D911283BD031
:10ACE00043F20203984222D12246234B3046197880
:10ACF000FFF720FE6E88304600F0C2F90028D7D05A
:10AD00001E4B688819780122FFF714FE0BB0F0BDC6
:10AD100068B90E23BDF802008DF8003000F0E4FBA6
:10AD2000ADF80400684601F001FF3A46DDE7002473
:10AD300007233046059407978DF814300694ADF834
:10AD400016600894099400F0CFFBADF8180005A830
:10AD500001F0ECFE2246C8E70122C6E70F23BDF84A
:10AD600002008DF8003000F0BFFBADF8040068462B
:10AD700001F0DCFEB8E700BF5166002053660020FA
:10AD8000F0B50378082B83B007D0224C20782249F5
:10AD90000022FFF7F1FD03B0F0BD417A044600291F
:10ADA000F3D1057A072D22D0082D2DD0012DECD11D
:10ADB0006A462946808801F001FB06460028E4D156
:10ADC000019B1B78002BE0D0A08800F073FC4FF6AD
:10ADD000FF739842D9D0114F0E4C39782A46FFF7AD
:10ADE000A9FD324638780E49FFF7C6FDCEE78088C8
:10ADF000084C00F05FFC4FF6FF739842C6D001226A
:10AE00002178FFF797FDC1E70648024C01F058FF93
:10AE1000BCE700BF52660020D9A90200536600209B
:10AE2000DDAB02005066002070B503888588522B88
:10AE300086B050D0542B26D0502B0DD0284C294B07
:10AE4000294918780022FFF797FD2078274900222A
:10AE5000FFF792FD06B070BD037B012BEED1827A25
:10AE6000012AEBD1018942F602139942E6D1204E24
:10AE70001B4C31782846FFF75DFD30781D490022D4
:10AE8000FFF77AFDDBE7002611232846019602969C
:10AE90008DF80430ADF8065003960496059600F040
:10AEA00023FBADF8080000F023F9134B0C4C197884
:10AEB00032462846FFF73EFD324628462178FFF706
:10AEC00039FDBDF8060000F00FFBADF8080001A841
:10AED00001F02CFEB3E72846FFF726FE004CAEE754
:10AEE000536600205166002075AA0200DDAB020007
:10AEF00052660020D9A9020054660020AFDF7047D7
:10AF0000B1DF7047B2DF7047B3DF704770B5124CE6
:10AF100023884FF6FF75AB4282B01BD00F4A92E8F0
:10AF2000030000228DE803001846694601F000FC8A
:10AF30002388AB426E460BD10CE0184601F0E8FBCB
:10AF400000223146208001F0F3FB2388AB4201D080
:10AF50001128F2D102B070BD56660020404B0400AB
:10AF60002DE9F04182B0074600F0BEFA4FF6FF73BC
:10AF700098423FD0054601264FF003086B46324603
:10AF80000821284601F01EFA0323044638BB019A23
:10AF90003846911D42F8048BFFF7B4FF044610B306
:10AFA0000C2815D0052C28464FF0080106D001F0DA
:10AFB00081FA40B9204602B0BDE8F08101F07AFA8A
:10AFC00004460028F6D00324204602B0BDE8F081F4
:10AFD000013608212846B6B201F06CFACEE7072800
:10AFE00008BF0C24E6E72A462846082101F042FB68
:10AFF0000446DFE743F20204DCE700BF2DE9F0413D
:10B0000082B0074600F070FA4FF6FF73984204D002
:10B010006A46082101F0D2F938B3002635460324E8
:10B020004FF001082346324629463846FFF768FFAD
:10B0300004280AD008280AD00B280AD0B8F1000F3B
:10B0400008BF0B2002B0BDE8F0811120F6E7002018
:10B05000F4E714F0020406D165B126462546032420
:10B060004FF00008DEE70124FAE7019DAE882C6866
:10B070000635D5E7002EE5D02E460324F0E700BFC5
:10B0800000B585B00DF10703039300F02DFA02AA75
:10B09000012101F093F920B9039B187805B05DF800
:10B0A00004FB002005B05DF804FB00BF38B50F4C71
:10B0B00003462046FFF728FF08B1032038BD21884A
:10B0C0004FF6FF721846FFF719FF43F20305A84237
:10B0D000F4D12188013189B24FF6FF7218462180E0
:10B0E000FFF70CFFA842F4D038BD00BF586600201F
:10B0F00010B5074B044693E8030082B08DE80300C7
:10B1000000226946204601F013FB02B010BD00BFCB
:10B11000484B040046DF70470388102B00D070476F
:10B120002DE9F043041D0FCC9FB007AD0FC50FCC28
:10B130000FC594E807009DF8203003F0FE03062BAE
:10B1400085E8070000F0A78000F040FE9DF8203061
:10B150005B08012B40F2D780022B40F09C8005AEAB
:10B160000DF1060532462946072000F037FE00287B
:10B1700000F091809DF8203003F0FE03042BF1D104
:10B18000069C03220DF1210102A812F034FD0322D6
:10B1900009A904A812F02FFD237C8DF84830E37B29
:10B1A0008DF84930A37B8DF84A30637B8DF84B30A6
:10B1B000237B8DF84C30E37A8DF84D30A37A8DF8EF
:10B1C0004E30637A8DF84F30237A8DF85030E37922
:10B1D0008DF85130A3798DF8523063798DF8533062
:10B1E00023798DF85430E3788DF85530A3788DF8B5
:10B1F000563063788DF857300D22002116A812F0D2
:10B2000005FD9DF810109DF811209DF812308DF865
:10B21000671012A88DF866208DF86530FFF77AFF69
:10B220009DF877209DF876409DF875308DF80C20BC
:10B2300003A9032202A88DF80D408DF80E3012F0FC
:10B24000CBFC00288ED1BDF81C70BDF806504FF61F
:10B25000FF739F4225D14FF6FF739D4218D0BDF872
:10B260001C40484B20461978FFF748FB002839D18D
:10B270001EAC002304F8303DBDF81C30ADF84C5036
:10B280002046ADF84A3001F065FC2046FFF70CFD82
:10B290001FB0BDE8F083BDF81C704FF6FF75AF42DC
:10B2A000F6D0DFF8E080384E98F8001001223846DA
:10B2B000FFF740FB98F800103846FFF71FFB002807
:10B2C0003FD1DFF8C4900024B9F8020098F80010CC
:10B2D000FFF714FB09F10C09002851D00134142C9C
:10B2E000F2D1B8E7284E0023324602E00133142B96
:10B2F000BED05188A14202F10C02F7D103EB430307
:10B3000026F82350B4E705AE0DF10605324629466E
:10B31000072000F063FD0028BDD0069911F1110F40
:10B32000F4D09DF820304A7C534013F0FE0FEDD14D
:10B33000123106220DF1210012F04EFC0028E5D159
:10B3400081E70023324602E00133142BB9D0518843
:10B35000B94202F10C02F7D1DBB203EB430308AAB6
:10B360009B0092E80300F41804F10802606022F8E0
:10B37000021B4FF6FF70090CF052678011706AE7EC
:10B38000E3B2EAE75A6600205C66002070B510223E
:10B3900004460D460130013112F01EFC04F1110388
:10B3A00005F11102002840D16178002957D1A17818
:10B3B000002954D1E178002951D1217900294ED1B9
:10B3C000617900294BD1A179002948D1E17900297F
:10B3D00045D1217A002942D1617A00293FD1A17A51
:10B3E00000293CD1E17A002939D1217B002936D1CD
:10B3F000617B002933D1A17B89BBE17B79BB217CB7
:10B40000064661BBA3B19AB1637C6A7C5A4012F0D4
:10B41000FE0F18D0002003F0FC03042B0FD06B7C30
:10B4200003F0FC03042B0AD070BD0026002BEAD1E8
:10B43000637C03F0FC03042B4FF00000EFD1301CC1
:10B4400018BF012070BD062205F1120104F112009F
:10B4500012F0C2FBB0FA80F04009637CDBE7697848
:10B4600001BBA978F1B9E978E1B92979D1B969794C
:10B47000C1B9A979B1B9E979A1B9297A91B9697A3A
:10B4800081B9A97A71B9E97A61B9297B51B9697B26
:10B4900041B9A97B31B9E97B21B92E7C003618BFAF
:10B4A0000126AFE70126ADE730B585B005460C466D
:10B4B00000F08CFC03E0BDF80630A3420BD102AAD9
:10B4C0000DF10601072000F089FC0028F3D14FF6AA
:10B4D000FF7005B030BD03992846FFF757FF0028DD
:10B4E000EDD0BDF80600F4E710B50D4B1978044611
:10B4F000FFF704FA10B94FF6FF7010BD094800239A
:10B50000024602E00133142BF5D05188A14202F12A
:10B510000C02F7D103EB430330F8230010BD00BF4A
:10B520005A6600205C66002038B5114B0D4619782C
:10B530000446FFF7E3F908B9052038BD0D4800239C
:10B54000024602E00133142BF6D05188A14202F1E9
:10B550000C02F7D103EB430300EB83031A1D586879
:10B5600028601B899279AA71AB80002038BD00BF8A
:10B570005A6600205C66002008B502887AB9837894
:10B580006BB9C3785BB903794BB943793BB983791C
:10B590002BB9C3791BB9037A0BB9437A13B10B8862
:10B5A000934201D0002008BD02310822023012F07F
:10B5B00013FBB0FA80F0400908BD00BF30B585B07C
:10B5C0000446851C00F002FC02AA0DF106010720CA
:10B5D00000F004FC00285FD023880399002B35D1AC
:10B5E000A278002A5CD1E378002B49D12279002A85
:10B5F00046D16279002A43D1A279002A40D1E2796A
:10B60000002A3DD1227A002A3AD1637A002B4CD10C
:10B610002379002B2FD1627952B9A379002B36D12F
:10B62000E2792AB9237A002B31D1627A002ACBD071
:10B630004A8D9A42C8D12C310822284612F0CCFA01
:10B640000028C1D1BDF8060005B030BDB1F84620D4
:10B650009A42EDD148310822284612F0BDFA00285E
:10B66000F0D023880399002BE2D1A278002ADFD101
:10B67000E378002BCCD04A8D00239A42A4D1DAE79C
:10B68000B1F84620002AE5D0002BC1D0F3E71346DD
:10B690004A8D9A4298D1CEE74FF6FF7005B030BD83
:10B6A000B1F84620002AD5D0C2E7B1F84630002BC9
:10B6B000D0D0ADE710B400230B4C1A46E15A8142BA
:10B6C00003F10C0307D00132142AF7D14FF6FF70B3
:10B6D0005DF8044B704702EB420204EB82025DF816
:10B6E000044B5088704700BF5C66002038B50C4B97
:10B6F0000D4619780446FFF701F900B938BD09482D
:10B700000023024602E00133142BF7D05188A142F6
:10B7100002F10C02F7D103EB430320F8235038BDAC
:10B720005A6600205C66002070B500221B4C134650
:10B73000A15A814202F10C0206D00133142BF7D139
:10B74000BDE8704000F066BD03EB430304EB8303E8
:10B750005D8800F05FFD4FF6FF739D42064600D006
:10B7600008B1304670BD0E4B28461978FFF7C6F871
:10B770000028F6D0094A334602E00133142BF0D0FA
:10B780005188A94202F10C02F7D103EB43034FF6B3
:10B79000FF7224F82320304670BD00BF5C66002095
:10B7A0005A66002090DF7047A5DF7047B5DF70470D
:10B7B000F0B5254E33880546180485B00C460A4678
:10B7C00040F004002B462149FBF736F900232846B8
:10B7D0006A4602A9ADF80840ADF80A40ADF8043059
:10B7E000ADF80C30ADF80E300093FFF7DBFF0746E5
:10B7F00010B9384605B0F0BD3488FDF767FE240463
:10B8000044F0010403462A4620461149FBF714F987
:10B81000BDF80020BDF8023002B933B130880D49BF
:10B82000000440F00100FBF707F9BDF80420002AEE
:10B83000DFD030880849000440F00100FBF782F8AF
:10B84000384605B0F0BD00BFEC5E0020584B040048
:10B85000884B0400D44B0400144C040088B110B48D
:10B860001B224FF01714002301610460C0F806404A
:10B870000271027342738372C3725DF8044B1846FF
:10B8800070470E20704700BF18B1172903D007205A
:10B8900070470E2070470180002070472DE9F04767
:10B8A000868884B02EBB0388232B0C46054600F007
:10B8B000DF8021D93A2B00F0C180552B40D0242BBA
:10B8C00076D0A37AABB1E1880020FFF76DFF034685
:10B8D000002800F0F08011280BD09B4B1C88FDF74E
:10B8E000F5FD240444F00104024698492046FBF784
:10B8F00029F804B0BDE8F087102B0BD0112BE0D154
:10B900001B234FF017128E72CE72C1F806200B73F4
:10B910004B73EEE709792173C37B012B00F0D880CC
:10B92000022B00F0C580E28823899342C0F0DF80BB
:10B93000637B8B42C5D20020FFF73AFFA37AC1E7B1
:10B94000814FC58838888249000440F004002B46A6
:10B950003246FBF771F8E3883888A672172D2A461D
:10B9600038BF17229A4228BF1A460004009640F0BA
:10B97000040078492281FBF7E3F83046E188FFF7BD
:10B9800015FF002840F0A780E37A002B99D12269A7
:10B99000002A96D02189ADF80A3040F67720ADF81C
:10B9A0000800ADF80C10204602A99047A37A89E759
:10B9B000654FB0F808903888B5F80AA0B5F80C8043
:10B9C0006549ED895FFA89F20004334640F00400CE
:10B9D0006273FBF731F8388860490004524640F042
:10B9E0000400FAF7AFFF38885D4900044A4640F08A
:10B9F0000400FAF7A7FF38885A4900042A4640F0A5
:10BA00000400FAF79FFF38885749000440F004000B
:10BA10004246FAF797FF2369002B3FF452AF4DF6E9
:10BA20007A20627B0296ADF80C60ADF8080002A99E
:10BA30008DF80C2020469847A37A43E74289E38893
:10BA400041499A4228BF1A4608884849172A38BFF0
:10BA5000172200043346228140F00400FAF7ECFF7D
:10BA600023690BB1E27AB2B90023E372A37240E713
:10BA7000354B077A18883E490004324640F00400EE
:10BA80003B46FAF7D9FF217BA888B94228BF39463F
:10BA9000FFF78EFE15E740F677212289ADF80810F2
:10BAA000ADF80A60ADF80C2002A920469847DBE704
:10BAB0006288E28038E7244AA07210882D49E28823
:10BAC0000125000440F00400E572FAF7B5FF10E725
:10BAD0002288E28028E73D88FDF7F8FC2D0445F038
